:1000000000000320D1010000B9180100711801009F
:1000100071180100711801007118010071180100B8
:10002000711801007118010071180100B918010060
:10003000B9180100711801000D4F0100114F0100A6
:10004000B9180100B9180100B9180100B918010068
:10005000B9180100B9180100B9180100B918010058
:10006000B9180100B9180100B9180100B918010048
:10007000B9180100B9180100B9180100B918010038
:10008000B9180100B9180100B9180100B918010028
:10009000B9180100B9180100B9180100B918010018
:1000A0005DC5000069C50000B9180100B91801005C
:1000B000B9180100B9180100B91801005D27010045
:1000C000B9180100B9180100B9180100052D010087
:1000D000B918010045330100B9180100B918010031
:1000E000B9180100B9180100B9180100B9180100C8
:1000F000B9180100B9180100B9180100B9180100B8
:100100001D550100315501004555010059550100AB
:10011000B9180100393B0100B9180100B9180100F4
:10012000B9180100B9180100B9180100B918010087
:10013000B9180100B9180100B9180100B918010077
:10014000414D0100B9180100AD380100B918010096
:10015000B9180100B9180100B9180100B918010057
:10016000B9180100B918010075C50000B9180100DF
:10017000B9180100B9180100B9180100B918010037
:10018000B91801000DF90000B9180100B9180100F3
:10019000B9180100B9180100B9180100B918010017
:1001A000B9180100B9180100B918010081C5000093
:1001B000B9180100B9180100B9180100B9180100F7
:1001C000B9180100B9180100B9180100B9180100E7
:1001D0005C4B4CF2205210B51A804DF628121A8052
:1001E00000BF00BF11F06CFB574B4FF030621A603C
:1001F000564A9A60564ADA60564B4FF470021A60BB
:10020000554B564A1A60564B1A78110703D51A787F
:1002100042F008021A70534B5349AA221A70534AEB
:10022000534B8B4204D252F8040F43F8040BF8E707
:10023000504B514900228B4202D243F8042BFAE77B
:100240004E494F4A002352F8230041F8230001335E
:10025000742BF8D14B4B4C4A802103F8011B93427D
:10026000FBD14A4B454A1A60494B8A221A70A3F5C2
:10027000805324225A70A0221A709A799207FCD5D2
:100280009A79D406FCD4434A937903F00C03082BE3
:10029000FAD1414B60221A7002331A78802AFCD1BD
:1002A0003C4B01221A715D225A719A799006FCD555
:1002B0009979384A4906FBD5384B394919600021EC
:1002C000596020231370937903F00C030C2BFAD19F
:1002D000344B354A1A60354A354C136813F4807331
:1002E00003D123604FF4A8531360324B324A1A6093
:1002F00000225A60072243F8042C304AC3F80C2D20
:1003000062B611F0F3FD2368DA0705D52C4811F029
:10031000ABFB2C4B2C4A1A602C4B1B785B0609D587
:10032000284C294B22689A4204D1254811F09CFBA5
:10033000002323601AF0A6FF11F0C8FA15F0F0FCB4
:10034000FEE700BF0E20054030800440823F0400DD
:100350000100002B88ED00E0002008E0030000858C
:1003600002D0074000E007400033FF1F4CC30600E7
:10037000301DFF1F0033FF1F183200200018FF1F21
:100380000000000000E400E064E400E008ED00E0AC
:10039000005006400040064001E007404480044011
:1003A0000000060204800440C010070010D0034083
:1003B00014D0034014E000E01FBF02000000202022
:1003C00069A864611CE00340A5C3945A00F007408B
:1003D000FFFFFFFFFFFFFFFFFFFFFFFFFFFFFFFF2D
:1003E000FFFFFFFFFFFFFFFFFFFFFFFFFFFFFFFF1D
:1003F000FFFFFFFFFFFFFFFFFFFFFFFFFFFFFFFF0D
:10040000FFFFFFFFFFFFFFFFFFFFFFFFDEF9FFFF23
:1004100010B5054C237833B9044B13B10448AFF33E
:1004200000800123237010BD0033FF1F0000000077
:1004300048C30600084B10B51BB108490848AFF384
:1004400000800848036803B910BD074B002BFBD0A0
:10045000BDE81040184700BF000000000433FF1F34
:1004600048C306000033FF1F00000000704700BFB4
:1004700000234FF07E520B49C0ED0D0A80ED0C1A9F
:1004800080ED0E0AC0ED001A80ED012AC0ED022AAF
:10049000C162C260C26103614361836103624362FE
:1004A000836270470050C34790ED023AD0ED076A6F
:1004B00090ED067A90ED045AD0ED037ADFED6B5A99
:1004C000D0ED0A2AD0ED094A90ED082A90ED054AB0
:1004D000D0ED0B3A2DED068B30EEC3AA61EE011A7A
:1004E000F0EECA0AA1EE265AE1EE077AB6EE006AED
:1004F00080EEA58A21EE866AA1EE024AF1EE468AD6
:10050000A8EEA25AE8EEA47AA8EEA34AE1EE057A94
:1005100066EE065AE8EE847AB1EE419AE8EE257A64
:10052000D0ED0E9A80ED054AA9EE247A77EEA99ACD
:10053000E9EE226AF7EE000AF0EE475A80EEA97A59
:10054000A9EE232AE1EE265AD0ED019A80ED082A81
:10055000E1EE224AE8EE825AEAEE019A21EE066ABC
:10056000F0EE640AD0ED004A80ED0D8AE8EE065AFE
:10057000E8EEA30AE1EE294AA9EE045AE9EE026A7E
:1005800025EE874A27EE872A30EE640A20EE877A26
:10059000E9EE232AA8EE065AE8EE216A90ED0C6AED
:1005A000C0ED0A2AE0EE049AE0EE024AA0EE073A15
:1005B00076EE233AC0ED019A80ED045AC0ED037A3D
:1005C000C0ED065AC0ED076AC0ED0B3AC0ED004A17
:1005D00080ED023AC0ED090AC1ED004A436813609C
:1005E000D0ED036AD0ED097A90ED055AD0ED0A2AD4
:1005F00090ED0B3AD0ED063AD0ED084AB1EE477ACD
:10060000E7EE267ABDEC068BC0ED097AD0ED047AD0
:10061000F1EE425AE7EE272AA7EE053AB0EE457A08
:10062000A5EE857AB1EE446A90ED074AC0ED0A2A3C
:10063000E6EE263AA6EE274AE5EEA66AE5EEA77AAA
:10064000F0EE475AB0EE647AA6EE057A80ED0B3AEA
:10065000C0ED063AC0ED036A80ED074AC0ED047AAA
:10066000C0ED055A80ED087A704700BF000048428F
:1006700030B40849084C016000224FF07E5500213B
:100680004560446180F824108260C260026130BC21
:10069000704700BFBC74933C41AE893BDFED987A54
:1006A00090ED027A90ED035A90ED016AD0ED046A64
:1006B00061EE275A60EEA70A20EE270A67EE653A38
:1006C00025EE603A25EE851A60EE874AE0EE863A1E
:1006D000A7EE403AA0EE061AE5EE864AE0EE263A8C
:1006E000A5EEE63AA0EEE61AE0EE454AF5EE401A2F
:1006F000F6EE007AF1EE10FA2DED0A8B63EEA73AD2
:1007000023EE273A21EE271A64EEA74A05D1B5EE6B
:10071000402AF1EE10FA00F0EC8062EE027AB6EEBA
:10072000000AE1EEA17AF7EE080AE2EEA27AB0EE54
:10073000604A17EE903A5B08C3F1BE4303F55D13C0
:1007400003F5D453063305EE903A67EE807A36EE21
:10075000A68A67EEA57AF1EE008AA5EEE74A67EE73
:1007600028AA24EE254A26EEA69A61EE841A26EEE1
:1007700006AA68EE615A2AEE28AAEAEE895A76EEAF
:10078000069AE7EE0A5A61EEA97A24EE422AE5EECD
:100790000A7AE2EE295A65EE289AF2EE00BAE9EEFC
:1007A000897A27EE07BA67EE2BCA35EE059A75EE01
:1007B000EA5A25EE05AAE2EE087A26EE28CAECEE01
:1007C0008B5A21EE898A65EE2BBAACEE0A8AECEEE2
:1007D0008A5A77EEE97A62EE842AEBEE8B7A37EE6C
:1007E000074AACEE0B8AE2EEAA5A2BEE28BA64EE68
:1007F000611AA2EE048AEBEE8A7AE6EE8B1A25EEF7
:10080000A54A6AEE288AE2EEA97AA8EE084AE6EE40
:10081000A81AA7EEA74AE2EE091AD0ED002AA1EE27
:10082000A14A14EE103A5B08C3F1BE4303F55D1311
:1008300003F5D453063302EE103A24EE004A24EEB8
:10084000024AE2EE440A60EE820A20EEC88A60EEB6
:10085000E55A60EEE77A60EEE10AA8EE223AA5EEEC
:10086000A21AE7EEA23AE0EEA24A002380F8243072
:1008700090ED054AA1EE047ABDEC0A8BA3EE046A62
:1008800067EE075AF0EE457AE3EE847AE6EE065A12
:10089000E4EE846AE7EEA75AF6EE004AE6EEA65AC0
:1008A000B7EE085A15EE903A5B08C3F1BE4303F564
:1008B0005D1303F5D453063365EEA45A04EE903A63
:1008C00065EEA45AA4EEE55AF0EE455A65EEA45A38
:1008D00026EE256A27EE257A67EEA57A66EEA56AEA
:1008E00080ED016A80ED027AC0ED037AC0ED046A02
:1008F0007047F5EE402AF1EE10FA7FF40EAFB4E740
:1009000039FA8E3C10B5D0ED027A90ED037A90ED75
:10091000040AD0ED016A2DED028BB6EE008AF0EEEE
:10092000480AE7EEE70A044627EE000AE7EE470A20
:10093000A6EEA70A16F07CFA94ED016AD4ED037ACC
:10094000D4ED026A94ED047A84ED060A67EEC67A65
:10095000B8EE000AE6EE877A27EE800A16F008FA6B
:1009600094ED037AD4ED046AD4ED017A94ED026A31
:1009700084ED070AF0EE480AE7EE470A26EEA70ADA
:10098000E6EEE60AA6EE070A16F052FA012384F80C
:100990002430BDEC028B84ED080A10BD00207047A6
:1009A0004FF0FF30704700BF704700BF027C02F07D
:1009B000080202F0FF0332B1C36A406A181A48BF46
:1009C0006FF0004070471846704700BF704700BF87
:1009D00010300CF031BD00BF00B583B002AB012276
:1009E00003F8011D103019460CF026FD03B05DF828
:1009F00004FB00BF10300CF0EDBB00BF10300CF05A
:100A000015BD00BF00B583B001220DF10701103004
:100A10000CF012FB01280CBF9DF807004FF0FF30CF
:100A200003B05DF804FB00BF10B5044614F054FD9C
:100A3000204610BD10B5044614F02CF9204610BD18
:100A400082B072B6074B4AF202614BF280421980C3
:100A50001A8062B6044A054B12680192019A1A6024
:100A600002B070470C200540C4CEFF1F4035FF1F69
:100A700008B50921074813F0D9FE074814F09CFD7A
:100A8000064A07491368074801331360BDE8084068
:100A900010F068BA1C950600A028FF1FCC34FF1F79
:100AA000E019020098BAFF1F70B5044608460D46CB
:100AB0001BF0C6FC23680246294620465B68BDE859
:100AC0007040184738B5054614F050FD04462846D6
:100AD00014F072FD204438BD38B5044608460D4672
:100AE0001BF0AEFC2368024629465B682046984707
:100AF0000546204614F060FD284438BD2DE9F04F2E
:100B00002DED028BA1B01CAC2046032300226449CA
:100B100015F0CAF82046634915F066F805462046E8
:100B200014F0A8FE25B312F079F800281BDD5E4D05
:100B300012F084F82B685D4A0293029E13685C49A8
:100B4000C0B20133FA280E6013605FD0594A1368AF
:100B50007E2B08DC584F397829B1591C574E11604B
:100B60007F29F05465D021B0BDEC028BBDE8F08F39
:100B700012F054F80028F6D012F050F8504B4A4DBD
:100B80001A68504F504E9042B8BF1868186012F063
:100B900055F82B680493DFF814E1454A0499116075
:100BA000DEF80030BA68C1B20133E52ACEF8003071
:100BB000317033D8DFF8308152B998F800300A2B01
:100BC00006D088F8001021B0BDEC028BBDE8F08F94
:100BD000DFF8F090484614F0A9FF31780A29F0D1E7
:100BE0003A492F4815F000F88246002800F09D8110
:100BF000D9F808304A2B00F08683E12B00F0B68349
:100C00003349304814F03EFF3178DAE72A4C29495D
:100C10002A4A012323700B601070A4E72C49384640
:100C200014F030FF2B492C4814F0DEFCBA68317800
:100C3000C0E72A4B1868596808AB03C3082208A903
:100C400030461AF095FE08BB0346B64606F17E0C08
:100C50001EF8012F5BBA9BB25340C3F303125340FB
:100C60001A0392B253405A0102F4FF52F44583EA48
:100C70000203EDD1002B39D00023112118483B701D
:100C800013F0D4FD144814F097FC6CE700231421F2
:100C900014483B7013F0CAFD0F4814F08DFC62E756
:100CA0008C34FF1F28950600C4CEFF1FF838FF1FA5
:100CB00050C6FF1F10C7FF1F3C34FF1FA835FF1F82
:100CC0005CC5FF1FB834FF1FA034FF1F7C950600D2
:100CD000C4B2060060950600A028FF1F2C8D0600F8
:100CE000449506002C95060004C7FF1FDFF8188303
:100CF000AA4AB168116098E8030008F1080284E884
:100D0000030092E803009DED1C7B84E80300B0EE35
:100D1000470AF0EE670AD6ED036AA149DFF8ECE274
:100D2000A04ADFF8EC92C1ED006ADDE91CABD6F811
:100D300010C09D48019302218EED007BC2F800C0D7
:100D4000C9E900AB14F0A8FC01219848DFF8C4A25F
:100D500013F06CFD99ED000B0221934814F09CFCFC
:100D6000914814F029FC9248924AD6F82CE0D6F823
:100D700030C0C0F800E09049C2F800C08F48904AE7
:100D8000D6F83CE0D6F840C0D6F834B0D6F8389063
:100D9000CAF800B0C1F80090C0F800E0C2F800C086
:100DA0002A680392039A874996F847B096F848A0B4
:100DB00096F84990A1FB0231C9080CA80A2214F048
:100DC000DFFD0E9A0CA9023A204614F091FF21464D
:100DD0000CA814F04FFE204614F04CFD594618A8FC
:100DE00014F0BAFD18A9204614F098FD7649204663
:100DF00014F0C8FE5146834614A814F0ADFD14A9A2
:100E0000584614F0B7FE704914F0BCFE49468246BD
:100E100010A814F0A1FD10A9504614F0ABFE6B49C8
:100E200014F0B0FE0CA914F0A5FE0146684814F0B9
:100E300019FE10A814F01EFD14A814F01BFD204686
:100E400014F018FD444618A814F014FD414654F857
:100E5000390F1C90424651F83D0FDDF870A01C90F0
:100E600052F8410FDDF870C01C90D8F82D00DDED70
:100E70001C7A1C90D8F83100DDF870B0DFF898E1EA
:100E80001C90D8F83500DDF870901C90206896F81A
:100E90004C408EF800404F4CDDF870E0C4F800A0E4
:100EA0001C904D4C08684D49C4F800C0DFF86CA197
:100EB000C1ED007ADFF868C1494E4A491C9C1C907C
:100EC000CAF800B0CCF80090C6F800E00C60DDF87D
:100ED00070A010681C90D8F84500DDF870901C9048
:100EE000D8F84900DDF870E01C90D8F84D001C9C43
:100EF000DFF830811C903C493C4E3D483D4ADDF8CE
:100F000070C0C8F800A0C1F80090C6F800E0046006
:100F1000C2F800C02A681892374A1899019B3B70A2
:100F20000CA8116014F0A6FC1DE63449344814F0F6
:100F30005BFE8346002877D0D9F80830352B7FF444
:100F40005FAE0DF120094846514614F0D3FC5746D8
:100F500051462C4814F05EFE0AF1010A0378BAF1FA
:100F6000310F1F44F4D1524633232649204614F052
:100F70009BFE0021204614F04DFE102200211CF0A3
:100F80001DFEFFB28246204614F074FC574500F067
:100F9000D785484614F06EFC32E600BF90C3FF1FB1
:100FA00064BBFF1FA4C4FF1FA028FF1F58950600A5
:100FB00038C6FF1F38C7FF1F84C4FF1F00C5FF1FAF
:100FC0008034FF1FCDCCCCCC5C95060044AA060033
:100FD000E038FF1FBCB9FF1FECC5FF1F00C7FF1F94
:100FE0006836FF1FD034FF1FCCB9FF1F5836FF1FD4
:100FF00080C4FF1FE8C5FF1F68B9FF1FC495060026
:101000008C34FF1FB834FF1FBC35FF1F9033FF1F08
:101010002034FF1F6036FF1FF8C3FF1F34C7FF1FB8
:101020006C36FF1F6835FF1FBC49BD4814F0DCFD5E
:101030008246002800F0D681D9F808303B2B7FF497
:10104000DFAD5946484614F0E5FD03783D2B7FF4AB
:10105000D7AD0121484614F0DDFD0378312B7FF434
:10106000CFAD4846022114F0D5FD0378312B7FF433
:10107000C7AD0DF120094846594614F03BFCDA464D
:101080005F463946A74814F0C5FD01370378372F6E
:101090009A44F6D13A463923A249204614F004FE78
:1010A0000021204614F0B6FD102200211CF086FD20
:1010B0005FFA8AFA0746204614F0DCFBBA457FF453
:1010C00068AF1B2317229749204614F0EDFD2146F7
:1010D000484614F0CFFC204614F0CCFB9249484619
:1010E00014F082FD48B9484614F010FEF2EE047A7E
:1010F00080EE270A8D4B83ED000A0F230B228949CE
:10110000204614F0D1FD2146484614F0B3FC204699
:1011100014F0B0FB8449484614F066FD48B94846CF
:1011200014F0F4FDF2EE047A80EE270A804B83ED92
:10113000000A14230F227B49204614F0B5FD2146F6
:10114000484614F097FC204614F094FB7949484631
:1011500014F04AFD48B9484614F0D8FDF2EE047A7E
:1011600080EE270A744B83ED000A172314226D4981
:10117000204614F099FD2146484614F07BFC204699
:1011800014F078FB6D49484614F02EFD20B948460E
:1011900014F0B6FD6A4B18602823252261492046C9
:1011A00014F082FD2146484614F064FC204614F0F9
:1011B00061FB6249484614F017FD48B9484614F0EF
:1011C000A5FDDFED607A604B80EE270A83ED000A13
:1011D0002B2328225349204614F066FD2146484619
:1011E00014F048FC204614F045FB5449484614F0DE
:1011F000FBFC48B9484614F089FDF2EE047A80EE13
:10120000270A524B83ED000A21231B224549204621
:1012100014F04AFD2146484614F02CFC204614F0F8
:1012200029FB4B49484614F0DFFC20B9484614F02E
:1012300067FD484B186031232D223A49204614F0AF
:1012400033FD2146484614F015FC204614F012FBED
:101250003549484614F0C8FC38B9484614F050FDEA
:101260000A233D4A03FB00F010602B6806933B4BBA
:10127000069A1A602B490523032218A814F014FDBE
:1012800018A9204614F04AFB3549204614F07AFC90
:10129000072305220546234914A814F005FD14A9C7
:1012A000284614F067FC2E4914F06CFC0923072231
:1012B00005461C4910A814F0F7FC10A9284614F0A4
:1012C00059FC284914F05EFC0B23054609220CA8A2
:1012D000144914F0E9FC0CA9284614F04BFC014613
:1012E000214814F0BFFB0CA814F0C4FA10A814F0A5
:1012F000C1FA14A814F0BEFA204614F0BBFA18A8DC
:1013000014F0B8FA45E60021484614F083FC03784F
:10131000212B00F09A81D9F808306EE4D0950600B0
:101320008C34FF1FB834FF1FDC9506009835FF1F73
:10133000C8B9FF1F6C9A0600E4C5FF1FE4950600BC
:10134000AC1DFF1F0000C84254C5FF1F84BAFF1F19
:10135000E89506002439FF1F8834FF1F68B9FF1F76
:101360005C95060044AA060044BBFF1F0021D1483B
:1013700014F050FC0378212B7FF442AC0121CD48BE
:1013800014F048FC0378332B7FF43AAC0DF160097C
:10139000002148460F4614F0ADFA3D462946C5489F
:1013A00014F038FC01350378DD2D1F44F6D12A46B0
:1013B000DF23C049204614F077FC0021204614F0BA
:1013C00029FC102200211CF0F9FBFFB20546204643
:1013D00014F050FAAF4200F0C280B749B748FFF7A7
:1013E0007BFBD6E5B649B74814F0FEFB00283FF476
:1013F00007ACD9F808303B2B00F05D83BB68DD2BD0
:101400007FF4FEAB0021AB4814F004FC03783D2BC5
:101410007FF4F6AB0121A74814F0FCFB0378332BD3
:101420007FF4EEAB0221A34814F0F4FB0378312BD8
:101430007FF4E6AB0DF16009002148460D4614F03B
:1014400059FA2F4639469B4814F0E4FB01370378DC
:10145000D92F1D44F6D13A46DB239649204614F095
:1014600023FC0021204614F0D5FB102200211CF0A3
:10147000A5FBEDB20746204614F0FCF9BD427FF40F
:1014800088AD2F232C228B49204614F00DFC2146D9
:10149000484614F0EFFA204614F0ECF98A49484621
:1014A00014F0A2FB48B9484614F030FCF2EE047A7E
:1014B00080EE270A854B83ED000A20231D227D49FB
:1014C000204614F0F1FB2146484614F0D3FA20469A
:1014D00014F0D0F97C49484614F086FB48B94846D8
:1014E00014F014FCF2EE047A80EE270A784B83EDB8
:1014F000000A1D231A226F49204614F0D5FB21460D
:10150000484614F0B7FA204614F0B4F96E4948463C
:1015100014F06AFB48B9484614F0F8FBF2EE047A7E
:1015200080EE270A6B4B83ED000A162312226149D5
:10153000204614F0B9FB2146484614F09BFA204699
:1015400014F098F96449484614F04EFB00287FF4E3
:1015500020AD484614F0D4FB604B186019E52F23EA
:101560002C225449204614F09FFB2146484614F093
:1015700081FA204614F07EF95949484614F034FBAC
:10158000002800F0FC83514B564A1A6020231D228C
:101590004849204614F088FB2146484614F06AFA70
:1015A000204614F067F94E49484614F01DFB002808
:1015B00000F0DA83464B4B4A1A601D231A223D493C
:1015C000204614F071FB2146484614F053FA204699
:1015D00014F050F94249484614F006FB002800F088
:1015E000DA833C4B3F4A1A601623122231492046C7
:1015F00014F05AFB2146484614F03CFA204614F0F9
:1016000039F93949484614F0EFFA002800F0A6836A
:10161000324B4FF0FF321A60DC23D9222549204695
:1016200014F042FB2146484614F024FA204614F0F8
:1016300021F92B49484614F0D7FA002800F0878397
:101640002A4B4FF0FF321A60A3E40121484614F000
:10165000E1FA0378312B7FF45EAE0DF12009002111
:1016600048468A4614F046F957463946114814F060
:10167000D1FA01370378462F9A44F6D13A464823E7
:101680000C49204614F010FB0021204614F0C2FA49
:10169000102200211CF092FA5FFA8AFA07462046CF
:1016A00014F0E8F8BA4525D011490448FFF714FAB8
:1016B0006FE400BFB834FF1FB4950600A028FF1FD9
:1016C000F09506008C34FF1FE49506007036FF1F6E
:1016D00020BBFF1F90BAFF1FDC95060024BBFF1F35
:1016E00098950600000080BF88950600F4CBFF1F88
:1016F000A49506001B231722C249204614F0D4FAF1
:101700002146484614F0B6F9204614F0B3F8BE4915
:10171000484614F069FA002800F03781BB4BBC4AF8
:101720001A600F230B22B749204614F0BDFA214658
:10173000484614F09FF9204614F09CF8B2494846F8
:1017400014F052FA002800F0AB81B24BB24A1A6092
:1017500014230F22AB49204614F0A6FA214648462E
:1017600014F088F9204614F085F8AC49484614F086
:101770003BFA002800F08981A94BA74A1A60172379
:101780001422A049204614F08FFA2146484614F04E
:1017900071F9204614F06EF8A249484614F024FA74
:1017A000002800F06C81A04B4FF0FF321A60282314
:1017B00025229449204614F077FA2146484614F031
:1017C00059F9204614F056F89649484614F00CFA98
:1017D000002800F04981954B8F4A1A602B2328225C
:1017E0008849204614F060FA2146484614F042F930
:1017F000204614F03FF88B49484614F0F5F90028CC
:1018000000F0F5808A4B844A1A602D232B227D49F3
:10181000204614F049FA2146484614F02BF9204698
:1018200014F028F88349484614F0DEF9002800F047
:10183000D880814B4FF0FF321A6021231B2271495F
:10184000204614F031FA2146484614F013F9204698
:1018500014F010F87949484614F0C6F9002800F051
:10186000BA80774B774A1A6031232D22654920468A
:1018700014F01AFA2146484614F0FCF8204613F0FA
:10188000F9FF6149484614F0AFF9002800F09A804A
:101890006D4B6C4A1A60382334225A49204614F0A2
:1018A00003FA2146484614F0E5F8204613F0E2FF1B
:1018B0005549484614F098F9002878D0634F544BA6
:1018C0003B60342331224F49204614F0EDF9214684
:1018D000484614F0CFF8204613F0CCFF5149484653
:1018E00014F082F900285BD04B4B3B6005230322A8
:1018F00018A8444914F0D8F918A9204614F00EF895
:101900005349204614F03EF90723052207463D4976
:1019100014A814F0C9F914A9384614F02BF94C494D
:1019200014F030F9092307220746364910A814F0AD
:10193000BBF910A9384614F01DF9464914F022F9F4
:101940000B23092207462F490CA814F0ADF90CA966
:10195000384614F00FF901463F4814F083F80CA8FC
:1019600013F088FF10A813F085FF14A813F082FF6E
:10197000204613F07FFF18A813F07CFF2B681C9300
:10198000364B1C9A1A60FFF704BB484614F0BEF9A8
:10199000F2EE047A80EE270A1C4B83ED000AC0E6C3
:1019A000484614F0B3F92E4B83ED000A9EE74846F3
:1019B00014F0ACF9F2EE047A80EE270A234F87ED9B
:1019C000000A7EE7484614F09BF90A231E4A03FBEF
:1019D00000F010605FE7484614F092F9184B186069
:1019E00042E7484614F08CF9134B186025E7484647
:1019F00014F08CF9F2EE047A80EE270A0C4B83ED9A
:101A0000000A02E7B834FF1F889506009835FF1FCB
:101A1000000080BFC8B9FF1F0000C8C29095060033
:101A2000E4C5FF1F98950600AC1DFF1F54C5FF1F9E
:101A300084BAFF1FA09506004039FF1F9C95060041
:101A40002439FF1FF0D8FFFF8834FF1FA435FF1F84
:101A50005C95060044AA060044BBFF1F68B9FF1F3F
:101A60003C35FF1F0000C842484614F04FF95FEDB7
:101A7000037ACE4B80EE270A83ED000AAEE6484695
:101A800014F03EF9CA4B186091E6484614F03EF94E
:101A9000F2EE047A80EE270AC64B83ED000A6EE66A
:101AA000484614F033F9F2EE047A80EE270AC24B6E
:101AB00083ED000A4CE65146484614F0ABF8037833
:101AC0003D2B7FF49BAC0121484614F0A3F803782A
:101AD000312B7FF493AC4846022114F09BF8037835
:101AE000312B7FF48BAC0DF120094846514613F0A1
:101AF00001FFD3465946B14814F08CF80BF1010BA5
:101B00000378BBF1370F9A44F4D15A463923AB49D5
:101B1000204614F0C9F80021204614F07BF810226A
:101B200000211CF04BF85FFA8AFA8346204613F036
:101B3000A1FEDA4500F06681484613F09BFE5DE4A5
:101B4000182314229D499E4F204614F0ADF82146DB
:101B5000484613F08FFF204613F08CFE484614F0E1
:101B6000D5F8B2EE048A80EE080A0C2308229349C5
:101B70002046DFED947A60EE277AC7ED007A14F004
:101B800093F82146484613F075FF204613F072FE85
:101B9000484614F0BBF880EE080A874F87491123A6
:101BA0000C22204687ED000A14F07EF821464846B4
:101BB00013F060FF204613F05DFE484614F0A6F8CF
:101BC00080EE080A7B4F7D4924232122204687EDA1
:101BD000000A14F069F82146484613F04BFF2046EE
:101BE00013F048FE484614F091F8DFED777A6F4F16
:101BF000724980EE270A27232422204687ED000A17
:101C000014F052F82146484613F034FF204613F0F2
:101C100031FE484614F07AF880EE080A6B4F6749A7
:101C200029232722204687ED000A14F03DF821469B
:101C3000484613F01FFF204613F01CFE484614F0E0
:101C40005FF8634B5D4918602D222F23204614F066
:101C50002BF82146484613F00DFF204613F00AFEEC
:101C60000121484613F0D6FF102200211BF0A6FFE9
:101C7000C30737D51D2318225049564F204614F06C
:101C800013F82146484613F0F5FE204613F0F2FD06
:101C9000484614F035F807EE900A9FED4F7A474911
:101CA000F8EEE77A212367EE877A1D22FDEEE77AC8
:101CB0002046C7ED007A13F0F7FF2146484613F09F
:101CC000D9FE204613F0D6FD484614F01FF880EEEA
:101CD000080A424BDFED427A60EE277AFDEEE77AA2
:101CE000C3ED007A2B6805933E4B059A1A60334981
:101CF0000223002218A813F0D7FF18A9204613F0DA
:101D00000DFE3949204613F03DFF0423022205460B
:101D10002A4914A813F0C8FF14A9284613F02AFF73
:101D2000314913F02FFF062304220546234910A84A
:101D300013F0BAFF10A9284613F01CFF2B4913F02B
:101D400021FF0823054606220CA8FFF7C1BA484622
:101D500013F0D6FF264B1860FFF71BB9484613F067
:101D6000CFFF244B186057E4484613F0CFFFF2EE44
:101D7000047A80EE270A204B83ED000A1DE44846D2
:101D800013F0C4FFF2EE047A80EE270A1B4B83EDBA
:101D9000000AFFF7FBBB484613F0B8FFF2EE047AE7
:101DA00080EE270A164B83ED000A1DE454C5FF1F81
:101DB000AC1DFF1FE4C5FF1FC8B9FF1FB834FF1FCC
:101DC0009835FF1FC0CFF83F0000C84284BAFF1FFC
:101DD0004039FF1F2439FF1F48F951408834FF1F45
:101DE0000000704268B9FF1F5C95060044AA060017
:101DF000F4CBFF1F24BBFF1F20BBFF1F7036FF1F4C
:101E000090BAFF1F1B231722A949204613F04CFF4D
:101E10002146484613F02EFE204613F02BFDA5491F
:101E2000484613F0E1FE48B9484613F06FFFF2EE62
:101E3000047A80EE270AA04B83ED000A0F230B22C1
:101E40009B49204613F030FF2146484613F012FE0E
:101E5000204613F00FFD9749484613F0C5FE48B9D8
:101E6000484613F053FFF2EE047A80EE270A934BB4
:101E700083ED000A14230F228D49204613F014FF2E
:101E80002146484613F0F6FD204613F0F3FC8C493A
:101E9000484613F0A9FE48B9484613F037FFF2EE62
:101EA000047A80EE270A874B83ED000A1723142259
:101EB0007F49204613F0F8FE2146484613F0DAFD2C
:101EC000204613F0D7FC8049484613F08DFE20B918
:101ED000484613F015FF7D4B1860282325227449CE
:101EE000204613F0E1FE2146484613F0C3FD20468C
:101EF00013F0C0FC7449484613F076FE48B94846D2
:101F000013F004FFDFED727A724B80EE270A83ED47
:101F1000000A2B2328226649204613F0C5FE2146DD
:101F2000484613F0A7FD204613F0A4FC6649484636
:101F300013F05AFE48B9484613F0E8FEF2EE047A70
:101F400080EE270A644B83ED000A2D232B2258498B
:101F5000204613F0A9FE2146484613F08BFD20468B
:101F600013F088FC5D49484613F03EFE20B9484610
:101F700013F0C6FE5A4B186021231B224C49204601
:101F800013F092FE2146484613F074FD204613F0EC
:101F900071FC5449484613F027FE20B9484613F017
:101FA000AFFE514B1860342331224149204613F0D3
:101FB0007BFE2146484613F05DFD204613F05AFC97
:101FC0004149484613F010FE48B9484613F098FEC0
:101FD00007EE900A454BF8EEE77AC3ED007A31231D
:101FE0002D223349204613F05FFE2146484613F068
:101FF00041FD204613F03EFC2E49484613F0F4FD07
:1020000038B9484613F07CFE0A23394A03FB00F036
:1020100010602B680793374B079A1A6018A805239E
:102020000322234913F040FE18A9204613F076FC42
:102030003149204613F0A6FD0723052205461C4919
:1020400014A813F031FE14A9284613F093FD2A4971
:1020500013F098FD092307220546154910A813F02F
:1020600023FE10A9284613F085FD244913F08AFDAC
:102070000B23092205460E490CA813F015FE0CA9E6
:10208000284613F077FD01461D4813F0EBFC0CA821
:1020900013F0F0FB10A813F0EDFB14A813F0EAFB0B
:1020A000204613F0E7FB18A813F0E4FB44E500BF5B
:1020B000B834FF1FDC9506009835FF1FC8B9FF1F15
:1020C0006C9A0600E4C5FF1FE4950600AC1DFF1FD7
:1020D0000000C84254C5FF1F84BAFF1FEC950600DC
:1020E0004039FF1FE89506002439FF1F3C35FF1FCC
:1020F0008834FF1F68B9FF1F5C95060044AA0600DC
:1021000044BBFF1F38B50A220023054613F07AFAB4
:102110000446284613F050FA204438BD38B5054629
:1021200013F0B0FA0446284613F046FA204438BDAE
:1021300038B5054613F0A6FA0446284613F03CFAD3
:10214000204438BD002310B4114C41720261046078
:102150000372C36041B1194600E0026942F82310DE
:10216000427A01339A42F8DC0A4B1A680AB90CE049
:102170001A465369002BFBD15061002343618380D1
:10218000C38083725DF8044B70471860F5E700BFA9
:10219000288D06001031002010B5044613F0B0FD64
:1021A000012804D00949204613F01EFD08B1012082
:1021B00010BD0749204613F017FD0028F7D120462F
:1021C000044913F011FD0028F2D0F0E7FC95060059
:1021D00068970600009606002DE9F041804684B01D
:1021E0000C46074600252C21204613F03BFD061E19
:1021F0004FF000022146334668461FDD13F054FDC0
:10220000684613F07DFD013547F8040F684613F06A
:1022100031FB721CA368C8F800502146684613F0D1
:1022200043FD6946204613F025FC684613F022FB67
:10223000052DD8D1404604B0BDE8F081204613F00A
:102240005FFD08EB8503013558604046C8F8005033
:1022500004B0BDE8F08100BF2DE9F041804684B0B4
:102260000C46074600252C21204613F0FBFC061ED9
:102270004FF0000221463346684623DD13F014FD7B
:10228000009818F0D9FF51EC100B18F0F9FD01354A
:1022900047F8040F684613F0EDFA721CA368C8F8FB
:1022A00000502146684613F0FFFC6946204613F0B3
:1022B000E1FB684613F0DEFA052DD4D1404604B0A8
:1022C000BDE8F0812146684613F028FB009818F01D
:1022D000B3FF51EC100B18F0D3FD08EB850301356B
:1022E0005860684613F0C6FA4046C8F8005004B07B
:1022F000BDE8F081F0B5074685B00C4606462C21B6
:10230000204613F0AFFC051E4FF0000221462B467D
:1023100068461BDD13F0C8FC009818F08DFF51ECE7
:10232000100B18F0ADFD46F8040B684613F0A2FA46
:102330006A1CA3682146684613F0B6FC694620462D
:1023400013F098FB684613F095FAD8E7204613F08F
:10235000D7FC3874384605B0F0BD00BF2DE9F04118
:1023600084B015460C4606461F49684613F0C2FA6B
:102370002946684613F0FEFB1C4913F003FC014696
:10238000204613F07FFC0746684613F073FA18499D
:10239000684613F0AFFA2946684613F0EBFB134981
:1023A00013F0F0FB0146204613F06CFC80466846B3
:1023B00013F060FA002F0EDBB8F1000F0BDBAA68F8
:1023C000023230463A444346214613F06DFC304613
:1023D00004B0BDE8F0810749304613F08BFA30466F
:1023E00004B0BDE8F08100BF0C96060044A70600CB
:1023F00010960600C4B2060070B584B004460D46BF
:1024000068461049164613F075FA2946684613F0D7
:10241000B1FB0D4913F0B6FB314613F0ABFB0B4992
:1024200013F0B0FB294613F0A5FB094913F0AAFBF2
:102430000146204613F072FA684613F01BFA204654
:1024400004B070BD0C96060044A706001096060066
:10245000D0A6060084B070B58AB00FAC84E80E0038
:102460001849054613F046FA13AE54F8040B18F059
:10247000BBF902460B4605A8134919F06BFD05A9E7
:1024800001A813F037FA01A9284613F03DFB01A873
:1024900013F0F0F90D49284613F03AFBB442E4D1A9
:1024A0009DF84C1005A813F057FA05A9284613F01B
:1024B0002BFB05A813F0DEF928460AB0BDE87040F2
:1024C00004B07047C4B20600049606005895060092
:1024D00084B02DE9F0418AB011AD85E80E000E46BA
:1024E0001749074613F006FA002E1DDD06F1FF38E6
:1024F000002455F8040F18F077F902460B4605A89A
:10250000104919F027FD05A901A813F0F3F901A955
:10251000384613F0F9FA01A813F0ACF9A04504F11C
:10252000010407DCA642E4D138460AB0BDE8F04118
:1025300004B070470449384613F0EAFAF2E700BFE6
:10254000C4B20600049606005895060084B02DE932
:10255000F04107AD85E80E000E460F49074613F01F
:10256000C9F9002E0DDD06F1FF38002455F8041FCF
:10257000384613F0EBFAA04504F1010406DCA6424C
:10258000F4D13846BDE8F04104B0704703493846FD
:1025900013F0BEFAF3E700BFC4B206005895060078
:1025A000F0B5B349B34E9BB0044613F0A3F9B2495A
:1025B00011A813F09FF9B14B0A2219680DA813F066
:1025C000DFF90DAA11A915A8FFF716FF15A92046D6
:1025D00013F09AFA15A813F04DF90DA813F04AF963
:1025E00011A813F047F9A64911A813F083F9A54BD8
:1025F0000A2219680DA813F0C3F90DAA11A915A88C
:10260000FFF7FAFE15A9204613F07EFA15A813F07D
:1026100031F90DA813F02EF911A813F02BF99A49EE
:1026200011A813F067F999490DA813F077F90DAACD
:1026300011A915A8FFF7E0FE15A9204613F064FACA
:1026400015A813F017F90DA813F014F911A813F039
:1026500011F98F4911A813F04DF98E490DA813F007
:102660005DF90DAA11A915A8FFF7C6FE15A9204608
:1026700013F04AFA15A813F0FDF80DA813F0FAF8B4
:1026800011A813F0F7F8844911A813F033F906F1F3
:102690000C0393E807008DE8070096E80E000DA8EC
:1026A000FFF754FF0DAA11A915A8FFF7A5FE15A95C
:1026B000204613F029FA15A813F0DCF80DA813F042
:1026C000D9F811A813F0D6F8744911A813F012F92B
:1026D000734B03F10C0207CA8DE807000DA80ECB5F
:1026E000FFF734FF0DAA11A915A8FFF785FE15A95C
:1026F000204613F009FA15A813F0BCF80DA813F042
:10270000B9F811A813F0B6F8664911A813F0F2F859
:10271000654B0A2219780DA813F032F90DAA11A9F8
:1027200015A8FFF769FE15A9204613F0EDF915A8C5
:1027300013F0A0F80DA813F09DF811A813F09AF863
:102740005A4911A813F0D6F8594B0A2219680DA856
:1027500013F016F90DAA11A915A8FFF74DFE15A93A
:10276000204613F0D1F915A813F084F80DA813F042
:1027700081F811A813F07EF84E4911A813F0BAF8A9
:102780004D4B0A2219680DA813F0FAF80DAA11A9E9
:1027900015A8FFF731FE15A9204613F0B5F915A8C5
:1027A00013F068F80DA813F065F811A813F062F89B
:1027B000424911A813F09EF8414B0A2219680DA84E
:1027C00013F0DEF80DAA11A915A8FFF715FE15A93B
:1027D000204613F099F915A813F04CF80DA813F042
:1027E00049F811A813F046F8364911A813F082F8F9
:1027F000354B0A2219780DA813F0C2F80DAA11A9B9
:1028000015A8FFF7F9FD15A9204613F07DF915A8C5
:1028100013F030F80DA813F02DF811A813F02AF8D2
:102820002A4911A813F066F8294B0A2219680DA845
:1028300013F0A6F80DAA11A915A8FFF7DDFD15A93B
:10284000204613F061F915A813F014F80DA813F041
:1028500011F811A813F00EF81E4911A813F04AF848
:102860001D4B0A2219780DA813F08AF80DAA35E03D
:10287000149606000435FF1F20960600841DFF1FD6
:1028800030960600881DFF1F44960600A0C6FF1F55
:10289000509606006CC5FF1F6496060070960600F1
:1028A000B4C6FF1F84960600F0CBFF1F9496060067
:1028B000781DFF1FA8960600441DFF1FBC9606004A
:1028C0006436FF1FCC96060048C5FF1FD49606004D
:1028D000901DFF1FEC9606002C36FF1F11A915A8AE
:1028E000FFF78AFD15A9204613F00EF915A812F07E
:1028F000C1FF0DA812F0BEFF11A812F0BBFFB64930
:1029000011A812F0F7FFB54B03F10C0207CA8DE8CE
:1029100007000DA80ECBFFF7DBFD0DAA11A915A826
:10292000FFF76AFD15A9204613F0EEF815A812F07E
:10293000A1FF0DA812F09EFF11A812F09BFFA8495D
:1029400011A812F0D7FFA74B03F10C0207CA8DE8BC
:1029500007000DA80ECBFFF7BBFD0DAA11A915A806
:10296000FFF74AFD15A9204613F0CEF815A812F07E
:1029700081FF0DA812F07EFF11A812F07BFF9A498B
:1029800011A812F0B7FF994B03F10C0207CA8DE8AA
:1029900007000DA80ECBFFF79BFD0DAA11A915A8E6
:1029A000FFF72AFD15A9204613F0AEF815A812F07E
:1029B00061FF0DA812F05EFF11A812F05BFF8C49B9
:1029C00011A812F097FF8B4B03F10C0207CA8DE898
:1029D00007000DA80ECBFFF77BFD0DAA11A915A8C6
:1029E000FFF70AFD15A9204613F08EF815A812F07E
:1029F00041FF0DA812F03EFF11A812F03BFF336813
:102A0000002B3CDD7C4F00257C4909A812F072FFA9
:102A10000A22294605A812F0B3FF05A909A813F058
:102A2000A9F8014611A812F079FF05EB850307EB21
:102A3000830303F10C0292E803008DE803000DA864
:102A40000ECBFFF707FD0DAA11A915A8FFF7D4FCBF
:102A500015A9204613F058F815A812F00BFF0DA881
:102A600012F008FF11A812F005FF05A812F002FFEE
:102A700009A812F0FFFE33680135AB42C4DC60499F
:102A800011A812F037FF5F4B03F10C0292E803002C
:102A90008DE803000DA80ECBFFF7DCFC0DAA11A9F1
:102AA00015A8FFF7A9FC15A9204613F02DF815A8C5
:102AB00012F0E0FE0DA812F0DDFE11A812F0DAFE11
:102AC000514911A812F016FF504B0A2219780DA88F
:102AD00012F056FF0DAA11A915A8FFF78DFC15A934
:102AE000204613F011F815A812F0C4FE0DA812F03C
:102AF000C1FE11A812F0BEFE45490DA812F0FAFE63
:102B0000444911A812F00AFF11AA0DA915A8FFF750
:102B100073FC15A9204612F0F7FF15A812F0AAFEC3
:102B200011A812F0A7FE0DA812F0A4FE3A490DA8B4
:102B300012F0E0FE394911A812F0F0FE11AA0DA919
:102B400015A8FFF759FC15A9204612F0DDFF15A8BE
:102B500012F090FE11A812F08DFE0DA812F08AFE60
:102B60002F490DA812F0C6FE2E4911A812F0D6FE6C
:102B700011AA0DA915A8FFF73FFC15A9204612F0D0
:102B8000C3FF15A812F076FE11A812F073FE0DA86F
:102B900012F070FE244911A812F0ACFE234B0A2259
:102BA00019680DA812F0ECFE0DAA11A915A8FFF7DF
:102BB00023FC15A9204612F0A7FF15A812F05AFE13
:102BC0000DA812F057FE11A812F054FE184911A8D2
:102BD00012F090FE2EE000BFFC9606002435FF1F89
:102BE000109706007C35FF1F2897060094C3FF1F2F
:102BF00040970600D434FF1F18BAFF1FA0980600A4
:102C0000589706007436FF1F6497060030C6FF1FF2
:102C100070970600E8C3FF1F849706007C33FF1FF0
:102C2000989706008C34FF1FA49706005CB9FF1F1D
:102C3000B0970600B34B0A2219680DA812F0A0FE47
:102C40000DAA11A915A8FFF7D7FB15A9204612F068
:102C50005BFF15A812F00EFE0DA812F00BFE11A8D6
:102C600012F008FEA84911A812F044FEA74B1868FC
:102C700017F0BAFD0B460246A54915A819F06AF9E6
:102C800015A90DA812F036FE0DAA11A915A8FFF777
:102C9000B3FB15A9204612F037FF15A812F0EAFD84
:102CA0000DA812F0E7FD11A812F0E4FD994911A852
:102CB00012F020FE984B186817F096FD0B4602465E
:102CC000934915A819F046F915A90DA812F012FE9E
:102CD0000DAA11A915A8FFF78FFB15A9204612F020
:102CE00013FF15A812F0C6FD0DA812F0C3FD11A820
:102CF00012F0C0FD894911A812F0FCFD884B18683C
:102D000017F072FD0B460246814915A819F022F909
:102D100015A90DA812F0EEFD0DAA11A915A8FFF72F
:102D20006BFB15A9204612F0EFFE15A812F0A2FDCC
:102D30000DA812F09FFD11A812F09CFD794911A871
:102D400012F0D8FD784B186817F04EFD0B4602467E
:102D50006F4915A819F0FEF815A90DA812F0CAFDC3
:102D60000DAA11A915A8FFF747FB15A9204612F0D7
:102D7000CBFE15A812F07EFD0DA812F07BFD11A868
:102D800012F078FD694911A812F0B4FD684B18687B
:102D900017F02AFD0B4602465D4915A819F0DAF82E
:102DA00015A90DA812F0A6FD0DAA11A915A8FFF7E7
:102DB00023FB15A9204612F0A7FE15A812F05AFD14
:102DC0000DA812F057FD11A812F054FD594911A891
:102DD00012F090FD584B186817F006FD0B4602469E
:102DE0004B4915A819F0B6F815A90DA812F082FDE7
:102DF0000DAA11A915A8FFF7FFFA15A9204612F090
:102E000083FE15A812F036FD0DA812F033FD11A8AF
:102E100012F030FD494911A812F06CFD484B0A220E
:102E200019780DA812F0ACFD0DAA11A915A8FFF78D
:102E3000E3FA15A9204612F067FE15A812F01AFD54
:102E40000DA812F017FD11A812F014FD3D4911A8AC
:102E500012F050FD3C4B0A2219780DA812F090FD9B
:102E60000DAA11A915A8FFF7C7FA15A9204612F057
:102E70004BFE15A812F0FEFC0DA812F0FBFC11A8E9
:102E800012F0F8FC314911A812F034FD304B022148
:102E900093ED000A0DA812F0AFFD0DAA11A915A817
:102EA000FFF7AAFA15A9204612F02EFE15A812F077
:102EB000E1FC0DA812F0DEFC11A812F0DBFC2549A4
:102EC00011A812F017FD244B022193ED000A0DA862
:102ED00012F092FD0DAA11A915A8FFF78DFA15A9F8
:102EE000204612F011FE15A812F0C4FC0DA812F035
:102EF000C1FC11A812F0BEFC184911A812F0FAFC8E
:102F00002EE000BFC0B9FF1FBC9706008434FF1F2E
:102F100004960600CC970600FCC3FF1FD49706005A
:102F20007035FF1FDC97060018C7FF1FE4970600E7
:102F300064C5FF1FF097060014C7FF1FFC9706002B
:102F40009CC6FF1F049806005C36FF1F14980600FD
:102F50005033FF1F289806008C38FF1F3C9806004E
:102F6000534B0A2219680DA812F00AFD0DAA11A9E7
:102F700015A8FFF741FA15A9204612F0C5FD15A8BE
:102F800012F078FC0DA812F075FC11A812F072FC7A
:102F9000484911A812F0AEFC474B0A2219680DA847
:102FA00012F002FD0DAA11A915A8FFF725FA15A91F
:102FB000204612F0A9FD15A812F05CFC0DA812F035
:102FC00059FC11A812F056FC3C4911A812F092FCD1
:102FD0003B4B0A2219780DA812F0D2FC0DAA11A9B8
:102FE00015A8FFF709FA15A9204612F08DFD15A8BE
:102FF00012F040FC0DA812F03DFC11A812F03AFCB2
:1030000030490DA812F076FC2F4911A812F086FC69
:1030100011AA0DA915A8FFF7EFF915A9204612F07E
:1030200073FD15A812F026FC11A812F023FC0DA8C0
:1030300012F020FC25490DA812F05CFC244911A8CF
:1030400012F06CFC11AA0DA915A8FFF7D5F915A966
:10305000204612F059FD15A812F00CFC11A812F030
:1030600009FC0DA812F006FC1A4911A812F042FC46
:10307000194B0A2219780DA812F082FC0DAA11A989
:1030800015A8FFF7B9F915A9204612F03DFD15A8BE
:1030900012F0F0FB0DA812F0EDFB11A812F0EAFB04
:1030A0000E49204612F034FD20461BB0F0BD00BF93
:1030B00014BAFF1F4098060004C5FF1F549806006D
:1030C0000035FF1F689806003033FF1F7898060010
:1030D0001C33FF1F8898060058C5FF1F94980600F0
:1030E0002DE9F047A6B0054601461AA812F016FCD5
:1030F000B149DFF82883B14FDFF824931EA812F0FE
:10310000F9FB1EAA1AA922A8FFF728F922A812F093
:10311000F7FDAB4B186022A812F0ACFB1EA812F012
:10312000A9FB1AA812F0A6FB29461AA812F0F6FB72
:10313000A4491EA812F0DEFB1EAA1AA922A8FFF7B6
:103140000DF922A812F0DCFD9F4B186022A812F0A6
:1031500091FB1EA812F08EFB1AA812F08BFB2946D9
:103160001AA812F0DBFB99491EA812F0C3FB1EAA95
:103170001AA922A8FFF7F2F822A812F0C1FD944B79
:10318000186022A812F076FB1EA812F073FB1AA892
:1031900012F070FB29461AA812F0C0FB8D491EA838
:1031A00012F0A8FB1EAA1AA922A8FFF7D7F822A995
:1031B000894812F05FFC22A812F05CFB1EA812F0F6
:1031C00059FB1AA812F056FB29461AA812F0A6FBC2
:1031D00082491EA812F08EFB1EAA1AA922A8FFF788
:1031E000BDF822A97E4812F045FC22A812F042FB4D
:1031F0001EA812F03FFB1AA812F03CFB29461AA8A1
:1032000012F08CFB77491EA812F074FB0CAE1EAABC
:103210001AA922A8FFF7A2F822A93046FEF7DCFF80
:103220000FCE44460FC496E8030084E8030022A8AA
:1032300012F020FB1EA812F01DFB1AA812F01AFBB8
:1032400029461AA812F06AFB67491EA812F052FB21
:103250001EAA1AA922A8FFF781F80CAC22A90CA873
:10326000FEF7BAFF0FCC614C0FC496E8030084E868
:10327000030022A812F0FEFA1EA812F0FBFA1AA808
:1032800012F0F8FA29461AA812F048FB58491EA86D
:1032900012F030FB1EAA1AA922A8FFF75FF822A895
:1032A000FEF77AFF387022A812F0E4FA1EA812F096
:1032B000E1FA1AA812F0DEFA29461AA812F02EFB3B
:1032C0004C491EA812F016FB1EAA1AA922A8FFF745
:1032D00045F822A812F014FD474B186022A812F0FE
:1032E000C9FA1EA812F0C6FA1AA812F0C3FA2946A3
:1032F0001AA812F013FB41491EA812F0FBFA1EAAED
:103300001AA922A8FFF72AF822A812F0F9FC3C4BD0
:10331000186022A812F0AEFA1EA812F0ABFA1AA892
:1033200012F0A8FA29461AA812F0F8FA35491EA890
:1033300012F0E0FA1EAA1AA922A8FFF70FF822A895
:1033400012F0DEFCC9F8000022A812F093FA1EA8C1
:1033500012F090FA1AA812F08DFA3B781BB92A4B9A
:10336000D9F800201A6029461AA812F0D7FA27497E
:10337000274C1EA812F0BEFA1EAA1AA922A8FEF710
:10338000EDFF22A8FEF708FF224B187022A812F0CA
:1033900071FA1EA812F06EFA1AA812F06BFA2946FA
:1033A0001AA812F0BBFA1C491EA812F0A3FA1EAA12
:1033B0001AA922A836E000BF20960600F0CBFF1F16
:1033C000841DFF1F30960600881DFF1FD49606003F
:1033D000901DFF1F44960600A0C6FF1F50960600D2
:1033E0006CC5FF1F6496060070960600B4C6FF1FEA
:1033F0008496060094960600781DFF1FA896060086
:10340000441DFF1FBC960600A038FF1FCC96060087
:103410002435FF1F48C5FF1FEC9606000435FF1F2B
:103420006436FF1FFEF79AFF22A8FEF7B5FEB64BE3
:10343000187022A812F01EFA1EA812F01BFA1AA881
:1034400012F018FA29461AA812F068FAAF491EA815
:1034500012F050FA06AE1EAA1AA922A8FEF77EFFA5
:10346000304622A9FEF7F8FE0FCE0FC496E80300FF
:1034700084E8030022A812F0FDF91EA812F0FAF960
:103480001AA812F0F7F929461AA812F047FAA0492B
:103490001EA812F02FFA1EAA1AA922A8FEF75EFF94
:1034A00006AC22A906A8FEF7D7FE0FCC994C0FC494
:1034B00096E8030084E8030022A812F0DBF91EA8B6
:1034C00012F0D8F91AA812F0D5F929461AA812F064
:1034D00025FA91491EA812F00DFA1EAA1AA922A8CF
:1034E000FEF73CFF06AC22A906A8FEF7B5FE0FCCFE
:1034F0008A4C0FC496E8030084E8030022A812F067
:10350000B9F91EA812F0B6F91AA812F0B3F92946B3
:103510001AA812F003FA82491EA812F0EBF91EAAAB
:103520001AA922A8FEF71AFF06AC22A906A8FEF7E0
:1035300093FE0FCC7B4C0FC496E8030084E8030095
:1035400022A812F097F91EA812F094F91AA812F006
:1035500091F9D8F80030002B40F33683DFF8009261
:1035600000266F4629461AA812F0D8F96E4916A807
:1035700012F0C0F90A22314612A812F001FA12A97B
:1035800016A812F0F7FA01461EA812F0C7F91EAAF3
:103590001AA922A8FEF7E2FE22A93846FEF7AAFEE3
:1035A000BE46BEE80F0006EB860409EB84040FC498
:1035B00022A8DEF80030236012F05CF91EA812F099
:1035C00059F912A812F056F916A812F053F91AA8D0
:1035D00012F050F9D8F800300136B342C2DC294667
:1035E0001AA812F09BF95149514CDFF87891DFF895
:1035F00078A1DFF878811EA812F07CF91EAA1AA91A
:1036000022A8FEF7ABFE22A93846FEF773FE0FCFC5
:103610003E68484F0FC422A8266012F02BF91EA85E
:1036200012F028F91AA812F025F929461AA812F062
:1036300075F94149414E424C1EA812F05BF91EAA91
:103640001AA922A8FEF78AFE22A8FEF7A5FD3D4B87
:10365000187022A812F00EF91EA812F00BF91AA881
:1036600012F008F929461AA812F058F936491EA88E
:1036700012F040F91EAA1AA922A8FEF76FFE22A98D
:10368000324812F0F7F922A812F0F4F81EA812F04E
:10369000F1F81AA812F0EEF829461AA812F03EF92D
:1036A0002B491EA812F026F91EAA1AA922A8FEF775
:1036B00055FE22A9274812F0DDF922A812F0DAF807
:1036C0001EA812F0D7F81AA812F0D4F829461AA8A2
:1036D00012F024F920491EA812F00CF91EAA1AA90A
:1036E00022A8FEF73BFE22A91C4812F0C3F922A82B
:1036F00012F0C0F81EA812F0BDF81AA812F0BAF81D
:1037000029461AA834E000BF2C36FF1FFC9606009D
:10371000109706007C35FF1F2897060094C3FF1FF3
:1037200040970600D434FF1FA09806005897060063
:103730007436FF1F18C7FF1F6497060064C5FF1F7C
:1037400014C7FF1F30C6FF1F70970600E8C3FF1F96
:10375000849706007C33FF1F989706008C34FF1F68
:1037600018BAFF1F8434FF1FFCC3FF1F7035FF1FF3
:1037700012F0D4F8B7491EA812F0BCF81EAA1AA974
:1037800022A8FEF7EBFD22A812F0BAFAB24B18609D
:1037900022A812F06FF81EA812F06CF81AA812F006
:1037A00069F829461AA812F0B9F8AC491EA812F017
:1037B000A1F81EAA1AA922A8FEF7D0FD22A812F08D
:1037C0009FFAA74B186022A812F054F81EA812F016
:1037D00051F81AA812F04EF829461AA812F09EF8CD
:1037E000A0491EA812F086F81EAA1AA922A8FEF760
:1037F000B5FD229817F020FD51EC100B17F040FB9F
:10380000C9F8000022A812F035F81EA812F032F80C
:103810001AA812F02FF829461AA812F07FF8924938
:103820001EA812F067F81EAA1AA922A8FEF796FD94
:10383000229817F001FD51EC100B17F021FBCAF88C
:10384000000022A812F016F81EA812F013F81AA809
:1038500012F010F829461AA812F060F883491EA841
:1038600012F048F81EAA1AA922A8FEF777FD22989E
:1038700017F0E2FC51EC100B17F002FBC8F8000047
:1038800022A811F0F7FF1EA811F0F4FF1AA811F0FA
:10389000F1FF29461AA812F041F875491EA812F046
:1038A00029F81EAA1AA922A8FEF758FD229817F097
:1038B000C3FC51EC100B17F0E3FA386022A811F0AA
:1038C000D9FF1EA811F0D6FF1AA811F0D3FF294680
:1038D0001AA812F023F867491EA812F00BF81EAAC6
:1038E0001AA922A8FEF73AFD229817F0A5FC51EC80
:1038F000100B17F0C5FA306022A811F0BBFF1EA80C
:1039000011F0B8FF1AA811F0B5FF29461AA812F055
:1039100005F859491EA811F0EDFF1EAA1AA922A800
:10392000FEF71CFD229817F087FC51EC100B17F0E6
:10393000A7FA206022A811F09DFF1EA811F09AFF9F
:103940001AA811F097FF29461AA811F0E7FF4B4972
:103950004B4C1EA811F0CEFF1EAA1AA922A8FEF7F2
:10396000FDFC22A8FEF718FC464B187022A811F0A7
:1039700081FF1EA811F07EFF1AA811F07BFF2946D7
:103980001AA811F0CBFF40491EA811F0B3FF1EAAE0
:103990001AA922A8FEF7E2FC22A8FEF7FDFB3B4B8A
:1039A000187022A811F066FF1EA811F063FF1AA874
:1039B00011F060FF29461AA811F0B0FF34491EA883
:1039C00011F098FF1EAA1AA922A8FEF7C7FC22A987
:1039D000304812F04FF822A811F04CFF1EA811F049
:1039E00049FF1AA811F046FF29461AA811F096FFC0
:1039F00029491EA811F07EFF1EAA1AA922A8FEF7C7
:103A0000ADFC22A9254812F035F822A811F032FFAA
:103A10001EA811F02FFF1AA811F02CFF29461AA892
:103A200011F07CFF1E491EA811F064FF1EAA1AA9FE
:103A300022A8FEF793FC22A812F068F9194B22A8DD
:103A400083ED000A11F016FF1EA811F013FF1AA84B
:103A50002AE000BFA49706005CB9FF1FB0970600DC
:103A6000C0B9FF1FBC970600CC970600D49706008C
:103A7000DC970600E4970600F0970600FC97060026
:103A800058C5FF1F9CC6FF1F049806005C36FF1F29
:103A9000689806003033FF1F789806001C33FF1F1C
:103AA000149806005033FF1F11F0E4FE29461AA8AF
:103AB00011F034FF45491EA811F01CFF1EAA1AA9D7
:103AC00022A8FEF74BFC22A812F020F9404B22A8B6
:103AD00083ED000A11F0CEFE1EA811F0CBFE1AA84D
:103AE00011F0C8FE29461AA811F018FF39491EA87E
:103AF00011F000FF1EAA1AA922A8FEF72FFC22A887
:103B000012F0FEF8344B186022A811F0B3FE1EA884
:103B100011F0B0FE1AA811F0ADFE29461AA811F056
:103B2000FDFE2E491EA811F0E5FE1EAA1AA922A824
:103B3000FEF714FC22A812F0E3F8294B186022A823
:103B400011F098FE1EA811F095FE1AA811F092FE31
:103B500029461AA811F0E2FE22491EA811F0CAFE59
:103B60001EAA1AA922A8FEF7F9FB22A8FEF714FB49
:103B70001D4B187022A811F07DFE1EA811F07AFED0
:103B80001AA811F077FE29461AA811F0C7FE1749A6
:103B90001EA811F0AFFE1EAA1AA922A8FEF7DEFB8E
:103BA00022A8FEF7F9FA207022A811F063FE1EA8E1
:103BB00011F060FE1AA811F05DFE0D4B22781A700C
:103BC000012026B0BDE8F0876F4608E5289806007A
:103BD0008C38FF1F3C98060014BAFF1F409806005F
:103BE00004C5FF1F549806000035FF1F8898060083
:103BF00064B9FF1FF0B58DB0064604A80F4611F05A
:103C00008DFE214908A811F075FE08AA04A968468E
:103C1000FEF7A4FB08A811F02DFE04A811F02AFE5F
:103C2000029C64B100252C462946684611F0F2FF3B
:103C3000029B0278013514449D4224B2F4D3134907
:103C400008A811F057FE10220DEB0200214611F0DA
:103C500097FE04A908A811F08DFF0D4911F092FFFD
:103C60000146384611F050FF04A811F003FE08A8E1
:103C700011F000FE3946304611F0EAFD684611F0B9
:103C8000F9FD30460DB0F0BDB0980600B8980600BA
:103C9000C49806004B4BDFED4C7A93ED007AB5EEFD
:103CA000C07AF1EE10FACCBF012300234CBF0122F1
:103CB0000022A3EB020306EE903A72DD67EE277A4C
:103CC000B0EE476A27EE877ADFED407AA6EE277AD4
:103CD000F7EE007AB4EEE77AF1EE10FA68DDB0EEB6
:103CE000677A3B4BDFED3B5AD3ED007A9FED3A6AA2
:103CF000F8EEE66A67EEA57A66EE876AB7EE007AB6
:103D0000E6EE867ADFED356AC3ED007A37EEC77AE4
:103D1000B5EEC07AF1EE10FAD8BFB1EE477AB4EE44
:103D2000E67AF1EE10FA08DCDFED2D6AB4EEE67A01
:103D3000F1EE10FA21D52B4B00E02B4B2B4AB7EEBE
:103D4000007A77EE877A9FED257A9361F5EEC07A57
:103D5000F1EE10FAD8BFF1EE677AF4EEC77AF1EE21
:103D600010FA1ADC9FED1E7AF4EEC77AF1EE10FA23
:103D70000AD51F4A1B4B93617047F0EE476AFEEE6F
:103D8000C86A16EE903AD9E7B0EE677ABEEEC87A06
:103D9000174A17EE103A93617047154A124B936118
:103DA0007047B1EE476A26EE277A27EE067A8BE750
:103DB000B5EE407ADFED0F7AF1EE10FA48BFB0EEC3
:103DC000677A8EE7F034FF1FDDA4B9C23333A04118
:103DD000341DFF1F6666663FCDCCCC3D00FEFF461E
:103DE00000FEFFC6000001800000FF7F4835FF1F76
:103DF000C8BAFF1F000000002DE9F04FD14ED24F8E
:103E000096ED000AD7ED007AD048D14DD14CDFF8BD
:103E1000A8B32DED0A8B30EE670A8DB00DF070FA65
:103E2000CA489FEDCDCA9FEDCDAA9FEDCDBA0DF04A
:103E3000A9FACC4B9FEDCC6A83ED000A33683B6056
:103E4000CA4BD6ED007AD3ED006A9FEDC97A96EDA4
:103E5000000AC84867EEA67AF7EE00AAC7EE866A9F
:103E6000A6EE870A20EE0C0A0DF04AFAC1480DF0C2
:103E700089FAC14BC14AD3ED007A82ED000A67EEA0
:103E80008A7A2E6817EE900A16F0AEFC41EC100B01
:103E900041EC190B12F0A0FBB94BD4F80080D3ED24
:103EA000007A67EE8A7A5AEC109B17EE900A16F0A9
:103EB0009BFC41EC100B41EC180B12F08DFB8DEDCF
:103EC000000BB0EE490AF0EE690A12F095FA8DED9A
:103ED000020BB0EE480AF0EE680A12F08DFA86F096
:103EE00000408DED040B16F07FFC4A46534616F059
:103EF000CFFC064640460F4616F076FCDDE900236F
:103F000016F0C6FCDDE9022316F0C2FC02460B46A1
:103F10003046394616F00AFBDBF80080064640467C
:103F20000F4616F061FCDDE9042316F0B1FCDDE973
:103F3000022316F0ADFC02460B463046394616F019
:103F4000F5FA16F09DFFDDE9046708EE900A0022FD
:103F500000233046394616F09BFC0022CDE90801CB
:103F6000002348465146CDE9069A16F091FCDDE95A
:103F7000002316F08DFC32463B46CDE90467D5F8A8
:103F80000080D4F80090DBF800A016F0CFFA0646C7
:103F900048460F4616F028FC02460B463046394686
:103FA00016F076FC064640460F4616F01DFCDDE98D
:103FB000022316F06DFC0022002316F069FC024675
:103FC0000B463046394616F0B1FADDE908230646BD
:103FD0000F46DDE9060116F05BFCDDE9002316F073
:103FE000A3FA80465046894616F0FEFB02460B4671
:103FF0004046494616F04CFC02460B4630463946D0
:1040000016F094FA16F03CFF2F68D4F800A0DBED10
:10401000007A5C4CCDED0B7ADDE9002309EE900AC5
:10402000DDE9060116F034FCDDE9082316F07CFA20
:1040300080465046894616F0D7FB02460B4640465E
:10404000494616F025FC80463846894616F0CCFBDA
:10405000DDE9022316F01CFC02460B4640464946A9
:1040600016F064FADDE9042382468B46DDE9060199
:1040700016F00EFC0022804689460023DDE900018F
:1040800016F006FC02460B464046494616F04EFA2C
:1040900080460B983C4D3D4E3D4F894616F0A4FBA3
:1040A00002460B464046494616F0F2FB02460B46D6
:1040B0005046594616F03AFA16F0E2FE354BDFF854
:1040C000FCB093ED000ADFF8F880DFF8F8A0DFF825
:1040D000F89009EE100A30480DF012F92E480DF054
:1040E00051F92E4A2E4B82ED000A93ED000A2D481D
:1040F0000DF006F92B480DF045F92B4B84ED000A25
:1041000093ED000A29480DF0FBF828480DF03AF924
:10411000274A144BD2ED005A85ED000ACAEEA54A93
:10412000244893ED006A154B96ED007A94ED000A51
:10413000D3ED006A194B95ED005AD3ED007A96ED58
:10414000008A43E0C4BAFF1F9C33FF1F88C4FF1FCF
:1041500044B9FF1FF4C5FF1F9AB2033F39FA8E3CE2
:104160007FD6D03D7CBAFF1F00007A44A0B9FF1F64
:104170000AD7A33CBC33FF1F64C5FF1FC4B9FF1F90
:1041800014C7FF1F1C35FF1F60B9FF1F58C7FF1F53
:104190005433FF1F34BBFF1FD033FF1FE8C4FF1F82
:1041A00038BBFF1F44C7FF1F3CBBFF1F1CC6FF1FC0
:1041B000501DFF1FE433FF1FF8C5FF1F1839FF1FF5
:1041C0008C33FF1FF034FF1FAC34FF1FA84B26EECB
:1041D0004C6A27EE000AC6EE245A27EE888A20EEA3
:1041E0000A0A26EEC57A28EE0A8A20EE0B0A27EE86
:1041F0000A7A28EE0B8AA5EE8B0AD3ED00BAD4ED2D
:1042000000CAA7EE0B8A0DF07BF8B0EE490A994878
:104210000DF076F897480DF0B5F897488BED000A49
:104220000DF0B0F89BED007A944830EE077AB0EECE
:10423000480A88ED007A0DF063F8B0EE690A9048FC
:104240000DF05EF88E480DF09DF88C488AED000A5E
:104250000DF098F86BEEAC7A9AED007A894B8A48AB
:1042600027EE8AAA70EE077A2AEE0B0AC3ED007ACF
:104270000DF046F8B0EE680A84480DF041F8834826
:104280000DF080F8804889ED000A0DF07BF8D9ED3B
:10429000007A7F4A7F4B30EE270A384682ED000ACB
:1042A00093ED000A774BD4ED000A95ED001AD8ED96
:1042B000001A93ED002AD2ED002A774CFCF7EEF9B4
:1042C000764A97F824101268013207EE902AF8EE29
:1042D000E77AB0EE007A87EE278A00296ED0D4ED17
:1042E000007AD7ED076A9FED6E7A7AEEC8AA27EEBC
:1042F000667A67EEAA7AE7EE087AC4ED007AD7ED1F
:10430000027A97ED035AD7ED045AD7ED014A654A70
:10431000D7ED063A92ED006A9FED613A624D634F28
:104320002B6897ED004ADFF8B08127EEE77A25EE9B
:10433000250A65EE646AA4EEA70A01332B60A4EE99
:10434000A47A98F80030E7EEA56AA5EE457A70EEFB
:10435000007A76EEA66A67EEA97AA5EEA57AE9EE6E
:10436000267A66EE2AAAE8EE877A23EE837AF7EEBB
:10437000006AE8EE07AA77EEE67AC2ED00AA34EE0C
:10438000277A87ED007AA3BB394BD3ED007AF5EE9F
:10439000407AF1EE10FA4FF0000248D1444B1A6017
:1043A000D4ED007A93ED007A424B77EEC77AC3EDF5
:1043B000007A0DB0BDEC0A8BBDE8F08F3846FCF7F3
:1043C000A1FAD4ED007AD7ED076A9FED357A97F818
:1043D00024207AEEC8AA27EE667A6AEEA77AE7EE7C
:1043E000087AC4ED007A002A89D13846FCF78AFAA7
:1043F00085E7314B314AC3ED007A92ED000A9FED1B
:10440000307AD3ED000ADFED2F7A2F4A2F499FED46
:10441000301A304820EE070A60EEA70AFCF744F88D
:10442000002300223A6088F800302B60ACE796ED5C
:10443000007AD3ED007AC7EE276A16EE900A16F0DE
:10444000D3F941EC100B12F027F907A3D3E90023AD
:1044500051EC100B16F01CFA16F012FD144B1860FC
:104460009EE700BFAFF30080000000C0DCA54C4019
:10447000C4B9FF1F50CCFF1FE433FF1F0CBBFF1F4D
:10448000D0B9FF1F1C39FF1F68C3FF1FFCC5FF1FEA
:1044900088B9FF1FE8C4FF1F80BAFF1FB01DFF1FB0
:1044A000E12E65427835FF1F5834FF1F6C35FF1F22
:1044B000E8BAFF1FC0BAFF1FEC34FF1FA0B9FF1FEF
:1044C000BF0E9C3E7FD6D03D58C7FF1F9C34FF1FB8
:1044D0000AD7A33CACC3FF1F3CC6FF1FFFFFFFFF73
:1044E000854B1B7803B970472DE9F04196B00EF06B
:1044F000ADF800283BDD0EF0A9F8804B804E1A681D
:10450000804C814D9042B8BF18681860002106A801
:1045100011F0F0F900210AA811F0ECF900210EA821
:1045200011F0E8F9002112A811F0E4F90EF09EF85C
:1045300033680193754B019A1A60A368C1B2312B9D
:10454000297017D82BB10A291DD06E4811F0EEFA48
:1045500001E02429F9D012A811F08CF90EA811F06D
:1045600089F90AA811F086F906A811F083F916B0A6
:10457000BDE8F0816649204611F084FAA3682978E5
:10458000002BE0D1E5E75F4D0021284611F042FB0A
:104590000378242B04D05E495A4811F073FADAE705
:1045A000AB68142BF7D900273D46DFF85881294620
:1045B000404611F02FFBA26801780135131FAB4272
:1045C0000F44F2D8531E02A8033A414611F06CFB87
:1045D000002102A811F01EFB1022002119F0EEFAB2
:1045E000FFB2054602A811F045F9AF42D3D1D8F881
:1045F0000830043B152B1DD90027152508E001378D
:10460000032F05F1010515DCA368043BAB4211D96A
:1046100029463C4811F0FEFA03783A482C2B2946EB
:10462000EDD011F0F7FA06AB017803EB071011F0AB
:104630007DFAE5E706A811F063FB07EE900A354B1B
:10464000F8EEE77A0AA8C3ED007A11F059FB07EEFD
:10465000900A314B9FED316ADFED316AF8EEE77A6F
:104660000022C3ED007A93ED007A27EE067AC7EEBA
:10467000267A77EEA77AF5EEC07AF1EE10FA34DDFD
:10468000D3ED007A67EE867A87EEA67A77EE077A20
:1046900017EE900A16F0A8F841EC100B12F008FB88
:1046A00013A3D3E9002351EC100B16F0F1F816F028
:1046B000E7FB1C4B18600EA811F022FB07EE900AD6
:1046C000194BF8EEE77A12A8C3ED007A11F018FB47
:1046D00007EE900A154A164BF8EEE77AC2ED007A1B
:1046E00032680292029A1A6055E70E4B1A60E2E7AE
:1046F00000000000F819FF3F9CC6FF1FA434FF1FF5
:10470000C4CEFF1F30CCFF1F7CC3FF1F40CCFF1F58
:10471000C4B20600FC34FF1F3C39FF1F0000C84232
:10472000CDCC9C3FB434FF1FE4C4FF1FE0C4FF1F87
:104730001CC7FF1F70B59EB000240546354968466A
:1047400011F0D8F84FF47A762A462346324D334991
:104750008DF814408DF81C408DF820408DF82140D4
:104760008DF822408DF848408DF850408DF8544027
:104770008DF855408DF8564015A815AC0495119547
:104780000696139608F04AFC0FCC08AD0FC50FCC67
:104790000FC59DF8203024689DF8480013999DF8B6
:1047A00050202C608DF8140006918DF81C2053B316
:1047B0001B074FF0010211A908A813D408A808F09C
:1047C000BDFB694611A811F0A9F811A8FEF788FCF5
:1047D000044611A811F04EF8684611F04BF8204637
:1047E0001EB070BD0F9C0D9B9C42E7D008F024FCCE
:1047F00001280CBF9DF84410FF21684611F096F97E
:104800009DF82030D4E768461C4611F033F8204666
:104810001EB070BDC4B20600048D06005CC7FF1F49
:10482000F0B59BB0002402464FF47A76244D8DF803
:10483000044040F201638DF80C408DF810408DF873
:1048400011408DF812408DF838408DF840408DF8B9
:1048500044408DF845408DF846400F4611A819494F
:10486000029611AC0F9600950D9508F0D7FB0FCC72
:1048700004AD0FC50FCC0FC59DF8106020689DF8E2
:1048800038100F9A9DF8403028608DF8041002927D
:104890008DF80C304EB91A210B480FF0C7FF0B48AA
:1048A00010F08AFE30461BB0F0BD3946684610F065
:1048B0005DFE04A808F042FB01201BB0F0BD00BF64
:1048C000048D06005CC7FF1FD0980600A028FF1FBC
:1048D00010B588B068460A4911F00CF8694604A87A
:1048E00011F01CF804A8FEF7FBFB044604A810F026
:1048F000C1FF684610F0BEFF204608B010BD00BFE3
:10490000348D060010B5204B1B788AB06BB93A2164
:104910001E480FF08BFF1E4810F04EFEFFF7D8FF29
:104920001C4B187038BB0AB010BD002423461A4A2D
:104930001A498DF8044001A88DF805408DF806400D
:1049400008F06CFB0028E2D0212115480FF06EFF23
:104950000F4810F031FE1048FFF7ECFE0D4B1870B9
:104960000028E0D015210F480FF060FF084810F034
:1049700023FE0AB010BD1D210B480FF057FF04485D
:1049800010F01AFE0AB010BD6CCCFF1F249906006F
:10499000A028FF1F88BAFF1F981DFF1F5CC7FF1FBD
:1049A00060990600EC9806000499060084B02DE991
:1049B000F0432DED028B83B00CAD9DF84040012CEF
:1049C00085E80F000DD0022C5DD0032C3CD00025D3
:1049D00000EE105A03B0BDEC028BBDE8F04304B00A
:1049E000704710EE100A15F0FFFE41EC180B002581
:1049F0000CAE0324204615F0E5FEB0EE480AF0EEBA
:104A0000680A41EC110B56F8047B11F0B5FF53EC2A
:104A1000102B3846CDE9002315F0E6FEDDE9002332
:104A200015F036FF80462846894615F0DDFE0B4618
:104A300002464946404615F079FD16F021FA013C40
:104A4000631C0546D6D1C3E70E988DED000A15F01C
:104A5000CBFE9DED000ADDED0F7A60EE277A04466D
:104A600017EE900A0D4615F0BFFE41EC100B11F049
:104A700077FE294653EC102B204615F009FF16F05F
:104A8000FFF90546A4E70E988DED000A15F0ACFE7F
:104A90009DED000A044610EE100A0D4615F0A4FE26
:104AA00041EC100B11F0E0FE204653EC102B294690
:104AB00015F0EEFE04460F980D4615F095FE0246E1
:104AC0000B462046294615F031FD16F0D9F905466A
:104AD0007EE700BFB5EEC00AF1EE10FA55DD00B575
:104AE0002C4B2DED028B1B6883B080EE807A002B5F
:104AF0003CD007EE903AF8EEE77AF7EE006A86EEE1
:104B0000A78A254B254A1B6803EB830302EB83032B
:104B10001A6900920FCBB0EE470AFFF747FF204B10
:104B20009FED207AD3ED006AF7EE007A77EEC87A2F
:104B300067EEA67AE8EE007AC3ED007AD3ED007A4C
:104B4000F4EEC77AF1EE10FA13DD83ED007AD3EDBF
:104B5000007A134BF4EE677AF1EE10FA64BF124A52
:104B60001A6003B0BDEC028B5DF804FBB7EE008A5F
:104B7000C7E793ED007AFBEE047AB4EEE77AF1EE44
:104B800010FA48BFC3ED007AE1E7054B064A1A6008
:104B9000704700BF841DFF1F9833FF1F18BAFF1F07
:104BA000F0C5FF1F000020420000A0C170B55249AF
:104BB00052488EB011F018F880B1514B196880221C
:104BC0001A7121B14F4B50480B441B111A544F4AD4
:104BD0004F494B4810F036FC0EB070BD4D49474868
:104BE00011F002F800286DD14B49444810F0FCFF49
:104BF000044600286DD14949404810F0F5FF0028CF
:104C0000EAD0474B47481C7010F066FC464B4748BB
:104C1000196817F09FF92346444A45498DF8044026
:104C200001A88DF805408DF8064008F0F7F9002836
:104C300055D01E213F480FF0F9FD3C4817F000FC0D
:104C400001463A480FF0F2FD3B4810F0B5FC002455
:104C500023464FF47A76394D344A35498DF8084069
:104C60008DF810408DF814408DF815408DF81640E1
:104C700005A805AC0396019508F0D0F90FCC304E8D
:104C80009DF80850357106F110050FC50FCC0FC502
:104C9000337C206803999DF810202860B16032733E
:104CA0001BB3284B1968F0221A7121B1154B164815
:104CB0000B441B111A54244B244A1A601E4810F04E
:104CC0007BFC89E7114A2249224810F0BBFB0EB059
:104CD00070BD214A2149224810F0B4FB7CE7134AF9
:104CE0002049154810F080FCB1E7104A1E491248CF
:104CF00010F07AFCE2E700BF84990600A0C6FF1F0F
:104D000044CCFF1F008FFCBF30E400E07F4F120057
:104D1000598300008C99060094990600A09906001A
:104D200064B9FF1F2CBBFF1F6CC5FF1F68C4FF1FAA
:104D30005CC7FF1FB0990600A028FF1F048D060066
:104D400064C6FF1F4CC5FF1F501DFF1F00004842D7
:104D50003171000078C4FF1FFF1AB7006D720000A8
:104D60003CC7FF1FD0990600FC9906002DE9F047CB
:104D70002DED028BD149D248A8B010F035FF0028A4
:104D800040F09781CF4DD04E2B681293129B326822
:104D90009B1A642B40F28D81CC4FDFF8A493D7EDA2
:104DA000005A97ED006AD9ED007A99ED007AC84B68
:104DB00067EE877AD3ED006A93ED007AE5EE867AA6
:104DC0000446E6EE877AF5EEC07AF1EE10FA40F38B
:104DD000D28117EE900A15F007FD41EC100B11F08F
:104DE00067FF51EC100B16F04BF807EE100AF2EECD
:104DF000047A67EE277ADFF84CA317EE900A15F0D5
:104E0000F3FC41EC100B11F067FAB24B002251ECAD
:104E1000100B15F067FE16F033F8D7ED007AAE4BA5
:104E20009AED007AF5EEC07AD3ED007AF8EEE77AE3
:104E300008EE100AF1EE10FAF4EEC77A48BFB1EEB0
:104E4000488AF1EE10FA00F2CA80A44BA44AD3EDCE
:104E5000007A92ED007AF4EEC77AF1EE10FA40F1A2
:104E60008F81DFEDA07AD3ED006A9FED9F6A66EE39
:104E7000A76AC6EE877A77EE867AFDEEE77A17EEB6
:104E8000908AB8F1630F99499948A8BF4FF0630819
:104E900010F0AAFE28EAE8780746002840F0A9802A
:104EA0009449934810F0A0FE002800F0E880924B4F
:104EB000924AD3ED002A924B92ED002A91499AED45
:104EC000007A864AD3ED001A8F4B91ED004AD9ED56
:104ED000000AD2ED003A93ED000A814B8B4A93ED24
:104EE000005A8B4BD2ED004AD3ED006A89498A4AB9
:104EF000D1ED005A92ED006A884B894A9FED893ABC
:104F000012681B680A92F2EE047A80EE271A119357
:104F10008549109714A80F970897CDF8148066EE6E
:104F2000A76A22EE672AFDEEE66A63EEA73A24EE50
:104F3000274A28EE278A27EE277A64EEA74A25EE2D
:104F4000275A65EEA75A26EE276ACDED0B6A62EE68
:104F5000A77AFDEEE16A20EEC33A16EE902AFDEE46
:104F6000E77AFDEEC26ABDEEC11AFDEEE33ABDEE90
:104F7000C44AFDEEE44ABDEEC55AFDEEE55ABDEE6B
:104F8000C66ABDEEC33ABCEEC77ABDEEC88A16EE5D
:104F9000903A019217EE902A8DED071ACDED063A60
:104FA0008DED024ACDED094A8DED0E5ACDED0D5A2B
:104FB0008DED0C6A8DED033A8DED048A8DED007A4E
:104FC00016F0C8FF0DF14F030DF19B0213F8010F0E
:104FD00038449A42C7B2F9D1544B1F704FE043494D
:104FE000434810F001FE4FF00008074600283FF448
:104FF00057AF414B414A93ED005AD2ED006A404B06
:105000009AED007ADFED474AD3ED005AD9ED007AE8
:10501000CDF81080B2EE046A66EE866A28EE068A43
:1050200027EE067A67EEE47A25EE066AFDEEE66A7A
:10503000FDEEE55A16EE903ABCEEC77AFDEEE77A41
:10504000FDEEC66ABDEEC88A5B4216EE902A8DED73
:10505000038ACDED015A8DED007ACDED027A344907
:1050600014A816F077FF0DF14F030DF1860213F827
:10507000010F20449A42C4B2F9D12C4B1C702D4927
:105080000F4810F0B1FD00285ED014A817F0D8F931
:10509000014614A80EF068FB244B27491A782748CC
:1050A00010F0A2FA254810F087FA2B681393139B8F
:1050B000336028B0BDEC028BBDE8F087289A06006B
:1050C0001C33FF1FC4CEFF1F9C35FF1FAC34FF1FD6
:1050D0001839FF1F00002440901DFF1FF0C5FF1F5F
:1050E00098C6FF1F0000484200000000309A0600EA
:1050F0003033FF1F7C9A060080BAFF1F7835FF1FF0
:10510000A0B9FF1F60B9FF1F58C7FF1FE8BAFF1FF4
:1051100060C5FF1F18C6FF1F4435FF1FCC34FF1F9B
:105120008838FF1F0000C842849A0600A033FF1F82
:10513000349A0600749A0600E89A06007828FF1F41
:10514000F034FF1FC4BAFF1F5A495B4810F04CFDF2
:1051500000283BD014A817F073F9014614A80DF0ED
:1051600029FD564B56491A78564810F03DFA5548D5
:1051700010F022FA99E7F1EE677A17EE900A2AE624
:10518000D3ED007A504AB4EEE77AF1EE10FA35D852
:10519000D3ED007AD2ED006AF4EEE67AF1EE10FA81
:1051A0002ED893ED006ADFED495A36EE476AF1EEEC
:1051B000047A36EEC77A66EE276AC6EE877A77EE0D
:1051C000A57AFDEEE77A17EE908A5AE640493A480A
:1051D00010F00AFD00283FF468AF14A817F030F96A
:1051E000014614A80DF0B0F9344B35491A78394806
:1051F00010F0FAF9374810F0DFF956E7D2ED006AFF
:10520000D3ED007A344AF4EEE67AF1EE10FA14DDCA
:105210003249D2ED007A91ED007AF4EEC77AF1EEE0
:1052200010FA0DD892ED006ADFED2D5A36EE666A5F
:10523000F2EE067A37EE667ABDE7284A92ED007AFA
:10524000D3ED007A244AF4EEC77AF1EE10FA12DDBB
:105250002449D2ED007AD1ED006AF4EEE67AF1EE5F
:1052600010FA0BD892ED006ADFED1F5A36EE476A4E
:10527000F3EE087A9DE71B4AD2ED006ADFED1B5A78
:105280009FED1B5A93ED007A66EEA55A37EE667ACB
:1052900085EE856AF2EE047A76EE666A27EE277A64
:1052A000C7EE267A77EE857AFDEEE77A17EE908ADA
:1052B000E7E500BFF09A06001C33FF1FA033FF1F75
:1052C000E89A06005028FF1F18C6FF1F000048423A
:1052D000F89A06003C28FF1FF0C5FF1F4435FF1F4A
:1052E00000005C4260C5FF1F000084420000C8420D
:1052F0000000B4422DE9F041174D10200CF0FEF9EA
:105300002F68012F24DDD5F804E055F82780844666
:1053100073460435012204E0B44517DDA74212D0DC
:10532000224655F8041F0B4403EBD373C6454FEADE
:10533000630602F1010402F1FF300B46ECDDB445D7
:10534000ECDBBDE8F0811046BDE8F081BDE8F081FE
:105350000020BDE8F08100BFB4C6FF1F0B4B1978D9
:1053600089B110B50A4C237833B1002105200CF027
:105370008DFB0023237010BDC82105200CF086FB97
:105380000123237010BD05200CF080BB5434FF1F97
:10539000F8CBFF1F30B5B249B248ADF2847D10F0B2
:1053A00071FBAF49B04810F06DFBAD49AF4810F04C
:1053B00069FBAF49684610F09DFAAE4904A810F0A9
:1053C00099FAAD4908A810F095FAAC490CA810F06C
:1053D00091FAAB4910A810F08DFAA54914A810F065
:1053E00089FAA84918A810F085FAA7491CA810F056
:1053F00081FAA24920A810F07DFAA14924A810F052
:1054000079FA9B4928A810F075FAA0492CA810F049
:1054100071FA9A4930A810F06DFA974934A810F043
:1054200069FA974938A810F065FA91493CA810F03C
:1054300061FA974940A810F05DFA964944A810F027
:1054400059FA914948A810F055FA8D494CA810F026
:1054500051FA914950A810F04DFA864954A810F01D
:1054600049FA894958A810F045FA8A495CA810F011
:1054700041FA8A4960A810F03DFA874964A810F003
:1054800039FA804968A810F035FA7B496CA810F009
:1054900031FA7A4970A810F02DFA804974A810F0FA
:1054A00029FA7D4978A810F025FA78497CA810F0EF
:1054B00021FA724980A810F01DFA734984A810F0EF
:1054C00019FA764988A810F015FA73498CA810F0DB
:1054D00011FA6F4990A810F00DFA6E4994A810F0D7
:1054E00009FA654998A810F005FA6C499CA810F0D3
:1054F00001FA6049A0A810F0FDF95D49A4A810F0D8
:10550000F9F96149A8A810F0F5F96449ACA810F0C0
:10551000F1F95A49B0A810F0EDF95649B4A810F0C5
:10552000E9F95D49B8A810F0E5F95349BCA810F0B5
:10553000E1F95A49C0A810F0DDF95649C4A810F0A5
:10554000D9F94C49C8A810F0D5F95049CCA810F0A9
:10555000D1F94A49D0A810F0CDF95049D4A810F09B
:10556000C9F94549D8A810F0C5F94249DCA810F09E
:10557000C1F94749E0A810F0BDF94649E4A810F088
:10558000B9F94649E8A810F0B5F93B49ECA810F084
:10559000B1F93C49F0A810F0ADF93549F4A810F084
:1055A000A9F93549F8A810F0A5F93549FCA810F07B
:1055B000A1F932490DF5806010F09CF931490DF5E3
:1055C000826010F097F934490DF5846010F092F97B
:1055D0002D490DF5866010F08DF929490DF588608B
:1055E00010F088F92B490DF58A6010F083F92549F0
:1055F0000DF58C6010F07EF924490DF58E6010F0E9
:1056000079F91E490DF5906010F074F91C490DF5FB
:10561000926010F06FF91C490DF5946010F06AF972
:1056200018490DF5966010F065F919490DF5986067
:1056300010F060F917490DF59A6010F05BF9104908
:105640000DF59C6010F056F90B490DF59E6010F0B9
:1056500051F90E490DF5A06010F04CF920E000BFA3
:10566000C4B2060080C3FF1F0839FF1F4033FF1F6D
:10567000009B0600089B0600109B0600149B06007A
:10568000F8950600189B0600209B0600249B060048
:10569000289B0600309B0600349B0600389B0600C2
:1056A00082490DF5A26010F025F981490DF5A4603D
:1056B00010F020F97F490DF5A66010F01BF97E4926
:1056C0000DF5A86010F016F97C490DF5AA6010F0F0
:1056D00011F97B490DF5AC6010F00CF974490DF52A
:1056E000AE6010F007F977490DF5B06010F002F9DF
:1056F00075490DF5B26010F0FDF870490DF5B46014
:1057000010F0F8F871490DF5B66010F0F3F868493B
:105710000DF5B86010F0EEF86B490DF5BA6010F0B9
:10572000E9F864490DF5BC6010F0E4F863490DF543
:10573000BE6010F0DFF866490DF5C06010F0DAF8D1
:105740005B490DF5C26010F0D5F85B490DF5C460FA
:1057500010F0D0F85B490DF5C66010F0CBF85D494C
:105760000DF5C86010F0C6F850490DF5CA6010F08C
:10577000C1F859490DF5CC6010F0BCF851490DF550
:10578000CE6010F0B7F84C490DF5D06010F0B2F8CB
:1057900050490DF5D26010F0ADF849490DF5D460CF
:1057A00010F0A8F84C490DF5D66010F0A3F8414967
:1057B0000DF5D86010F09EF843490DF5DA6010F051
:1057C00099F844490DF5DC6010F094F83F490DF567
:1057D000DE6010F08FF840490DF5E06010F08AF8B7
:1057E00039490DF5E26010F085F836490DF5E460B1
:1057F00010F080F837490DF5E66010F07BF8344979
:105800000DF5E86010F076F833490DF5EA6010F018
:1058100071F829490DF5EC6010F06CF80DF5EE60AB
:10582000244910F067F86C46002504E00135182D76
:1058300004F150042DD02949204610F0C7F9002862
:10584000F4D0274904F1100010F0C0F90028EDD081
:1058500005EB85052C0104F120016944214810F075
:1058600001F904F1300169441F4810F0FBF804F11C
:10587000400169441D4810F0F5F81A491C4810F021
:10588000F1F819491B4810F0EDF818491A4810F0C2
:10589000E9F80DF5EE64ADF110052046103C0FF06F
:1058A000E9FFAC42F9D10DF2847D30BD009B0600CA
:1058B000F8950600209B0600149B0600249B06001A
:1058C000349B0600109B0600309B0600089B0600D8
:1058D000189B0600289B0600389B0600E8C3FF1FA4
:1058E0007C33FF1F80C3FF1F0839FF1F4033FF1F9A
:1058F000ACB9FF1F54C6FF1F9038FF1F10B5816859
:105900002DED028B0139044610F084F90378582BF1
:1059100021D0A1682046013910F07CF90378592B79
:105920001BD0144B1B88144A1BB207EE903A92ED21
:10593000000AB8EEE78A28EE008A2046002110F01F
:1059400069F903782D2B08BFB1EE488AB0EE480AFA
:10595000BDEC028B10BD094BE4E7094B064A1B88DE
:1059600092ED008A1BB207EE903AF8EEE77A27EE46
:10597000888AE2E748C6FF1F481DFF1F44C6FF1F75
:1059800046C6FF1F10B581682DED028B0139044614
:1059900010F040F90378582B27D0A1682046013930
:1059A00010F038F90378194A592B0ABF184B194BD4
:1059B00019491B8818BF194992ED007A91ED008AA8
:1059C0001BB207EE903AF8EEE77AA7EE878A2046F8
:1059D000002110F01FF903782D2B18BFB1EE488A73
:1059E000B0EE480ABDEC028B10BD0D4B07491B8879
:1059F0000C4A91ED007A92ED008A1BB207EE903AC4
:105A0000F8EEE77AA7EE278AE1E700BF741DFF1FD3
:105A10006EB9FF1F84B9FF1F7035FF1F18C7FF1F26
:105A20006CB9FF1FFCC3FF1FF0B5764976488FB0F5
:105A300010F0DAF8002841D1744E754825210EF097
:105A4000F5FE74480FF0B8FD734A744B07CA03C3E0
:105A500001251A8000242346704A71498DF80440BC
:105A600001A88DF805408DF8064007F0D7FA0135FA
:105A700004462A466B4978B1684816F06BFA6A4BBF
:105A80006A4A1B680093009B12689B1AB3F5FA7F61
:105A9000E0D9FAF7D5FFDDE7102165480EF0C6FE24
:105AA0005E4816F0CDFC01465C480EF0BFFE59483A
:105AB0000FF082FD3378DBB90FB0F0BD5D4C534E73
:105AC0002378002BB9D03378002BB6D0544D05F293
:105AD000644738464FF0000109F030FF3846C5F8FA
