:1000000000000320D1010000C57301007D730100D1
:100010007D7301007D7301007D7301007D7301001C
:100020007D7301007D7301007D730100C5730100C4
:10003000C57301007D730100BDAE0100C1AE0100BA
:10004000C5730100C5730100C5730100C5730100CC
:10005000C5730100C5730100C5730100C5730100BC
:10006000C5730100C5730100C5730100C5730100AC
:10007000C5730100C5730100C5730100C57301009C
:10008000C5730100C5730100C5730100C57301008C
:10009000C5730100C5730100C5730100C57301007C
:1000A000EDD90000F9D90000C5730100C573010046
:1000B000C5730100C5730100C57301009D84010073
:1000C000C5730100C5730100C5730100DD8B01001C
:1000D000C573010089930100C5730100C573010058
:1000E000C5730100C5730100C5730100C57301002C
:1000F000C5730100C5730100C5730100C57301001C
:100100000DB5010021B5010035B5010049B501006B
:10011000C57301004D9D0100C5730100C573010049
:10012000C5730100C5730100C5730100C5730100EB
:10013000C5730100C5730100C5730100C5730100DB
:10014000F1AC0100C57301005D9A0100C5730100A7
:10015000C5730100C5730100C5730100C5730100BB
:10016000C5730100C573010005DA0000C573010005
:10017000C5730100C5730100C5730100C57301009B
:10018000C5730100C5730100C5730100C57301008B
:10019000C5730100C5730100C5730100C57301007B
:1001A000C5730100C5730100C573010011DA0000B9
:1001B000C5730100C5730100C5730100C57301005B
:1001C000C5730100C5730100C5730100C57301004B
:1001D0005C4B4CF2205210B51A804DF628121A8052
:1001E00000BF00BF17F0F2F8574B4FF030621A60B3
:1001F000564A9A60564ADA60564B4FF470021A60BB
:10020000554B564A1A60564B1A78110703D51A787F
:1002100042F008021A70534B5349AA221A70534AEB
:10022000534B8B4204D252F8040F43F8040BF8E707
:10023000504B514900228B4202D243F8042BFAE77B
:100240004E494F4A002352F8230041F8230001335E
:10025000742BF8D14B4B4C4A802103F8011B93427D
:10026000FBD14A4B454A1A60494B8A221A70A3F5C2
:10027000805324225A70A0221A709A799207FCD5D2
:100280009A79D406FCD4434A937903F00C03082BE3
:10029000FAD1414B60221A7002331A78802AFCD1BD
:1002A0003C4B01221A715D225A719A799006FCD555
:1002B0009979384A4906FBD5384B394919600021EC
:1002C000596020231370937903F00C030C2BFAD19F
:1002D000344B354A1A60354A354C136813F4807331
:1002E00003D123604FF4A8531360324B324A1A6093
:1002F00000225A60072243F8042C304AC3F80C2D20
:1003000062B617F001FC2368DA0705D52C4817F010
:10031000B7F92C4B2C4A1A602C4B1B785B0609D57D
:10032000284C294B22689A4204D1254817F0A8F995
:100330000023236017F050F820F0F8FF1BF032FD87
:10034000FEE700BF0E20054030800440823F0400DD
:100350000100002B88ED00E0002008E0030000858C
:1003600002D0074000E00740B035FF1F60380700AB
:10037000301DFF1FB035FF1FA47400200018FF1FA1
:100380000000000000E400E064E400E008ED00E0AC
:10039000005006400040064001E007404480044011
:1003A0000000060204800440C010070010D0034083
:1003B00014D0034014E000E01FBF02000000202022
:1003C000B125F9631CE00340A5C3945A00F007402F
:1003D000FFFFFFFFFFFFFFFFFFFFFFFFFFFFFFFF2D
:1003E000FFFFFFFFFFFFFFFFFFFFFFFFFFFFFFFF1D
:1003F000FFFFFFFFFFFFFFFFFFFFFFFFFFFFFFFF0D
:10040000FFFFFFFFFFFFFFFFFFFFFFFFDEF9FFFF23
:1004100010B5054C237833B9044B13B10448AFF33E
:1004200000800123237010BDB035FF1F00000000C5
:100430005C380700084B10B51BB108490848AFF3FA
:1004400000800848036803B910BD074B002BFBD0A0
:10045000BDE81040184700BF00000000B435FF1F82
:100460005C380700B035FF1F00000000704700BF78
:1004700000234FF07E520B49C0ED0D0A80ED0C1A9F
:1004800080ED0E0AC0ED001A80ED012AC0ED022AAF
:10049000C162C260C26103614361836103624362FE
:1004A000836270470050C34790ED023AD0ED076A6F
:1004B00090ED067A90ED045AD0ED037ADFED6B5A99
:1004C000D0ED0A2AD0ED094A90ED082A90ED054AB0
:1004D000D0ED0B3A2DED068B30EEC3AA61EE011A7A
:1004E000F0EECA0AA1EE265AE1EE077AB6EE006AED
:1004F00080EEA58A21EE866AA1EE024AF1EE468AD6
:10050000A8EEA25AE8EEA47AA8EEA34AE1EE057A94
:1005100066EE065AE8EE847AB1EE419AE8EE257A64
:10052000D0ED0E9A80ED054AA9EE247A77EEA99ACD
:10053000E9EE226AF7EE000AF0EE475A80EEA97A59
:10054000A9EE232AE1EE265AD0ED019A80ED082A81
:10055000E1EE224AE8EE825AEAEE019A21EE066ABC
:10056000F0EE640AD0ED004A80ED0D8AE8EE065AFE
:10057000E8EEA30AE1EE294AA9EE045AE9EE026A7E
:1005800025EE874A27EE872A30EE640A20EE877A26
:10059000E9EE232AA8EE065AE8EE216A90ED0C6AED
:1005A000C0ED0A2AE0EE049AE0EE024AA0EE073A15
:1005B00076EE233AC0ED019A80ED045AC0ED037A3D
:1005C000C0ED065AC0ED076AC0ED0B3AC0ED004A17
:1005D00080ED023AC0ED090AC1ED004A436813609C
:1005E000D0ED036AD0ED097A90ED055AD0ED0A2AD4
:1005F00090ED0B3AD0ED063AD0ED084AB1EE477ACD
:10060000E7EE267ABDEC068BC0ED097AD0ED047AD0
:10061000F1EE425AE7EE272AA7EE053AB0EE457A08
:10062000A5EE857AB1EE446A90ED074AC0ED0A2A3C
:10063000E6EE263AA6EE274AE5EEA66AE5EEA77AAA
:10064000F0EE475AB0EE647AA6EE057A80ED0B3AEA
:10065000C0ED063AC0ED036A80ED074AC0ED047AAA
:10066000C0ED055A80ED087A704700BF000048428F
:1006700030B40849084D0160002200244FF07E513B
:10068000456180F8244041608260C260026130BCF4
:10069000704700BF6B7F273DD9899D3BF7EE007AFD
:1006A00087EE800A10B504462DED088BDFED349AF5
:1006B00080ED050A21EE291AB6EE009A61EE097A5C
:1006C000F0EE608A17EE900A20F0E2F841EC100B91
:1006D00041EC1B0B1BF0E4FE68EEA98A51EC100BF9
:1006E00020F022FC68EE897A08EE100A17EE900AD4
:1006F00020F0CEF841EC100B41EC1A0B1BF0D0FEB1
:1007000051EC100B20F010FCB0EE4B0AF0EE6B0A2F
:1007100009EE100A1BF0B4FF51EC100B20F004FCA2
:10072000B0EE4A0AF0EE6A0A08EE900A1BF0A8FF43
:1007300051EC100B20F0F8FB07EE900A28EE097A36
:1007400029EE289A28EE278A68EEA78ADFED0D7A2F
:10075000F0EE476AE8EEA76AD7EE278AB0EE497A4C
:10076000A8EE677AA9EE278AC4ED048A84ED038A8D
:10077000BDEC088BC4ED016A84ED027A10BD00BFA8
:1007800039FA8E3C00000000DFED987A90ED027A95
:1007900090ED035A90ED016AD0ED046A61EE275A9C
:1007A00060EEA70A20EE270A67EE653A25EE603A6A
:1007B00025EE851A60EE874AE0EE863AA7EE403ACB
:1007C000A0EE061AE5EE864AE0EE263AA5EEE63AF7
:1007D000A0EEE61AE0EE454AF5EE401AF6EE007A93
:1007E000F1EE10FA2DED0A8B63EEA73A23EE273ACD
:1007F00021EE271A64EEA74A05D1B5EE402AF1EEA4
:1008000010FA00F0EC8062EE027AB6EE000AE1EE39
:10081000A17AF7EE080AE2EEA27AB0EE604A17EE8D
:10082000903A5B08C3F1BE4303F55D1303F5D4535F
:10083000063305EE903A67EE807A36EEA68A67EECA
:10084000A57AF1EE008AA5EEE74A67EE28AA24EE23
:10085000254A26EEA69A61EE841A26EE06AA68EECE
:10086000615A2AEE28AAEAEE895A76EE069AE7EE4F
:100870000A5A61EEA97A24EE422AE5EE0A7AE2EEFD
:10088000295A65EE289AF2EE00BAE9EE897A27EE47
:1008900007BA67EE2BCA35EE059A75EEEA5A25EED1
:1008A00005AAE2EE087A26EE28CAECEE8B5A21EE73
:1008B000898A65EE2BBAACEE0A8AECEE8A5A77EE9C
:1008C000E97A62EE842AEBEE8B7A37EE074AACEED9
:1008D0000B8AE2EEAA5A2BEE28BA64EE611AA2EE57
:1008E000048AEBEE8A7AE6EE8B1A25EEA54A6AEECA
:1008F000288AE2EEA97AA8EE084AE6EEA81AA7EE40
:10090000A74AE2EE091AD0ED002AA1EEA14A14EEA0
:10091000103A5B08C3F1BE4303F55D1303F5D453EE
:10092000063302EE103A24EE004A24EE024AE2EECA
:10093000440A60EE820A20EEC88A60EEE55A60EE54
:10094000E77A60EEE10AA8EE223AA5EEA21AE7EEF7
:10095000A23AE0EEA24A002380F8243090ED054A46
:10096000A1EE047ABDEC0A8BA3EE046A67EE075A87
:10097000F0EE457AE3EE847AE6EE065AE4EE846A17
:10098000E7EEA75AF6EE004AE6EEA65AB7EE085A88
:1009900015EE903A5B08C3F1BE4303F55D1303F512
:1009A000D453063365EEA45A04EE903A65EEA45A89
:1009B000A4EEE55AF0EE455A65EEA45A26EE256AF5
:1009C00027EE257A67EEA57A66EEA56A80ED016AC4
:1009D00080ED027AC0ED037AC0ED046A7047F5EE4F
:1009E000402AF1EE10FA7FF40EAFB4E739FA8E3CEC
:1009F00010B5D0ED027A90ED037A90ED040AD0EDB7
:100A0000016A2DED028BB6EE008AF0EE480AE7EEA1
:100A1000E70A044627EE000AE7EE470AA6EEA70A11
:100A20001CF05AFA94ED016AD4ED037AD4ED026A0F
:100A300094ED047A84ED060A67EEC67AB8EE000AF1
:100A4000E6EE877A27EE800A1CF0E6F994ED037A49
:100A5000D4ED046AD4ED017A94ED026A84ED070ABC
:100A6000F0EE480AE7EE470A26EEA70AE6EEE60AA7
:100A7000A6EE070A1CF030FA012384F82430BDECFE
:100A8000028B84ED080A10BD00207047704700BF3C
:100A90004FF0FF30704700BF704700BF704700BF86
:100AA000014B01221A7070470436FF1F014B0122CF
:100AB0001A707047203CFF1F10B5044B044640F8E5
:100AC000103B11F065F8204610BD00BF84ED060014
:100AD00010B504461AF0F8FC204610BD10B50446C7
:100AE0001AF0B0F8204610BD2DE9F04F764DDFF832
:100AF000E481764FDFF8FC9197B0AA46332417F0D3
:100B000027FC002801DD013C02D117B0BDE8F08FC1
:100B100017F01EFC2B68984201DADAF80000286012
:100B2000002106A81AF044FF00210AA81AF040FF8D
:100B300000210EA81AF03CFF002112A81AF038FF7D
:100B400017F01AFCD9F800300093D8F80820604B51
:100B500000991960312AC1B23970DFF898B15D4E41
:100B60000FD8B2B9242916D012A81AF0E1FE0EA8A7
:100B70001AF0DEFE0AA81AF0DBFE06A81AF0D8FE6C
:100B8000BDE7554930461AF0BFFFB2683978002AF0
:100B9000E8D00A2903D04F481BF00AF8E4E74D4C8F
:100BA000002120461BF078F80278242A12D04A4906
:100BB00048481AF0A9FF12A81AF0BAFE0EA81AF0B7
:100BC000B7FE0AA81AF0B4FE06A81AF0B1FE17B0D4
:100BD000BDE8F08FA268142AE9D9DBF80030019350
:100BE0003E4B019A1A6000252C463A4F2146384662
:100BF0001BF052F8B26801780134131FA3420D4470
:100C0000F3D8531E02A8033A39461BF08FF800218F
:100C100002A81BF041F81022002123F00FF8EDB2DA
:100C2000044602A81AF084FEAC42C0D1BB68043B63
:100C3000152B1DD90025152408E00135032D04F1DD
:100C4000010415DCB368043BA34211D921462148B5
:100C50001BF022F803781F482C2B2146EDD01BF007
:100C60001BF806AB017803EB05101AF0A1FFE5E7CE
:100C700006A81BF087F807EE900A194BF8EEE77A02
:100C80000AA8C3ED007A1BF07DF807EE900A15491B
:100C9000154BF8EEE77A00220EA8C1ED007A1A6033
:100CA0001BF070F807EE900A104BF8EEE77A12A8E6
:100CB000C3ED007A1BF066F807EE900A0C4BF8EED5
:100CC000E77AC3ED007A72E75C37FF1F1441FF1F1C
:100CD000E4090020F041FF1FA8130700600900206D
:100CE0005C0800202841FF1F243CFF1FB4060020A1
:100CF0008C40FF1F30110020836C13B118460FF099
:100D000029BCC06C08B10DF089BD7047836C13B16C
:100D100018460FF0F9B9C06C08B10DF083B84FF068
:100D2000FF307047836C13B118460FF055BCC06C90
:100D300008B10DF05BBF704700B5836C83B08DF8D0
:100D4000071043B1184601220DF107010FF044FCD2
:100D500003B05DF804FBC06C0028F9D001220DF14E
:100D600007010DF043FF03B05DF804FB00B5836C91
:100D700083B063B1184601220DF107010FF0F4F8BA
:100D800001280CD19DF8070003B05DF804FBC06C8E
:100D900028B101220DF107010CF070FFF0E74FF0D0
:100DA000FF30F1E7826C62B1137803F0080303F0BF
:100DB000FF0003B3D3695069181A48BF6FF00040B1
:100DC0007047C16CC1B191F8313003F0080303F0F2
:100DD000FF0083B1D1E90423D1E90001101A30B436
:100DE00063EB010100256FF000448D4208BF84428F
:100DF00000D2204630BC7047084670472DE9F04FBE
:100E00008A4B2DED068B1B68012BA5B06FD0062BEE
:100E100000F0E680864F9FED878ADFED879A9FED91
:100E2000879ADFED878A40F2012517F045FE0028FA
:100E300001DD013D04D125B0BDEC068BBDE8F08F8E
:100E400017F03AFE3B68984201DA794B18687D4CFE
:100E50003860DFF800827C4E17F042FE2368DFF82E
:100E600000E20793DDF81CC07849DEF80030D8F8BE
:100E70000820C1F800C00133C1B2E62ACEF8003024
:100E8000317025D8DFF8F48132B998F800300A2B98
:100E900002D088F80010C8E7DFF8B89148461AF089
:100EA00087FE31780A29F4D1604B1B68022B00F0D1
:100EB0001A84032B00F06E84042B00F0CD82052BE6
:100EC00000F02485624963481AF01EFE3178E0E79D
:100ED0001921614819F082FC60481AF07BFB5C49DB
:100EE00040461AF011FED8F808203178CAE7DFF83A
:100EF00054B140F2012A17F0DFFD00289BD0BAF16F
:100F0000010A98D017F0ECFDDBF80030544A049346
:100F1000049C13684D49C5B20133192D0C60136050
:100F200050D0504A13787E2B14D84F4F397831B1B6
:100F3000591CC9B24D4E11707F29F55411D04C4B3C
:100F40001D7017F0B9FD0028D9D125B0BDEC068B76
:100F5000BDE8F08F7F2BF2D1434F3B78002BEED0D2
:100F6000424E444908220CA815F068FF0CA908223B
:100F70003E4820F055FD002840F001843B490346DF
:100F800001F17E0E11F8012F5BBA9BB25340C3F3FF
:100F9000031253401A0392B253405A0102F4FF5213
:100FA000714583EA0203EDD11C46002B00F0FE8060
:100FB0000023112130483B7019F010FC27481AF02B
:100FC00009FB98E72A4B1B78FA2BAAD1274E264912
:100FD000244A337001230B700223757013708AE763
:100FE000204D184EA946652417F066FD00283FF4F1
:100FF00022AF013C3FF41FAF17F072FD3368184970
:101000001093DDF840E00A68104F2B78C7F800E035
:1010100001320A60C0B20B49124A8BBB0528E3D1EA
:10102000124A0123107089F80030DDE77441FF1F78
:10103000740700200000C842C0CFF83F48F9514073
:1010400000007042301100205837FF1FBC080020FC
:10105000A8130700283CFF1F00F50600502BFF1FB8
:101060002042FF1F4C090020DC36FF1F443DFF1FBC
:10107000AC080020D0ED0600E8F40600400900208E
:10108000012B64D09F1E012F67D9DFF81CE1DEF829
:101090000070BB420CDA7E2B9CBF3A4FF8540133F0
:1010A000DBB2032B2B709FD9DEF8000083429BDB61
:1010B000344C88462179012900F0BE83032943D1AD
:1010C000282B41D123899FED305ADFED304A304D36
:1010D0003049314807EE903AB4F90A3005EE903ABB
:1010E000B4F90C3006EE103AB4F91430F8EEE77AA1
:1010F00006EE903AB4F91630284C07EE103A67EE37
:10110000857AF8EEE55AFDEEE77AB8EEC66AF8EEB3
:10111000E66AB8EEC77AC5ED007A214B65EE855ACE
:1011200026EE056A66EEA46A67EE247AC4ED005ADC
:1011300080ED006AC1ED006AC3ED007AD8F8003096
:101140001C93184B1C9919600023137073E6022836
:1011500000F0108300232B7046E75A1CD2B20949D5
:1011600089F80020042AC8547FF43EAF8A78CB78EF
:101170005340FF2BEED1002A00F08B8414320A4B2F
:101180001A6031E7443DFF1FCDCCCC3D0AD7233C4C
:101190005C1EFF1F0842FF1FFC070020A441FF1F29
:1011A000540700206041FF1F383CFF1F8C4BB26882
:1011B000D6F80CE0D6ED0C6ADFF898C293E803008D
:1011C0000DF1800803F1080988E8030099E803009D
:1011D000844B9DED207B1A6088E80300824B834A94
:1011E000C3F800E0824B316911609DED205B83ED17
:1011F000007B804896ED0D7A7F49804A804BD6F877
:101200002CE0D6ED0E7A80ED005BC1F800E07D4861
:10121000C2ED006A83ED007A7B4A96F84730D6F833
:101220003CE0316C039396F84830CCED007A0193A2
:10123000C0F800E0116096F849200292DBF8002027
:101240000592059A7149A1FB0201C90810A80A225A
:101250001AF0F4FB129A10A8023A014640461AF01E
:1012600089FD414610A81AF047FC40461AF060FB81
:10127000039B1CA819461AF0CDFB1CA8014640464A
:101280001AF0AAFB404662491AF0BEFC019903908D
:1012900018A81AF0BFFB18AB1946039B18461AF0A2
:1012A000ABFC5B491AF0B0FC0299019014A81AF04B
:1012B000B1FB019B14A918461AF09EFC55491AF07F
:1012C000A3FC10A91AF098FC014653481AF00CFC34
:1012D00014A81AF02DFB18A81AF02AFB40461AF0A1
:1012E00027FB1CA81AF024FB4C4B96F84C201A70D4
:1012F00009F131014046042215F0A0FD484B209E23
:101300001E6009F135014046042215F097FD454B5A
:10131000209E1E6009F139014046042215F08EFD21
:10132000414B209E1E6009F13D014046042215F00C
:1013300085FD3E4B209E1E6009F14101404604227E
:1013400015F07CFD3A4B209E1E6009F14501404698
:10135000042215F073FD374B209E1E6009F14901F0
:101360004046042215F06AFD334B209E1E6009F1B1
:101370004D014046042215F061FD304B209E1E6059
:1013800009F151014046042215F058FD2C4B209ED6
:101390001E6009F155014046042215F04FFD294B0E
:1013A000209E1E6009F159014046042215F046FDB9
:1013B000254B209E1E6009F15D014046042215F078
:1013C0003DFD224A20991160DBF800200692204B57
:1013D000069A3C7010A81A601AF0AAFAAFE500BF8E
:1013E000583DFF1FD4040020A8F8FF1F600600200E
:1013F0005036FF1FC036FF1F9C08002068090020E0
:10140000FC3DFF1FD00600203037FF1FCDCCCCCCD9
:10141000FCF406004C070700E040FF1FA005002079
:101420009841FF1F040800203C09002064090020A7
:10143000203EFF1F1C3EFF1F603CFF1FF43CFF1FB0
:10144000A841FF1FF43DFF1F2806002000080020D0
:101450006041FF1F2C060020D9F808303B2B7FF499
:1014600031AD002148461AF017FC03783D2B7FF47C
:1014700029AD012148461AF00FFC0378312B7FF487
:1014800021AD484602211AF007FC0378312B7FF486
:1014900019AD0CAB00211846894601931AF088FA61
:1014A000CA465146D7481AF0F7FB0AF1010A0378F9
:1014B000BAF1370F9944F4D152460DF1800A39231D
:1014C0005046D0491AF032FC002150461AF0E4FB95
:1014D0001022002122F0B2FB5FFA89F983465046C0
:1014E0001AF026FAD94540F087811B231722C549F7
:1014F00050461AF01BFCDDF80490514648461AF09D
:10150000FBFA50461AF014FABF4948461AF0AEFBEF
:10151000002801F0D2800F230B22BA4950461AF05E
:1015200005FCDDF80490514648461AF0E5FA5046AD
:101530001AF0FEF9B44948461AF098FB002801F069
:10154000B08014230F22AF4950461AF0EFFBDDF8AC
:101550000490514648461AF0CFFA50461AF0E8F97E
:10156000AA4948461AF082FB002801F08E80172312
:101570001422A44950461AF0D9FBDDF804905146D4
:1015800048461AF0B9FA50461AF0D2F9A04948462E
:101590001AF06CFB002801F071802823252299495C
:1015A00050461AF0C3FBDDF80490514648461AF045
:1015B000A3FA50461AF0BCF9954948461AF056FB72
:1015C000002801F051802B2328228E4950461AF022
:1015D000ADFBDDF80490514648461AF08DFA5046AE
:1015E0001AF0A6F98A4948461AF040FB002801F093
:1015F0002F8021231B22834950461AF097FBDDF8E8
:101600000490514648461AF077FA50461AF090F97D
:10161000804948461AF02AFB002801F01280312345
:101620002D22784950461AF081FBDDF8049051468E
:1016300048461AF061FA50461AF07AF9724948465B
:101640001AF014FB002800F0F28723680A930A9A24
:10165000714B1A606B49052303221CA81AF066FB24
:101660001CA950461AF0B8F96C4950461AF0CCFA49
:10167000072305220446634918A81AF057FB18A946
:1016800020461AF0B9FA65491AF0BEFA0923072272
:1016900004465C4914A81AF049FB14A920461AF024
:1016A000ABFA5F491AF0B0FA0B230446092210A8DE
:1016B00054491AF03BFB10A920461AF09DFA014646
:1016C00058481AF011FA10A81AF032F914A81AF0B2
:1016D0002FF918A81AF02CF950461AF029F91CA86D
:1016E0001AF026F988E0D9F808304A2B00F0C681B4
:1016F000E12B7FF4E7AB002142481AF0CDFA0378E2
:10170000212B7FF4DFAB01213E481AF0C5FA0378A4
:10171000332B7FF4D7AB0DF1700B0021584689466F
:101720001AF046F94C46214636481AF0B5FA01340B
:101730000378DD2C9944F6D10DF1800A2246DF238F
:10174000504630491AF0F2FA002150461AF0A4FA35
:101750001022002122F072FA5FFA89F904465046FD
:101760001AF0E6F8A14500F0958258461AF0E0F824
:10177000FFF7A8BB2C4B89F80000587034E4002315
:1017800014212A483B7019F029F8294819F022FF42
:10179000FFF7B1BBD9F80830352B7FF493AB0CAB16
:1017A0001846002101931AF003F94FF00009CB46C7
:1017B000594614481AF070FA0BF1010B0378BBF18B
:1017C000310F9944F4D10DF1800A5A463323504623
:1017D0000C491AF0ABFA002150461AF05DFA1022BB
:1017E000002122F02BFA5FFA89F9834650461AF05D
:1017F0009FF8D94500F07C8101981AF099F8FFF71D
:1018000061BB00BF283CFF1F38F5060068FA0600E0
:1018100040F5060044F506006041FF1FFCF4060099
:101820004C07070088F8FF1F443DFF1FD0F4060057
:10183000502BFF1F8B2A5D3D2C2B7FF485AC019232
:10184000238A1FED046A9A4FA2689A4E9A489B49D0
:101850009B4D07EE103A638A07EE903AB8EEC77ACE
:10186000B4F91C303A60F8EEE77A27EE067A06EE15
:10187000903A67EE867A934BB4F9147086ED007A4D
:10188000F8EEE66AB4F91660C0ED007A0F601CA8A5
:1018900094F820102E60C3ED006A1AF0BBF81CA962
:1018A00020A81AF099F8884920A81AF0ADF994F800
:1018B0002110054618A81AF0ADF818A928461AF004
:1018C0009BF981491AF0A0F994F82210054614A852
:1018D0001AF0A0F814A928461AF08EF901467B48A0
:1018E0001AF002F914A81AF023F818A81AF020F830
:1018F00020A81AF01DF81CA81AF01AF8D8F8003021
:101900002093734B20991960019A1DE4D9F808308F
:101910003B2B00F0C280DD2B7FF4D4AA00216D4860
:101920001AF0BAF903783D2B7FF4CCAA012169485B
:101930001AF0B2F90378332B7FF4C4AA0221654868
:101940001AF0AAF90378312B7FF4BCAA0DF1700BC1
:101950000021584689461AF02BF84C4621465D482E
:101960001AF09AF901340378D92C9944F6D10DF183
:10197000800A2246DB23504656491AF0D7F9002147
:1019800050461AF089F91022002122F057F95FFA27
:1019900089F90446504619F0CBFFA1457FF4E5AE26
:1019A0002F232C224B4950461AF0C0F95146584675
:1019B0001AF0A2F8504619F0BBFF474958461AF0F2
:1019C00055F948B958461AF0E3F9F2EE047A80EE78
:1019D000277A424B83ED007A20231D223D49504651
:1019E0001AF0A4F9514658461AF086F8504619F0F4
:1019F0009FFF394958461AF039F948B958461AF044
:101A0000C7F9F2EE047A80EE277A354B83ED007A3F
:101A10001D231A222F4950461AF088F9514658467C
:101A20001AF06AF8504619F083FF2B4958461AF00D
:101A30001DF948B958461AF0ABF9F2EE047A80EE77
:101A4000277A284B83ED007A16231222214950462B
:101A50001AF06CF9514658461AF04EF8504619F0F3
:101A600067FF214958461AF001F900287FF47DAE3E
:101A700058461AF087F91D4B186076E60021484653
:101A80001AF00AF90378212B00F09E81D9F808306A
:101A90002EE64FF48A72FFF772BB002148461AF017
:101AA000FBF803783D2B00F0BE83D9F8083032E70D
:101AB0002041FF1F343DFF1F403DFF1F2C41FF1FF2
:101AC0003837FF1FC83CFF1FFCF4060088F8FF1FD3
:101AD0006041FF1F283CFF1F40F50600103DFF1F1F
:101AE00050F8FF1F1442FF1F38F5060058F8FF1F7B
:101AF00018231422A24950461AF018F9DDF8049070
:101B00005146484619F0F8FF504619F011FF484673
:101B10001AF03EF9B2EE04AAC0EE0A7ADFF894E2B7
:101B200097490C230822504667EEA97ACEED007A39
:101B30001AF0FCF85146484619F0DEFF504619F0FD
:101B4000F7FE48461AF024F9C0EE0A7ADFF868E298
:101B50008B4911230C225046CEED007A1AF0E6F89C
:101B60005146484619F0C8FF504619F0E1FE484674
:101B70001AF00EF9C0EE0A7ADFF840E28049242319
:101B800021225046CEED007A1AF0D0F85146484650
:101B900019F0B2FF504619F0CBFE48461AF0F8F89B
:101BA000C0EE087ADFF818E2754927232422504650
:101BB000CEED007A1AF0BAF85146484619F09CFF6B
:101BC000504619F0B5FE48461AF0E2F8C0EE0A7A1F
:101BD000DFF8F0E16A49292327225046CEED007A4A
:101BE0001AF0A4F85146484619F086FF504619F0FD
:101BF0009FFE48461AF0C6F8624B614918602D22D4
:101C00002F2350461AF092F85146484619F074FFB7
:101C1000504619F08DFE012148461AF03DF8102279
:101C2000002122F00BF8C30700F11A8423680993FE
:101C3000554B099A1A605249022300221CA81AF037
:101C400075F81CA9504619F0C7FE5049504619F0C6
:101C5000DBFF042302220446494918A81AF066F85B
:101C600018A9204619F0C8FF484919F0CDFF0623EE
:101C700004220446424914A81AF058F814A9204630
:101C800019F0BAFF424919F0BFFF082304460622A3
:101C900010A80DE52F232C22394950461AF046F89A
:101CA0005146584619F028FF504619F041FE39496F
:101CB000584619F0DBFF002800F0AD84364B374A58
:101CC0001A6020231D222E4950461AF02FF8514643
:101CD000584619F011FF504619F02AFE2D49584672
:101CE00019F0C4FF002800F08A842D4B2B4A1A609B
:101CF0001D231A22224950461AF018F85146584618
:101D000019F0FAFE504619F013FE2249584619F010
:101D1000ADFF002800F06784224B204A1A6016238A
:101D20001222174950461AF001F85146584619F048
:101D3000E3FE504619F0FCFD1B49584619F096FF8A
:101D4000002800F04984194B4FF0FF321A60DC2361
:101D5000D9220B49504619F0E9FF5146584619F06F
:101D6000CBFE504619F0E4FD0A49584619F07EFFB3
:101D7000002800F0AD830E4B4FF0FF321A60F4E400
:101D8000283CFF1F2C41FF1F6041FF1FFCF4060091
:101D90004C0707002CF50600103DFF1F000080BF18
:101DA00050F8FF1F1442FF1F1CF5060058F8FF1FD4
:101DB0008C090020343DFF1FA441FF1FFC070020B9
:101DC000540700200842FF1F0121484619F064FF14
:101DD0000378312B7FF45AAE0CAB002118468946AC
:101DE000019319F0E5FDCB465946CD4819F054FF53
:101DF0000BF1010B0378BBF1460F9944F4D10DF1BF
:101E0000800A5A4648235046C54919F08FFF0021E1
:101E1000504619F041FF1022002121F00FFF5FFA18
:101E200089F98346504619F083FDD9457FF4E4AC27
:101E30001B231722BA49504619F078FFDDF80490A9
:101E40005146484619F058FE504619F071FDB54903
:101E5000484619F00BFF002800F04F81B24BB34AFF
:101E60001A600F230B22AE49504619F05FFFDDF8D0
:101E700004905146484619F03FFE504619F058FD6F
:101E8000A849484619F0F2FE002800F0C181A84B8D
:101E9000A84A1A6014230F22A149504619F046FFA0
:101EA000DDF804905146484619F026FE504619F0D8
:101EB0003FFDA149484619F0D9FE002800F09D8158
:101EC0009E4B9F4A1A60172314229549504619F0D9
:101ED0002DFFDDF804905146484619F00DFE50469E
:101EE00019F026FD9749484619F0C0FE002800F079
:101EF0007E81954B4FF0FF321A60282325228849B6
:101F0000504619F013FFDDF804905146484619F089
:101F1000F3FD504619F00CFD8A49484619F0A6FE1B
:101F2000002800F05B81894B824A1A602B2328220B
:101F30007B49504619F0FAFEDDF8049051464846B8
:101F400019F0DAFD504619F0F3FC7E49484619F0C5
:101F50008DFE002800F037817D4B764A1A602D23D4
:101F60002B226F49504619F0E1FEDDF804905146EE
:101F7000484619F0C1FD504619F0DAFC754948464B
:101F800019F074FE002800F01881734B4FF0FF32F7
:101F90001A6021231B226249504619F0C7FEDDF862
:101FA00004905146484619F0A7FD504619F0C0FC70
:101FB0006A49484619F05AFE002800F0F880684B3C
:101FC000684A1A6031232D225549504619F0AEFE59
:101FD000DDF804905146484619F08EFD504619F040
:101FE000A7FC5049484619F041FE002800F0D68071
:101FF0005D4B5C4A1A60382334224949504619F037
:1020000095FEDDF804905146484619F075FD50469E
:1020100019F08EFC4349484619F028FE002800F0CC
:10202000B180DFF85C91414BC9F800303423312294
:102030003B49504619F07AFEDDF804B05146584647
:1020400019F05AFD504619F073FC3E49584619F0F4
:102050000DFE00285CD0374BC9F800300523032261
:102060001CA82F4919F062FE1CA9504619F0B4FCB7
:102070003E49504619F0C8FD0723052281462849EC
:1020800018A819F053FE18A9484619F0B5FD3749AC
:1020900019F0BAFD092307228146214914A819F035
:1020A00045FE14A9484619F0A7FD314919F0ACFDC9
:1020B0000B23092281461A4910A819F037FE10A9EE
:1020C000484619F099FD01462A4819F00DFD10A85F
:1020D00019F02EFC14A819F02BFC18A819F028FCF4
:1020E000504619F025FC1CA819F022FC236808931F
:1020F000214B089A1A60FFF77FBB019819F048FE40
:10210000F2EE047A80EE277A074B83ED007AA8E698
:10211000019819F03DFE194B83ED000A9EE700BFC0
:10212000283CFF1F1CF50600343DFF1F000080BF48
:10213000A441FF1F0000C8C224F50600FC070020D0
:10214000000034C32CF506005C1EFF1F540700205E
:102150000842FF1F34F506002C41FF1F30F5060032
:102160002041FF1FF0D8FFFF3837FF1FFCF40600A7
:102170004C07070088F8FF1F6041FF1FC83CFF1F86
:10218000403DFF1F0198DFF8A89319F001FEF2EE21
:10219000047A80EE277A89ED007A47E7019819F0F2
:1021A000F1FDD34A00EB80004300136023E7019860
:1021B00019F0E8FDCF4B186004E7019819F0E2FD33
:1021C000CD4B1860E5E6019819F0E2FDF2EE047AD5
:1021D00080EE277AC94B83ED007AC0E6019819F0AA
:1021E000D7FDC0EE087AC64BC3ED007A9EE6019893
:1021F00019F0C8FDC34B18607FE6019819F0C8FDBF
:10220000F2EE047A80EE277ABF4B83ED007A5AE62D
:10221000019819F0BDFDF2EE047A80EE277ABB4BEF
:1022200083ED007A36E60121484619F035FD037842
:10223000312B7FF43AAC0221484619F02DFD03788A
:10224000312B7FF432AC0CAB002118468946019348
:1022500019F0AEFBCA465146AD4819F01DFD0AF112
:10226000010A0378BAF1370F9944F4D152460DF1BF
:10227000800A39235046A64919F058FD00215046DE
:1022800019F00AFD1022002121F0D8FC5FFA89F92B
:102290008346504619F04CFBD9457FF4ADAA1B2369
:1022A00017229B49504619F041FDDDF80490514634
:1022B000484619F021FC504619F03AFB954948462A
:1022C00019F0D4FC002800F07C810F230B229049E8
:1022D000504619F02BFDDDF804905146484619F0A0
:1022E0000BFC504619F024FB8A49484619F0BEFC05
:1022F000002800F05B8114230F228549504619F015
:1023000015FDDDF804905146484619F0F5FB50469E
:1023100019F00EFB8049484619F0A8FC002800F08F
:102320003A81172314227A49504619F0FFFCDDF850
:1023300004905146484619F0DFFB504619F0F8FA70
:102340007649484619F092FC002800F01E812823A7
:1023500025226F49504619F0E9FCDDF804905146FA
:10236000484619F0C9FB504619F0E2FA6B49484655
:1023700019F07CFC002800F0FF802B232822644900
:10238000504619F0D3FCDDF804905146484619F048
:10239000B3FB504619F0CCFA6049484619F066FC88
:1023A000002800F0DE802D232B225949504619F0D9
:1023B000BDFCDDF804905146484619F09DFB50469F
:1023C00019F0B6FA5649484619F050FC002800F0BA
:1023D000C28021231B224E49504619F0A7FCDDF88C
:1023E00004905146484619F087FB504619F0A0FA70
:1023F0004C49484619F03AFC002800F0A6803423E6
:1024000031224349504619F091FCDDF804905146C1
:10241000484619F071FB504619F08AFA3F49484680
:1024200019F024FC002800F0858031232D22384942
:10243000504619F07BFCDDF804905146484619F0EF
:102440005BFB504619F074FA3249484619F00EFC0D
:10245000002844D023680B930B9A334BFFF7F9B84D
:102460001D2318222A49504619F060FCDDF804901B
:102470005146484619F040FB504619F059FA484673
:1024800019F080FC07EE900AF8EEE77A1948204927
:1024900067EE897A2123FDEEE77A1D22C0ED007AEE
:1024A000504619F043FC5146484619F025FB50466A
:1024B00019F03EFA484619F06BFCC0EE0A7A0C4B54
:1024C00067EEA87AFDEEE77AC3ED007AFFF7AEBBC0
:1024D000584619F057FC154B1860FFF746B901989C
:1024E00019F050FC024A00EB800043001360B1E792
:1024F0003837FF1F2041FF1F2C41FF1F0842FF1FDD
:10250000540700205C1EFF1FFC070020A441FF1F92
:10251000283CFF1F38F5060068FA060040F5060063
:1025200048F5060044F506006041FF1F8C090020B5
:10253000403DFF1F019819F025FC07EE900A654BFE
:10254000F8EEE77AC3ED007A6FE7019819F01AFC0C
:10255000614B186053E7019819F014FC5F4B186049
:1025600037E7019819F014FCF2EE047A80EE277A2E
:102570005B4B83ED007A16E7019819F009FCC0EE79
:10258000087A584BC3ED007AF7E6019819F0FAFB88
:10259000554B1860DBE6019819F0FAFBF2EE047A6D
:1025A00080EE277A514B83ED007ABAE6019819F054
:1025B000EFFBF2EE047A80EE277A4D4B83ED007A42
:1025C00099E6019819F0E4FBF2EE047A80EE277A9E
:1025D000484B83ED007A78E6584619F0D3FB464B1A
:1025E0001860FFF7B4BB584619F0D2FBF2EE047A3C
:1025F00080EE277A414B83ED007AFFF790BB584677
:1026000019F0C6FBF2EE047A80EE277A3C4B83ED9C
:10261000007AFFF76DBB584619F0BAFBF2EE047A68
:1026200080EE277A374B83ED007AFFF74ABB01989B
:1026300019F0A8FB344A00EB800043001360FFF759
:1026400004B8019819F09EFB234B1860FEF7E7BF12
:10265000019819F09DFBF2EE047A80EE277A204B68
:1026600083ED007AFEF7C5BF019819F091FBC0EE2B
:10267000087A1C4BC3ED007AFEF7A5BF019819F04C
:1026800081FB194B1860FEF788BF019819F080FB99
:10269000F2EE047A80EE277A144B83ED007AFEF78F
:1026A00066BF019819F074FBF2EE047A80EE277A87
:1026B0000F4B83ED007AFEF744BF019819F068FBD9
:1026C000F2EE047A80EE277A0A4B83ED007AFEF769
:1026D00022BF00BFC83CFF1F2041FF1F2C41FF1F2E
:1026E0000842FF1F540700205C1EFF1FFC0700204C
:1026F000A441FF1F343DFF1F58F8FF1F1442FF1F66
:1027000050F8FF1F103DFF1F3837FF1F70B50446FC
:1027100008460D461FF0D4FE23680246294620468F
:102720005B68BDE87040184738B5044608460D465A
:102730001FF0C6FE2368024629465B68204698477C
:102740000546204618F046FF284438BD38B50A2211
:102750000023054618F068FF0446284618F03AFFA3
:10276000204438BD38B5054618F09EFF044628467B
:1027700018F030FF204438BD38B5054618F094FFF6
:102780000446284618F026FF204438BD002310B424
:10279000114C4172026104600372C36041B1194679
:1027A00000E0026942F82310427A01339A42F8DCD1
:1027B0000A4B1A680AB90CE01A465369002BFBD180
:1027C0005061002343618380C38083725DF8044BB2
:1027D00070471860F5E700BFCCED06009C73002041
:1027E00010B5044619F0CEFA012804D00949204654
:1027F00019F03CFA08B1012010BD0749204619F034
:1028000035FA0028F7D12046044919F02FFA00289C
:10281000F2D0F0E74CF50600E0F6060050F50600B1
:102820002DE9F041804684B00C46074600252C2156
:10283000204619F059FA061E4FF000022146334691
:1028400068461FDD19F072FA684619F09BFA0135E7
:1028500047F8040F684619F06BF8721CA368C8F8B3
:1028600000502146684619F061FA6946204619F081
:1028700043F9684619F05CF8052DD8D1404604B0FC
:10288000BDE8F081204619F07DFA08EB850301359B
:1028900058604046C8F8005004B0BDE8F08100BF61
:1028A0002DE9F04F2DED028BB2F1000985B0804685
:1028B0004ADD0E469FED368A054601240AE027468A
:1028C0004F4585ED018AC8F8004005F1040504F183
:1028D000010439DA2F49304619F0C8F904F1FF3AFA
:1028E00007460028EBD12C21304619F0FDF93A4675
:1028F000071E31463B4668462CDD19F017FA264B79
:102900000098002808BF18461EF0EAFC51EC100B96
:102910001EF00AFB6860684619F00AF87A1CB36872
:10292000C8F800403146684619F000FA694630465A
:1029300019F0E2F82746684618F0FAFF4F4504F10F
:10294000010405F10405C5DB404605B0BDEC028B72
:10295000BDE8F08F314619F03FF80F4B0098002882
:1029600008BF18461EF0BCFC51EC100B1EF0DCFA40
:1029700008EB8A0ACAF80400684618F0D9FF4046F6
:10298000C8F8004005B0BDEC028BBDE8F08F00BF79
:1029900000000000A8130700C83007002DE9F0412F
:1029A0001B4F84B080460C4606462C21204619F069
:1029B0009BF9051E4FF0000221462B4668461EDD9E
:1029C00019F0B4F90098002808BF38461EF088FCBA
:1029D00051EC100B1EF0A8FA46F8040B684618F0EC
:1029E000A7FF6A1CA3682146684619F09FF969464B
:1029F000204619F081F8684618F09AFFD5E720467E
:102A000019F0C0F988F81000404604B0BDE8F08124
:102A1000C83007002DE9F04184B015460C46064643
:102A20001F49684618F0C4FF2946684619F0E4F8C3
:102A30001C4919F0E9F80146204619F065F90746E6
:102A4000684618F075FF1849684618F0B1FF294626
:102A5000684619F0D1F8134919F0D6F80146204616
:102A600019F052F98046684618F062FF002F0EDB1D
:102A7000B8F1000F0BDBAA68023230463A444346F5
:102A8000214619F053F9304604B0BDE8F0810749FA
:102A9000304618F08DFF304604B0BDE8F08100BF2D
:102AA0005CF506008C0F070060F50600A813070010
:102AB00070B504460D460F49164618F079FF2946B1
:102AC000204619F063F820460B4919F063F83146A7
:102AD000204619F05BF82046084919F05BF82946B2
:102AE000204619F053F82046054919F053F82046BE
:102AF00070BD00BF5CF506008C0F070060F5060096
:102B00006C0F070084B070B58AB00FAC84E80E007B
:102B10001849054618F04CFF13AE54F8040B1DF08D
:102B2000B7FE02460B4605A813491FF06BFA05A92C
:102B300001A818F03DFF01A9284619F027F801A8BF
:102B400018F0F6FE0D49284619F024F8B442E4D1F5
:102B50009DF84C1005A818F05DFF05A9284619F04E
:102B600015F805A818F0E4FE28460AB0BDE8704044
:102B700004B07047A813070054F5060064F506007A
:102B800084B02DE9F0418AB011AD85E80E000E4603
:102B90001749074618F00CFF002E1DDD06F1FF381F
:102BA000002455F8040F1DF073FE02460B4605A8DD
:102BB00010491FF027FA05A901A818F0F9FE01A98C
:102BC000384618F0E3FF01A818F0B2FEA04504F162
:102BD000010407DCA642E4D138460AB0BDE8F04162
:102BE00004B070470449384618F0D4FFF2E700BF3C
:102BF000A813070054F5060064F5060084B02DE91B
:102C0000F04107AD85E80E000E460F49074618F063
:102C1000CFFE002E0DDD06F1FF38002455F8041F0D
:102C2000384618F0D5FFA04504F1010406DCA642A1
:102C3000F4D13846BDE8F04104B070470349384646
:102C400018F0A8FFF3E700BFA813070064F506001B
:102C5000F0B5B349B34E9BB0044618F055FFB249E6
:102C600011A818F0A5FEB14B0A2219680DA818F09A
:102C7000E5FE0DAA11A915A8FFF71AFF15A9204610
:102C800018F084FF15A818F053FE0DA818F050FE98
:102C900011A818F04DFEA64911A818F089FEA54B01
:102CA0000A2219680DA818F0C9FE0DAA11A915A8C5
:102CB000FFF7FEFE15A9204618F068FF15A818F0CA
:102CC00037FE0DA818F034FE11A818F031FE9A490D
:102CD00011A818F06DFE99490DA818F07DFE0DAAF7
:102CE00011A915A8FFF7E4FE15A9204618F04EFF1C
:102CF00015A818F01DFE0DA818F01AFE11A818F05E
:102D000017FE8F4911A818F053FE8E490DA818F030
:102D100063FE0DAA11A915A8FFF7CAFE15A9204642
:102D200018F034FF15A818F003FE0DA818F000FEE7
:102D300011A818F0FDFD844911A818F039FE06F11C
:102D40000C0393E807008DE8070096E80E000DA835
:102D5000FFF754FF0DAA11A915A8FFF7A9FE15A9A1
:102D6000204618F013FF15A818F0E2FD0DA818F082
:102D7000DFFD11A818F0DCFD744911A818F018FE49
:102D8000734B03F10C0207CA8DE807000DA80ECBA8
:102D9000FFF734FF0DAA11A915A8FFF789FE15A9A1
:102DA000204618F0F3FE15A818F0C2FD0DA818F083
:102DB000BFFD11A818F0BCFD664911A818F0F8FD78
:102DC000654B0A2219780DA818F038FE0DAA11A932
:102DD00015A8FFF76DFE15A9204618F0D7FE15A817
:102DE00018F0A6FD0DA818F0A3FD11A818F0A0FD7D
:102DF0005A4911A818F0DCFD594B0A2219680DA890
:102E000018F01CFE0DAA11A915A8FFF751FE15A96F
:102E1000204618F0BBFE15A818F08AFD0DA818F082
:102E200087FD11A818F084FD4E4911A818F0C0FDC7
:102E30004D4B0A2219680DA818F000FE0DAA11A921
:102E400015A8FFF735FE15A9204618F09FFE15A816
:102E500018F06EFD0DA818F06BFD11A818F068FDB4
:102E6000424911A818F0A4FD414B0A2219680DA887
:102E700018F0E4FD0DAA11A915A8FFF719FE15A970
:102E8000204618F083FE15A818F052FD0DA818F082
:102E90004FFD11A818F04CFD364911A818F088FD17
:102EA000354B0A2219780DA818F0C8FD0DAA11A9F2
:102EB00015A8FFF7FDFD15A9204618F067FE15A817
:102EC00018F036FD0DA818F033FD11A818F030FDEC
:102ED0002A4911A818F06CFD294B0A2219680DA87F
:102EE00018F0ACFD0DAA11A915A8FFF7E1FD15A971
:102EF000204618F04BFE15A818F01AFD0DA818F082
:102F000017FD11A818F014FD1E4911A818F050FD66
:102F10001D4B0A2219780DA818F090FD0DAA35E076
:102F200068F50600903CFF1F74F50600381EFF1F71
:102F300084F506003C1EFF1F98F50600DC08002003
:102F4000A4F5060084070020B8F50600C4F50600C5
:102F5000F0080020D8F5060088090020E8F50600F2
:102F60002C1EFF1FFCF506001C1EFF1F10F606009E
:102F7000183EFF1F20F606004807002028F606002E
:102F8000401EFF1F40F60600C83DFF1F11A915A8EF
:102F9000FFF78EFD15A9204618F0F8FD15A818F0CA
:102FA000C7FC0DA818F0C4FC11A818F0C1FCB64964
:102FB00011A818F0FDFCB54B03F10C0207CA8DE80F
:102FC00007000DA80ECBFFF7DBFD0DAA11A915A870
:102FD000FFF76EFD15A9204618F0D8FD15A818F0CA
:102FE000A7FC0DA818F0A4FC11A818F0A1FCA84992
:102FF00011A818F0DDFCA74B03F10C0207CA8DE8FD
:1030000007000DA80ECBFFF7BBFD0DAA11A915A84F
:10301000FFF74EFD15A9204618F0B8FD15A818F0C9
:1030200087FC0DA818F084FC11A818F081FC9A49BF
:1030300011A818F0BDFC994B03F10C0207CA8DE8EA
:1030400007000DA80ECBFFF79BFD0DAA11A915A82F
:10305000FFF72EFD15A9204618F098FD15A818F0C9
:1030600067FC0DA818F064FC11A818F061FC8C49ED
:1030700011A818F09DFC8B4B03F10C0207CA8DE8D8
:1030800007000DA80ECBFFF77BFD0DAA11A915A80F
:10309000FFF70EFD15A9204618F078FD15A818F0C9
:1030A00047FC0DA818F044FC11A818F041FC7E491B
:1030B00011A818F07DFC7D4B03F10C0207CA8DE8C6
:1030C00007000DA80ECBFFF75BFD0DAA11A915A8EF
:1030D000FFF7EEFC15A9204618F058FD15A818F0CA
:1030E00027FC0DA818F024FC11A818F021FC704949
:1030F00011A818F05DFC6F4B03F10C0207CA8DE8B4
:1031000007000DA80ECBFFF73BFD0DAA11A915A8CE
:10311000FFF7CEFC15A9204618F038FD15A818F0C9
:1031200007FC0DA818F004FC11A818F001FC336886
:10313000002B3CDD604F0025604909A818F038FCE1
:103140000A22294605A818F079FC05A909A818F053
:1031500053FD014611A818F03FFC05EB850307EB72
:10316000830303F10C0292E803008DE803000DA82D
:103170000ECBFFF7C7FC0DAA11A915A8FFF798FC05
:1031800015A9204618F002FD15A818F0D1FB0DA8CE
:1031900018F0CEFB11A818F0CBFB05A818F0C8FB5F
:1031A00009A818F0C5FB33680135AB42C4DC4449BB
:1031B00011A818F0FDFB434B03F10C0292E8030049
:1031C0008DE803000DA80ECBFFF79CFC0DAA11A9FA
:1031D00015A8FFF76DFC15A9204618F0D7FC15A817
:1031E00018F0A6FB0DA818F0A3FB11A818F0A0FB7F
:1031F000354911A818F0DCFB344B0A2219780DA8C8
:1032000018F01CFC0DAA11A915A8FFF751FC15A96F
:10321000204618F0BBFC15A818F08AFB0DA818F082
:1032200087FB11A818F084FB29490DA818F0C0FBF2
:10323000284911A818F0D0FB11AA0DA915A8FFF76D
:1032400037FC15A9204618F0A1FC15A818F070FB52
:1032500011A818F06DFB0DA818F06AFB1E490DA807
:1032600018F0A6FB1D4911A818F0B6FB11AA0DA96C
:1032700015A8FFF71DFC15A9204618F087FC15A816
:1032800018F056FB2CE000BF50F60600B03CFF1FC4
:1032900064F60600183DFF1F7CF60600D8040020E7
:1032A00094F60600643CFF1FACF60600AC41FF1F1D
:1032B000C0F6060060F8FF1F243EFF1F28F8060036
:1032C000D0F60600B0040020DCF6060094080020CA
:1032D000E8F6060090050020FCF606003836FF1FD1
:1032E00011A818F025FB0DA818F022FBB2490DA873
:1032F00018F05EFBB14911A818F06EFB11AA0DA9D8
:1033000015A8FFF7D5FB15A9204618F03FFC15A816
:1033100018F00EFB11A818F00BFB0DA818F008FB15
:10332000A7490DA818F044FBA64911A818F054FBB2
:1033300011AA0DA915A8FFF7BBFB15A9204618F087
:1033400025FC15A818F0F4FA11A818F0F1FA0DA848
:1033500018F0EEFA9C4911A818F02AFB9B4B0A22A0
:1033600019680DA818F06AFB0DAA11A915A8FFF796
:103370009FFB15A9204618F009FC15A818F0D8FAEB
:103380000DA818F0D5FA11A818F0D2FA904911A892
:1033900018F00EFB8F4B0A2219680DA818F04EFB8F
:1033A0000DAA11A915A8FFF783FB15A9204618F04F
:1033B000EDFB15A818F0BCFA0DA818F0B9FA11A881
:1033C00018F0B6FA844911A818F0F2FA834B18687D
:1033D0001DF05EFA0B460246814915A81EF012FE4A
:1033E00015A90DA818F0E4FA0DAA11A915A8FFF760
:1033F0005FFB15A9204618F0C9FB15A818F098FA2C
:103400000DA818F095FA11A818F092FA754911A8AC
:1034100018F0CEFA744B18681DF03AFA0B460246C3
:103420006F4915A81EF0EEFD15A90DA818F0C0FAF9
:103430000DAA11A915A8FFF73BFB15A9204618F006
:10344000A5FB15A818F074FA0DA818F071FA11A8C8
:1034500018F06EFA654911A818F0AAFA644B1868BA
:103460001DF016FA0B4602465D4915A81EF0CAFD6E
:1034700015A90DA818F09CFA0DAA11A915A8FFF717
:1034800017FB15A9204618F081FB15A818F050FA73
:103490000DA818F04DFA11A818F04AFA554911A8CC
:1034A00018F086FA544B18681DF0F2F90B460246E4
:1034B0004B4915A81EF0A6FD15A90DA818F078FA1D
:1034C0000DAA11A915A8FFF7F3FA15A9204618F0BF
:1034D0005DFB15A818F02CFA0DA818F029FA11A810
:1034E00018F026FA454911A818F062FA444B1868FA
:1034F0001DF0CEF90B460246394915A81EF082FD93
:1035000015A90DA818F054FA0DAA11A915A8FFF7CE
:10351000CFFA15A9204618F039FB15A818F008FABB
:103520000DA818F005FA11A818F002FA354911A8EB
:1035300018F03EFA344B18681DF0AAF90B46024603
:10354000274915A81EF05EFD15A90DA818F030FA40
:103550000DAA11A915A8FFF7ABFA15A9204618F076
:1035600015FB15A818F0E4F90DA818F0E1F911A859
:1035700018F0DEF9254911A818F01AFA244B0A228E
:1035800019780DA818F05AFA0DAA11A915A8FFF775
:103590008FFA15A9204618F0F9FA15A818F0C8F9FD
:1035A0000DA818F0C5F911A818F0C2F9194911A809
:1035B00018F0FEF930E000BF10F706003C37FF1F9F
:1035C0001CF70600083EFF1F2CF706005041FF1FA6
:1035D00038F706002441FF1F44F706003437FF1F69
:1035E00054F5060054F70600A40500205CF7060019
:1035F000003EFF1F64F706005C0900206CF7060020
:103600007C07002078F706005809002084F70600A0
:10361000D80800208CF706007D4B0A2219780DA8E7
:1036200018F00CFA0DAA11A915A8FFF741FA15A96F
:10363000204618F0ABFA15A818F07AF90DA818F082
:1036400077F911A818F074F9724911A818F0B0F9B7
:10365000714B022193ED000A0DA818F017FA0DAA7C
:1036600011A915A8FFF724FA15A9204618F08EFA1B
:1036700015A818F05DF90DA818F05AF911A818F05E
:1036800057F9664911A818F093F9654B022193ED9B
:10369000000A0DA818F0FAF90DAA11A915A8FFF74C
:1036A00007FA15A9204618F071FA15A818F040F984
:1036B0000DA818F03DF911A818F03AF9594911A8C8
:1036C00018F076F9584B0A2219680DA818F0B6F9C7
:1036D0000DAA11A915A8FFF7EBF915A9204618F0B6
:1036E00055FA15A818F024F90DA818F021F911A819
:1036F00018F01EF94D4911A818F05AF94C4B0A223E
:1037000019680DA818F0AEF90DAA11A915A8FFF7B0
:10371000CFF915A9204618F039FA15A818F008F9BC
:103720000DA818F005F911A818F002F9414911A8DF
:1037300018F03EF9404B0A2219780DA818F07EF9CE
:103740000DAA11A915A8FFF7B3F915A9204618F07D
:103750001DFA15A818F0ECF80DA818F0E9F811A852
:1037600018F0E6F835490DA818F022F9344911A8E7
:1037700018F032F911AA0DA915A8FFF799F915A9A2
:10378000204618F003FA15A818F0D2F811A818F07E
:10379000CFF80DA818F0CCF82A490DA818F008F9B0
:1037A000294911A818F018F911AA0DA915A8FFF7B1
:1037B0007FF915A9204618F0E9F915A818F0B8F80E
:1037C00011A818F0B5F80DA818F0B2F81F4911A803
:1037D00018F0EEF81E4B0A2219780DA818F02EF9F1
:1037E0000DAA11A915A8FFF763F915A9204618F02D
:1037F000CDF915A818F09CF80DA818F099F811A8A3
:1038000018F096F82046134918F0C4F91BB0F0BD23
:10381000F83DFF1F9CF706000036FF1FB0F70600BB
:103820009C41FF1FC4F70600443CFF1FC8F7060079
:10383000D4060020DCF706008C3CFF1FF0F70600E2
:10384000E035FF1F00F80600CC35FF1F10F806001A
:10385000580700201CF806002DE9F043A7B00546E4
:1038600001461AA818F0B8F8B149DFF82883B14F1B
:10387000DFF824931EA818F09BF81EAA1AA922A804
:10388000FFF7C8F822A818F07DFAAB4B186022A801
:1038900018F04EF81EA818F04BF81AA818F048F8BF
:1038A00029461AA818F098F8A4491EA818F080F81C
:1038B0001EAA1AA922A8FFF7ADF822A818F062FAEA
:1038C0009F4B186022A818F033F81EA818F030F8A3
:1038D0001AA818F02DF829461AA818F07DF8994969
:1038E0001EA818F065F81EAA1AA922A8FFF792F8D8
:1038F00022A818F047FA944B186022A818F018F87C
:103900001EA818F015F81AA818F012F829461AA8D7
:1039100018F062F88D491EA818F04AF81EAA1AA9D4
:1039200022A8FFF777F822A9894818F0E5F822A81D
:1039300017F0FEFF1EA817F0FBFF1AA817F0F8FFFC
:1039400029461AA818F048F882491EA818F030F83D
:103950001EAA1AA922A8FFF75DF822A97E4818F02E
:10396000CBF822A817F0E4FF1EA817F0E1FF1AA871
:1039700017F0DEFF29461AA818F02EF877491EA87E
:1039800018F016F80CAE1EAA1AA922A8FFF742F8E2
:1039900022A93046FEF744FF0FCE44460FC496E8F6
:1039A000030084E8030022A817F0C2FF1EA817F046
:1039B000BFFF1AA817F0BCFF29461AA818F00CF888
:1039C00067491EA817F0F4FF1EAA1AA922A8FFF73C
:1039D00021F80CAC22A90CA8FEF722FF0FCC614CF9
:1039E0000FC496E8030084E8030022A817F0A0FFA4
:1039F0001EA817F09DFF1AA817F09AFF29461AA8CB
:103A000017F0EAFF58491EA817F0D2FF1EAA1AA9FC
:103A100022A8FEF7FFFF22A8FEF7E2FE387022A8D8
:103A200017F086FF1EA817F083FF1AA817F080FF73
:103A300029461AA817F0D0FF4C491EA817F0B8FF66
:103A40001EAA1AA922A8FEF7E5FF22A818F09AF9E3
:103A5000474B186022A817F06BFF1EA817F068FFED
:103A60001AA817F065FF29461AA817F0B5FF4149B3
:103A70001EA817F09DFF1EAA1AA922A8FEF7CAFFCA
:103A800022A818F07FF93C4B186022A817F050FFCD
:103A90001EA817F04DFF1AA817F04AFF29461AA8CA
:103AA00017F09AFF35491EA817F082FF1EAA1AA91F
:103AB00022A8FEF7AFFF22A818F064F9C9F80000A9
:103AC00022A817F035FF1EA817F032FF1AA817F02A
:103AD0002FFF3B781BB92A4BD9F800201A602946E2
:103AE0001AA817F079FF2749274C1EA817F060FF86
:103AF0001EAA1AA922A8FEF78DFF22A8FEF770FEC3
:103B0000224B187022A817F013FF1EA817F010FF01
:103B10001AA817F00DFF29461AA817F05DFF1C49D7
:103B20001EA817F045FF1EAA1AA922A836E000BF5A
:103B300074F5060088090020381EFF1F84F5060072
:103B40003C1EFF1F28F60600401EFF1F98F50600CA
:103B5000DC080020A4F5060084070020B8F5060064
:103B6000C4F50600F0080020D8F50600E8F50600C8
:103B70002C1EFF1FFCF506001C1EFF1F10F6060082
:103B8000A040FF1F20F60600B03CFF1F48070020A2
:103B900040F60600903CFF1F183EFF1FFEF73AFF5D
:103BA00022A8FEF71DFEB64B187022A817F0C0FE23
:103BB0001EA817F0BDFE1AA817F0BAFE29461AA8CB
:103BC00017F00AFFAF491EA817F0F2FE06AE1EAAB4
:103BD0001AA922A8FEF71EFF3046052222A9FEF7E9
:103BE0005FFE0FCE0FC496E8030084E8030022A80E
:103BF00017F09EFE1EA817F09BFE1AA817F098FE5D
:103C000029461AA817F0E8FE9F491EA817F0D0FE13
:103C10001EAA1AA922A8FEF7FDFE06AC06A80522D8
:103C200022A9FEF73DFE0FCC984C0FC496E8030086
:103C300084E8030022A817F07BFE1EA817F078FE88
:103C40001AA817F075FE29461AA817F0C5FE904964
:103C50001EA817F0ADFE1EAA1AA922A8FEF7DAFECA
:103C600006AC06A8052222A9FEF71AFE0FCC894C45
:103C70000FC496E8030084E8030022A817F058FE5A
:103C80001EA817F055FE1AA817F052FE29461AA8CA
:103C900017F0A2FE80491EA817F08AFE1EAA1AA9D4
:103CA00022A8FEF7B7FE06AC06A8052222A9FEF759
:103CB000F7FD0FCC794C0FC496E8030084E80300AD
:103CC00022A817F035FE1EA817F032FE1AA817F02A
:103CD0002FFE29461AA817F07FFE71491EA817F07B
:103CE00067FE1EAA1AA922A8FEF794FE06AC06A833
:103CF000D8F8002022A9FEF7D3FD0FCC694C0FC4E1
:103D000096E8030084E8030022A817F011FE1EA81D
:103D100017F00EFE1AA817F00BFE29461AA817F086
:103D20005BFE61491EA817F043FE1EAA1AA922A82D
:103D3000FEF770FE06AC06A8D8F8002022A9FEF710
:103D4000AFFD0FCC594C0FC496E8030084E8030084
:103D500022A817F0EDFD1EA817F0EAFD1AA817F02B
:103D6000E7FDD8F80030002B40F36A83DFF8589164
:103D700000266F4629461AA817F02EFE4C4916A8B1
:103D800017F016FE0A22314612A817F057FE12A9A4
:103D900016A817F031FF01461EA817F01DFE1EAA37
:103DA0001AA922A8FEF736FE22A93846FEF7F6FD2C
:103DB000BE46BEE80F0006EB860409EB84040FC480
:103DC00022A8DEF80030236017F0B2FD1EA817F01D
:103DD000AFFD12A817F0ACFD16A817F0A9FD1AA8A0
:103DE00017F0A6FDD8F800300136B342C2DC2946F0
:103DF0001AA817F0F1FD2F492F4C1EA817F0D8FD77
:103E00001EAA1AA922A8FEF705FE22A93846FEF727
:103E1000C5FD0FCF3E680FC422A8266017F088FDAD
:103E20001EA817F085FD1AA817F082FD29461AA8CA
:103E300017F0D2FD21491EA817F0BAFD1EAA1AA933
:103E400022A8FEF7E7FD22A8FEF7CAFC1C4B18705B
:103E500022A817F06DFD1EA817F06AFD1AA817F02A
:103E600067FD29461AA817F0B7FD16491EA817F0D6
:103E70009FFD1EAA1AA922A8FEF7CCFD22A925E0C3
:103E8000C83DFF1F50F6060064F60600183DFF1FF0
:103E90007CF60600D804002094F60600643CFF1F60
:103EA000ACF60600AC41FF1FC0F6060060F8FF1F2D
:103EB00028F80600D0F60600B0040020DCF6060064
:103EC00094080020E8F60600243EFF1FB24817F0D1
:103ED00013FE22A817F02CFD1EA817F029FD1AA822
:103EE00017F026FD29461AA817F076FDAB491EA843
:103EF00017F05EFD1EAA1AA922A8FEF78BFD22A9C3
:103F0000A74817F0F9FD22A817F012FD1EA817F018
:103F10000FFD1AA817F00CFD29461AA817F05CFD32
:103F2000A0491EA817F044FD1EAA1AA922A8FEF750
:103F300071FD22A99C4817F0DFFD22A817F0F8FCBC
:103F40001EA817F0F5FC1AA817F0F2FC974996483E
:103F500017F08CFE002800F06A82954B01221A604F
:103F600029461AA817F038FD9249934C934F944E66
:103F70001EA817F01DFD1EAA1AA922A8FEF74AFDC9
:103F800022A9904817F0B8FD22A817F0D1FC1EA86E
:103F900017F0CEFC1AA817F0CBFC29461AA817F088
:103FA0001BFD89491EA817F003FD1EAA1AA922A805
:103FB000FEF730FD22A817F0E5FE844B186022A81A
:103FC00017F0B6FC1EA817F0B3FC1AA817F0B0FC47
:103FD00029461AA817F000FD7D491EA817F0E8FC35
:103FE0001EAA1AA922A8FEF715FD22A817F0CAFEDC
:103FF000784B186022A817F09BFC1EA817F098FCBD
:104000001AA817F095FC29461AA817F0E5FC724982
:104010001EA817F0CDFC1EAA1AA922A8FEF7FAFCCA
:104020002298002808BF20461DF05AF951EC100BC9
:104030001CF07AFF386022A817F07AFC1EA817F04F
:1040400077FC1AA817F074FC29461AA817F0C4FCCC
:104050006249634F1EA817F0ABFC1EAA1AA922A83A
:10406000FEF7D8FC2298002808BF20461DF038F93A
:1040700051EC100B1CF058FF306022A817F058FCD0
:104080001EA817F055FC1AA817F052FC29461AA8CA
:1040900017F0A2FC5349544E1EA817F089FC1EAA23
:1040A0001AA922A8FEF7B6FC2298002808BF2046CD
:1040B0001DF016F951EC100B1CF036FF386022A8E9
:1040C00017F036FC1EA817F033FC1AA817F030FCC6
:1040D00029461AA817F080FC4449454F1EA817F03E
:1040E00067FC1EAA1AA922A8FEF794FC22980028B1
:1040F00008BF20461DF0F4F851EC100B1CF014FF23
:10410000306022A817F014FC1EA817F011FC1AA8A2
:1041100017F00EFC29461AA817F05EFC3549364EFA
:104120001EA817F045FC1EAA1AA922A8FEF772FCC9
:104130002298002808BF20461DF0D2F851EC100B41
:104140001CF0F2FE386022A817F0F2FB1EA817F050
:10415000EFFB1AA817F0ECFB29461AA817F03CFC55
:1041600026491EA817F024FC1EAA1AA922A8FEF7A9
:1041700051FC2298002808BF20461DF0B1F851ECF0
:10418000100B1CF0D1FE306022A817F0D1FB1EA846
:1041900017F0CEFB1AA833E090050020FCF60600CD
:1041A0003836FF1F10F706003C37FF1F38F80600AF
:1041B0007441FF1F1CF70600C83007003437FF1F8B
:1041C000A4050020083EFF1F2CF706005041FF1FEA
:1041D00038F706002441FF1F44F7060054F7060095
:1041E000003EFF1F5CF706005C09002064F7060034
:1041F0007C0700206CF706005809002078F70600BD
:1042000017F096FB29461AA817F0E6FBA049A14C27
:104210001EA817F0CDFB1EAA1AA922A8FEF7FAFBCA
:1042200022A8FEF7DDFA9C4B187022A817F080FB3D
:104230001EA817F07DFB1AA817F07AFB29461AA8CA
:1042400017F0CAFB95491EA817F0B2FB1EAA1AA9BF
:1042500022A8FEF7DFFB22A8FEF7C2FA904B1870E7
:1042600022A817F065FB1EA817F062FB1AA817F02A
:104270005FFB29461AA817F0AFFB8A491EA817F062
:1042800097FB1EAA1AA922A8FEF7C4FB22A98648FA
:1042900017F032FC22A817F04BFB1EA817F048FBC2
:1042A0001AA817F045FB29461AA817F095FB7F4975
:1042B0001EA817F07DFB1EAA1AA922A8FEF7AAFBCA
:1042C00022A97B4817F018FC22A817F031FB1EA882
:1042D00017F02EFB1AA817F02BFB29461AA817F087
:1042E0007BFB74491EA817F063FB1EAA1AA922A81B
:1042F000FEF790FB22A817F04BFD6F4B22A883ED31
:10430000000A17F015FB1EA817F012FB1AA817F0E9
:104310000FFB29461AA817F05FFB68491EA817F083
:1043200047FB1EAA1AA922A8FEF774FB22A817F0C1
:104330002FFD634B22A883ED000A17F0F9FA1EA89F
:1043400017F0F6FA1AA817F0F3FA29461AA817F088
:1043500043FB5C491EA817F02BFB1EAA1AA922A832
:10436000FEF758FB22A817F00DFD574B186022A846
:1043700017F0DEFA1EA817F0DBFA1AA817F0D8FA21
:1043800029461AA817F028FB50491EA817F010FB61
:104390001EAA1AA922A8FEF73DFB22A817F0F2FCDC
:1043A0004B4B186022A817F0C3FA1EA817F0C0FAEA
:1043B0001AA817F0BDFA29461AA817F00DFB4549AF
:1043C0001EA817F0F5FA1EAA1AA922A8FEF722FBCA
:1043D00022A8FEF705FA404B187022A817F0A8FA99
:1043E0001EA817F0A5FA1AA817F0A2FA29461AA8CB
:1043F00017F0F2FA39491EA817F0DAFA1EAA1AA91C
:1044000022A8FEF707FB22A8FEF7EAF9207022A8EF
:1044100017F08EFA1EA817F08BFA1AA817F088FA70
:104420002F4B22781A70012027B0BDE8F0832D4968
:104430002D4817F01BFC28B12C4B02221A608FE587
:104440006F46D4E42A49284817F010FC18B1274BCE
:1044500003221A6084E52749234817F007FC18B1A6
:10446000224B04221A607BE523491F4817F0FEFB0C
:1044700018B11E4B05221A6072E520491A4817F040
:10448000F5FB1A4B10B106221A6069E5186067E562
:1044900084F7060058070020D80800208CF7060093
:1044A000F83DFF1FF0F70600E035FF1F00F806009B
:1044B000CC35FF1F9CF706000036FF1FB0F7060043
:1044C0009C41FF1FC4F70600443CFF1FC8F70600CD
:1044D000D4060020DCF706008C3CFF1F10F8060015
:1044E0005C41FF1F40F806003C37FF1F7441FF1F6F
:1044F0004CF8060058F8060064F8060070F806004C
:1045000070B58CB00146064604A817F065FA1B4941
:1045100008A817F04DFA08AA04A96846FEF77AFA27
:1045200008A817F005FA04A817F002FA029C64B173
:1045300000252C462946684617F0AEFB029B027800
:10454000013514449D4224B2F4D30D49304617F08E
:1045500021FB1022214608A817F070FA08A930465E
:1045600017F014FB08A817F0E3F90649304617F0D6
:1045700011FB684617F0DCF90CB070BD74F806004A
:104580007CF8060088F806004B4BDFED4C7A93ED83
:10459000007AB5EEC07AF1EE10FACCBF0123002309
:1045A0004CBF01220022A3EB020306EE903A72DD1B
:1045B00067EE277AB0EE476A27EE877ADFED407A1A
:1045C000A6EE277AF7EE007AB4EEE77AF1EE10FA6B
:1045D00068DDB0EE677A3B4BDFED3B5AD3ED007AF6
:1045E0009FED3A6AF8EEE66A67EEA57A66EE876AAC
:1045F000B7EE007AE6EE867ADFED356AC3ED007A33
:1046000037EEC77AB5EEC07AF1EE10FAD8BFB1EE48
:10461000477AB4EEE67AF1EE10FA08DCDFED2D6AA7
:10462000B4EEE67AF1EE10FA21D52B4B00E02B4BDD
:104630002B4AB7EE007A77EE877A9FED257A936161
:10464000F5EEC07AF1EE10FAD8BFF1EE677AF4EE2B
:10465000C77AF1EE10FA1ADC9FED1E7AF4EEC77AF3
:10466000F1EE10FA0AD51F4A1B4B93617047F0EE2A
:10467000476AFEEEC86A16EE903AD9E7B0EE677A5E
:10468000BEEEC87A174A17EE103A93617047154A82
:10469000124B93617047B1EE476A26EE277A27EEF8
:1046A000067A8BE7B5EE407ADFED0F7AF1EE10FA7D
:1046B00048BFB0EE677A8EE7803CFF1FDDA4B9C229
:1046C0003333A041141EFF1F6666663FCDCCCC3D40
:1046D00000FEFF4600FEFFC6000001800000FF7FD5
:1046E000D43CFF1F0C78FF1F00000000FFFFFFFFFE
:1046F0002DE9F04FCF4BD04E93ED000AD6ED007A66
:10470000CE48CF4DCF4CDFF87CA32DED0C8B30EE97
:10471000670A93B010F006FFC8489FEDCBDADFEDD3
:10472000CBAA9FEDCBAADFEDCBBA10F03DFFCA4B71
:10473000DFEDCA6A83ED000ABE4BDFEDC97A1B6864
:104740003360C84BC84893ED006ABA4B86EE267AB0
:10475000B7EE009AF0EE496AE7EE276A93ED000A99
:1047600026EE800A20EE0D0A10F0DCFEBE4810F0A6
:104770001BFFBE4BBE4AD3ED007A82ED000A67EE06
:10478000AA7A2E6817EE900A1CF082F841EC100B02
:1047900041EC1C0B17F074FFB64BD4F80080D3ED3E
:1047A000007A67EEAA7A8DED000B17EE900A1CF0E6
:1047B0006FF841EC100B41EC180B17F061FF8DED19
:1047C000020BB0EE4C0AF0EE6C0A17F069FE8DEDAC
:1047D000040BB0EE480AF0EE680A17F061FE86F0AE
:1047E00000408DED060B1CF053F8DDE900231CF0B2
:1047F000A3F8064640460F461CF04AF8DDE90223BE
:104800001CF09AF8DDE904231CF096F802460B46EA
:10481000304639461BF0DEFEDAF800800646404698
:104820000F461CF035F8DDE9068942464B461CF080
:1048300083F8DDE904231CF07FF802460B4630467E
:1048400039461BF0C7FE1CF06FFB002208EE100A71
:104850000023404649461CF06FF8DDE90067CDE9CA
:104860000C0102460B46304639461CF065F8DDE97E
:1048700002231BF0ADFE0022CDE9080100233046E3
:104880003946CDE900671CF057F8DDE902231CF03A
:1048900053F842464B46CDE906891BF09BFED5F8FE
:1048A0000090D4F800B0DAF80080064658460F466B
:1048B0001BF0EEFF02460B46304639461CF03CF832
:1048C000064648460F461BF0E3FFDDE904231CF0D3
:1048D00033F8002200231CF02FF802460B46304626
:1048E00039461BF077FE064640460F461BF0D0FFC8
:1048F000DDE908231CF020F802460B463046394615
:104900001BF068FE1CF010FBDDE90289DDE90067A1
:1049100042464B4609EE900A394630461CF00CF8E8
:104920000022CDE90A01002340464946CDE902892B
:104930001CF002F8DDE906238046894630463946F8
:10494000CDE900671BF0F8FF42464B46CDE90E89E2
:104950001BF040FE2E68D4F80080DAF800708B4619
:104960008246DDE90C23DDE90A011BF031FE044635
:1049700040460D461BF08CFF02460B46204629465A
:104980001BF0DAFF044630460D461BF081FFDDE9DF
:10499000048942464B461BF0CFFF02460B46204699
:1049A00029461BF017FE044638460D461BF070FFE3
:1049B00052465B46CDE910AB1BF0BEFF02460B46EC
:1049C000204629461BF006FE1CF0AEFA2A4B2B4A65
:1049D000D3ED007A2A4B166893ED00BA67EE8A7A17
:1049E00008EE900A17EE900A1BF052FF0A460146A5
:1049F0001346CDE90C12024649464046CDE90489EA
:104A00001BF09AFF044630460D461BF041FF6BEE4B
:104A10000A7A804617EE900A89461BF039FF002279
:104A200082468B464FF00043DDE90A011BF084FF0C
:104A30002AE000BF0878FF1F5C36FF1FF836FF1F13
:104A40003841FF1F580800209AB2033F39FA8E3CC4
:104A500085EB913F7FD6D03D0042FF1F00007A4496
:104A60000AD7A33C7C41FF1F6C36FF1F7C07002048
:104A7000A041FF1F5809002078F8FF1F7CF8FF1F96
:104A800080F8FF1F5441FF1FDDE906231BF054FF90
:104A900042464B461BF050FF22462B461BF09AFD28
:104AA000524606460F465B46DDE910011BF044FF07
:104AB00002460B46304639461BF08CFD1CF034FA9A
:104AC000DDE90E230CEE900ADDE900011BF034FF56
:104AD000DDE906231BF07EFD42464B461BF02CFF12
:104AE000002206460F460023204629461BF024FFDD
:104AF00002460B46304639461BF06CFD52460446D2
:104B00000D465B46DDE908011BF016FF02460B4629
:104B1000204629461BF05EFD1CF006FADDE9003454
:104B20000BEE100A04F100411846DDE90C231BF0DE
:104B300003FF424604460D464B46DDE902011BF0E9
:104B4000FBFEDDE9046732463B461BF0F5FE0246FC
:104B50000B46204629461BF03DFD524604460D46B5
:104B60005B46304639461BF0E7FEDDE906231BF0C5
:104B7000E3FE02460B46204629461BF02BFD1CF0A7
:104B8000D3F9B0EE6C0A0CEE100AA748A74EA84D58
:104B9000A84C10F0C7FCA44810F006FDA64BA7488F
:104BA00083ED000AB0EE4B0A10F0BCFCA34810F0F5
:104BB000FBFCA34BA34883ED000AB0EE4C0A10F0B7
:104BC000B1FCA04810F0F0FC9F4BA048D3ED007A58
:104BD0009F4B89EE277A83ED000A9E4BD3ED007A36
:104BE0009D4B67EE8D7AB0EE680A87EE87DA93ED1B
:104BF00000AA93ED009A10F095FC944810F0D4FCB4
:104C0000964B974883ED000AD3ED007AEDEE6B7A70
:104C1000B0EE690AC6ED007A10F084FC904810F0FE
:104C2000C3FC904B904883ED000A6CEE0A7A93ED3A
:104C3000007A6AEEE77AB0EE480AA7EEAB7A85ED25
:104C4000007A10F06FFC884810F0AEFC874A884B61
:104C500082ED000A6BEE097A92ED007A67EEAA7A8D
:104C6000B0EE4C1AA7EEAB7A2046F0EE4B0A83ED7D
:104C7000007AD6ED001A95ED002AD3ED002A7D4D7D
:104C8000B0EE6C0AFBF780FD94F82430002B00F0A6
:104C90008C80D5ED007ADFED785A94ED076A9FEDB0
:104CA000777ADFED776A67EEA57A27EE467AE7EE48
:104CB000267AC5ED007A94ED035AD4ED045AD4ED6A
:104CC000024A94ED017A6F4A94ED062A92ED006A49
:104CD000DFED691A9FED694ADFED692A6A4B5A498F
:104CE0009FED6A3A91ED001ADFED693A694C6A4925
:104CF0006A4865EE257A64EEE46AE7EE247AE7EE28
:104D0000076A25EE477AE5EE456AA4EEA57A77EEC6
:104D1000A77A37EE077A67EEA97AE5EEA56AE8EE9C
:104D2000877A26EE217AE8EE267A64EE426AB7EEBA
:104D3000006AA6EEA27A77EEC67A82ED007A584A29
:104D4000C3ED007A92ED000AD3ED000A224686EE0A
:104D5000011A20EE030A60EEA30AFBF7A5FB514BF4
:104D600093ED007AF3EE097AB4EEE77AF1EE10FAF9
:104D700044BF00232360384BD3ED007AF5EE407A30
:104D8000F1EE10FA4FF000022DD1474B1A60D5ED2D
:104D9000007A93ED007A454B77EEC77AC3ED007A3F
:104DA00013B0BDEC0C8BBDE8F08F2046FBF720FE66
:104DB000D5ED007ADFED305A94ED076A9FED2F7A3A
:104DC000DFED2F6A94F8243067EEA57A27EE467A55
:104DD000E7EE267AC5ED007A002B7FF46CAF204613
:104DE000FBF706FE67E794ED007AD3ED007AC7EE95
:104DF000276A16EE900A1BF04BFD41EC100B17F0E2
:104E00009FFC07A3D3E9002351EC100B1BF094FD8A
:104E10001CF08AF8244B1860B9E700BFAFF300809C
:104E2000000000C0DCA54C408036FF1F4836FF1F45
:104E30001841FF1F0836FF1FB80600207409002024
:104E4000A83CFF1F80080020641EFF1FF0090020FF
:104E50005841FF1F0042FF1FA041FF1F1041FF1FCD
:104E6000F83CFF1F803CFF1F60080020183CFF1F1C
:104E70007041FF1F0442FF1FF6F5753FE12E6542AA
:104E8000A1A0203D143DFF1F7C3CFF1FBF0E9C3E98
:104E90000AE81C411C42FF1F5437FF1F5405002025
:104EA0007C41FF1F0878FF1F2C78FF1F2442FF1F43
:104EB00021EE011A10B5A0EEA01A2DED028B11EE15
:104EC000100A10EE104A1BF0E3FC41EC100B17F037
:104ED00043FF2046B0EE408AF0EE608A1BF0D8FC1B
:104EE000B0EE481AF0EE681A41EC100B17F08AFC8D
:104EF00007A3D3E9002351EC100B1BF01DFD1CF0A0
:104F000013F8BDEC028B00EE100A10BDAFF3008069
:104F1000000000C0DCA54C4021EE011A10B5A0EE47
:104F2000001A2DED028B11EE100A10EE904A1BF0C4
:104F3000AFFC41EC100B17F00FFF2046B0EE408A9B
:104F4000F0EE608A1BF0A4FCB0EE481AF0EE681A8E
:104F500041EC100B17F056FC07A3D3E9002351ECEA
:104F6000100B1BF0E9FC1BF0DFFFBDEC028B00EE29
:104F7000100A10BDAFF30080000000C0DCA54C405B
:104F80002DE9F041ACB004463F49DFF8088168469E
:104F900016F00EFD002122460B4618A88DF81410BD
:104FA0008DF81C10169117914FF47A753749384CCB
:104FB000069504940CF006FF9DF864308DF81430CB
:104FC0001A9B06931CA99DF86C308DF81C3008A81C
:104FD0000CF0F2FD1CA8CDF860800CF0D9FD1698FD
:104FE00000284CD06FF00046002778B303781A07EA
:104FF00019D408A80CF0CCFD694618A816F0ECFCF2
:1050000018A8FEF729FC044618A816F091FC08A879
:10501000CDF810800CF0BCFD684616F089FC2046E7
:105020002CB0BDE8F081C26943699A42E1D0012207
:1050300018A90AF099FF01280CBF9DF86010FF2104
:10504000684616F0B5FD16980028CFD117980028AD
:10505000CFD090F831301B07CBD5D0E90423D0E96D
:105060000045121B63EB05039F4208BF964201D324
:10507000002ABED0012218A908F000FEDBE7179C29
:10508000002CAFD1C3E700BFA81307006437FF1F90
:10509000A8ED060084ED0600F0B5A9B00024024694
:1050A000204D8DF8044040F2016314A80E464FF4E1
:1050B0007A771D498DF80C4012941394009502974D
:1050C0000CF080FE9DF85C30169A9DF854408DF8E7
:1050D0000C3018A904A802928DF80440134D0CF06E
:1050E0006BFD18A814950CF053FD129B73B131465B
:1050F000684616F049FA04A80CF04AFD012404A8F9
:1051000000950CF045FD204629B0F0BD139C002C05
:10511000EDD11A21064815F061FB064816F05AFA3F
:10512000EDE700BFA8ED06006437FF1F84ED060021
:1051300094F80600502BFF1F10B588B068460A4946
:1051400016F036FC694604A816F046FC04A8FEF7E3
:1051500083FB044604A816F0EBFB684616F0E8FB58
:10516000204608B010BD00BFD8ED060030B52E4B6C
:105170001B788FB0ABB93A212C4815F02FFB2C4887
:1051800016F028FAFFF7D8FF2A4B1870002842D1F2
:105190002521294815F022FB254816F01BFA0FB0EF
:1051A00030BD264BD3F880442CB3002521462B4636
:1051B000234A8DF8005068468DF801508DF8025052
:1051C0000AF0C4FE0028D6D021211E4815F006FBA7
:1051D000174816F0FFF91A48FFF7D2FE154B187062
:1051E0000028DCD01521184815F0F8FA104816F000
:1051F000F1F90FB030BDD3F884140029BBD0234699
:105200000F4A8DF8314068468DF832408DF83340B2
:1052100009F002F9D6E71D210C4815F0DFFA044821
:1052200016F0D8F90FB030BD100A002034F906008E
:10523000502BFF1F0C42FF1F0CF906006437FF1FA5
:10524000481EFF1FB0F80600D4F80600ECF8060070
:1052500084B02DE9F0432DED028B83B00CAD9DF8A9
:105260004040012C85E80F000DD0022C5DD0032CAE
:105270003CD0002500EE105A03B0BDEC028BBDE817
:10528000F04304B0704710EE100A1BF001FB41EC34
:10529000180B00250CAE032420461BF0E7FAB0EEF5
:1052A000480AF0EE680A41EC110B56F8047B17F03F
:1052B000B7FB53EC102B3846CDE900231BF0E8FA7E
:1052C000DDE900231BF038FB8046284689461BF0A9
:1052D000DFFA0B460246494640461BF07BF91BF0BD
:1052E00023FE013C631C0546D6D1C3E70E988DED25
:1052F000000A1BF0CDFA9DED000ADDED0F7A60EE9D
:10530000277A044617EE900A0D461BF0C1FA41ECCD
:10531000100B17F079FA294653EC102B20461BF09E
:105320000BFB1BF001FE0546A4E70E988DED000A6D
:105330001BF0AEFA9DED000A044610EE100A0D4671
:105340001BF0A6FA41EC100B17F0E2FA204653ECE2
:10535000102B29461BF0F0FA04460F980D461BF05F
:1053600097FA02460B46204629461BF033F91BF0FC
:10537000DBFD05467EE700BF10B52DED028BB5EED7
:10538000C00AF1EE10FA82B05CDDC0EE807A17EE52
:10539000900A1BF07DFA314B314A1B68C2E90001CB
:1053A000002B40D007EE903AF8EEE77AB7EE007A9D
:1053B00087EE278A2B4C2C4BD2E90001246804EBA2
:1053C000840403EB84041BF0AFFD2369009300EE1B
:1053D000100A94E80F00FFF73BFF244B9FED247A5F
:1053E000D3ED006AF7EE007A77EEC87A67EEA67A18
:1053F000E8EE007AC3ED007AD3ED007AF4EEC77AD6
:10540000F1EE10FA12DD83ED007AD3ED007A174B3E
:10541000F4EE677AF1EE10FA64BF164A1A6002B031
:10542000BDEC028B10BDB7EE008AC3E793ED007AA6
:10543000FBEE047AB4EEE77AF1EE10FA48BFC3ED62
:10544000007AE2E7094A064B0A4C1460002000216A
:10545000C3E9000102B0BDEC028B10BD381EFF1F76
:10546000E841FF1F5836FF1F243EFF1FA440FF1FC7
:10547000000020420000A0C170B50D2194B05E482C
:1054800015F0ACF95D495E4816F07EF85C4816F000
:10549000A1F85C49594816F0E9FB00287BD15A492C
:1054A000564816F0E3FB00286ED15849534816F0D1
:1054B000DDFB0446002875D15549504816F0D6FB4F
:1054C000002866D0534B54481C7015F0FDFF534A1A
:1054D000534B11685348002908BF19461CF092FD30
:1054E000514BD3F88054002D69D029462346684695
:1054F0004C4A8DF800406E468DF801408DF8024010
:105500000AF024FD002854D01E21484815F066F901
:1055100044481CF0D5FF0146424815F05FF9384871
:1055200016F058F8424C3F4A3F49304600230CF0F1
:1055300049FC9DF80410029A9DF80C302171A2607C
:1055400004A9237304F110000CF036FB394B0093CF
:1055500004A80CF01DFBA36C002B43D0364B1A683B
:10556000F021197122B1354B354813441B111954E0
:10557000344B354C354A36492F481C6015F05AFFDC
:105580001F4816F027F804E0324A3349334815F033
:1055900051FF14B070BD2F4A3149324815F04AFF0F
:1055A00014B070BD304A3149314815F043FF14B092
:1055B00070BD1C4A2F49124816F028F8B2E7D3F8FC
:1055C00084146E460029F4D02B466846154A8DF89F
:1055D00031508DF832508DF8335008F01DFF0028FF
:1055E00092D1E6E7E36C002BB8D10E4A2249044879
:1055F00016F00CF8C4E700BF70F90600DC080020C4
:10560000502BFF1F80F9060088F9060090F906006C
:105610009CF906005C41FF1F3041FF1F84070020FA
:10562000C8300700100600206437FF1FACF90600E1
:105630000808002084ED06004C070020008FFCBF06
:1056400030E400E0641EFF1F00005043DF660400EA
:10565000D57F00007F4F1200D17900002006002086
:1056600099930000E8090020FF1AB700457B00006D
:105670006C090020CCF90600F8F906002DE9F04F7E
:105680002DED088BD649D748A9B016F0EFFA0028BF
:1056900040F0A081D44ED54D33681293129B2A68F6
:1056A0009B1A642B40F29681D14BDFF8D09393ED97
:1056B000008AD9ED007AF5EE407AF1EE10FA044650
:1056C00000F0E081CB4BDFEDCC7A93ED007A9FEDDB
:1056D000CB5A99ED006ADFEDCA6A67EE277AF2EEDF
:1056E000045A67EE857A87EEA57AF0EE477AE6EE01
:1056F000267AC9ED007AC34BC34A9FEDC49AD2ED16
:10570000006A93ED007ADFEDBD8ADFF874A327EE1F
:10571000097AF2EE047AA6EEA87A83ED007A93ED88
:10572000007A67EE277A17EE900A1BF0B1F841EC89
:10573000100B16F025FE51EC100B1BF0ADFBB44A1C
:10574000B44BD2ED006ADAED007A93ED007A67EEA1
:10575000897AB8EEC77AE6EEA87A8346B4EEC78AAD
:10576000F1EE10FACAED007AC0F2D080AA4BAB4A33
:1057700093ED009A93ED007AD2ED007AB4EEE77AD9
:10578000F1EE10FA93ED007A40F1B481DFEDA47AE6
:1057900092ED006ADFEDA36A27EE277AC7EE067A5C
:1057A00077EEA67AFDEEE77A17EE908AB8F1630FEE
:1057B0009D499E48A8BF4FF0630816F057FA28EAA3
:1057C000E8780746002840F0AD809949974816F0E0
:1057D0004DFA002800F0E480964A974BD2ED00AADB
:1057E00093ED00BA954A964BD9ED00BA9FED957AA4
:1057F00092ED00AADAED009AD3ED007A924C67EEB2
:10580000877AF2EE048A87EEA87A2BEE28BA17EE92
:10581000100A1BF03DF841EC100B16F0A1FE8B4B6B
:105820008B4893ED007A8B497C4B8B4A1268D4ED00
:10583000006A90ED006AD1ED005AD3ED007A874BF3
:10584000109727EE287A66EEA86A26EE286A65EE9B
:10585000A85A67EEA87AFDEEE55ABDEEC66AFDEEDF
:10586000E66ABDEEC77AFDEEE77A1B68119351EC4C
:10587000100B0A92CDED0D5A8DED0C6ACDED0B6A31
:105880008DED097ACDED0E7A0F9708971BF004FB8A
:10589000DFED737A079069EEE79A6AEEA8AA2AEE1E
:1058A00028AA29EE289A28EE288ABDEECBBAFDEE6A
:1058B000EAAABDEECAAABDEEC99AFDEEE99ABCEE0F
:1058C000C88AFDEEEBBA1BEE103A1AEE902ACDF81C
:1058D0001480CDF810B08DED02AA8DED069ACDEDB5
:1058E000039A8DED008ACDED01BA14A85D491CF034
:1058F00089FB0DF14F030DF19B0213F8010F3844A2
:105900009A42C7B2F9D1584B1F7049E046494748FF
:105910009FED449A16F0AAF94FF0000807460028B8
:105920003FF453AF434A444BD2ED006A9FED4C5ACB
:1059300093ED006A99ED007ADAED007ACDF81080E7
:10594000F2EE045A28EE258A67EEC57A26EE256A1D
:1059500066EEA56AFDEEE77ABDEEC77ABDEEC66AD1
:10596000FDEEE66ABCEEC88A16EE103A16EE902AF4
:10597000CDF80CB08DED008ACDED027A8DED017A77
:105980003A4914A81CF03EFB0DF14F030DF18602BD
:1059900013F8010F20449A42C4B2F9D1324B1C7063
:1059A0003349104816F062F9002875D014A81CF08D
:1059B00087FD014614A813F08BFF2B4B2D491A7855
:1059C0002D4815F023FE2C4815F004FE3368139380
:1059D000139B2B6029B0BDEC088BBDE8F08F00BF96
:1059E00024FA0600CC35FF1F30110020383DFF1F80
:1059F0000878FF1F5437FF1F48F951408C2E3A3E5C
:105A000070587B3F601EFF1F183CFF1F5D74513FA5
:105A1000803CFF1F401EFF1FA440FF1FD408002032
:105A200000004842000000002CFA0600E035FF1F8D
:105A300078FA06000442FF1F143DFF1F5841FF1F64
:105A40001C42FF1F9AD94443780700202C78FF1F7F
:105A5000D03CFF1F7C0800208840FF1F403CFF1FF8
:105A60000000C84280FA06006036FF1F30FA0600C8
:105A700070FA0600E4FA0600282BFF1F0C0A00202B
:105A80000C3DFF1F624B9FED637AD3ED007A67EE0A
:105A9000877AC9ED007A2EE65F49604816F0E6F88D
:105AA00080B114A81CF00CFD014614A812F0CAFF26
:105AB0005B4B5C491A785C4815F0A8FD5A4815F014
:105AC00089FD83E75949554816F0D0F800283FF47E
:105AD0007DAF14A81CF0F4FC014614A812F084FB5E
