:1000000000000320D1010000DD3701009537010019
:1000100095370100953701009537010095370100AC
:10002000953701009537010095370100DD37010054
:10003000DD370100953701008D2301009124010077
:10004000DD370100DD370100DD370100DD3701005C
:10005000DD370100DD370100DD370100DD3701004C
:10006000DD370100DD370100DD370100DD3701003C
:10007000DD370100DD370100DD370100DD3701002C
:10008000DD370100DD370100DD370100DD3701001C
:10009000DD370100DD370100DD370100DD3701000C
:1000A000ADCD0000B9CD0000DD370100DD37010026
:1000B000DD370100DD370100DD3701004D4A010069
:1000C000DD370100716E0100DD370100F54F0100E1
:1000D000DD37010035560100DD370100DD37010055
:1000E000DD370100DD370100DD370100DD370100BC
:1000F000DD370100DD370100DD370100DD370100AC
:100100004D2A0100612A0100752A0100892A010097
:10011000DD370100295E0100DD370100DD37010018
:10012000DD370100DD370100DD370100DD3701007B
:10013000DD370100DD370100DD370100DD3701006B
:1001400041210100DD3701009D5B0100DD37010029
:10015000DD370100DD370100DD370100DD3701004B
:10016000DD370100DD370100C5CD0000DD370100BE
:10017000DD370100DD370100DD370100DD3701002B
:10018000DD3701005D010100DD370100DD370100D1
:10019000DD370100DD370100A56F0100DD3701000B
:1001A000DD370100DD370100DD370100D1CD000072
:1001B000DD370100DD370100DD370100DD370100EB
:1001C000DD370100DD370100DD370100DD370100DB
:1001D0005C4B4CF2205210B51A804DF628121A8052
:1001E00000BF00BF13F0FEFA574B4FF030621A60A9
:1001F000564A9A60564ADA60564B4FF470021A60BB
:10020000554B564A1A60564B1A78110703D51A787F
:1002100042F008021A70534B5349AA221A70534AEB
:10022000534B8B4204D252F8040F43F8040BF8E707
:10023000504B514900228B4202D243F8042BFAE77B
:100240004E494F4A002352F8230041F8230001335E
:10025000742BF8D14B4B4C4A802103F8011B93427D
:10026000FBD14A4B454A1A60494B8A221A70A3F5C2
:10027000805324225A70A0221A709A799207FCD5D2
:100280009A79D406FCD4434A937903F00C03082BE3
:10029000FAD1414B60221A7002331A78802AFCD1BD
:1002A0003C4B01221A715D225A719A799006FCD555
:1002B0009979384A4906FBD5384B394919600021EC
:1002C000596020231370937903F00C030C2BFAD19F
:1002D000344B354A1A60354A354C136813F4807331
:1002E00003D123604FF4A8531360324B324A1A6093
:1002F00000225A60072243F8042C304AC3F80C2D20
:1003000062B613F06BFF2368DA0705D52C4813F0AB
:1003100023FD2C4B2C4A1A602C4B1B785B0609D50D
:10032000284C294B22689A4204D1254813F014FD29
:10033000002323601BF0E4FC13F05AFA13F088F951
:10034000FEE700BF0E20054030800440823F0400DD
:100350000100002B88ED00E0002008E0030000858C
:1003600002D0074000E00740F032FF1F6CC60700D4
:10037000301DFF1FF032FF1FB05F00200018FF1F6D
:100380000000000000E400E064E400E008ED00E0AC
:10039000005006400040064001E007404480044011
:1003A0000000060204800440C010070010D0034083
:1003B00014D0034014E000E01FBF02000000202022
:1003C000F2AC3A5F1CE00340A5C3945A00F007402A
:1003D000FFFFFFFFFFFFFFFFFFFFFFFFFFFFFFFF2D
:1003E000FFFFFFFFFFFFFFFFFFFFFFFFFFFFFFFF1D
:1003F000FFFFFFFFFFFFFFFFFFFFFFFFFFFFFFFF0D
:10040000FFFFFFFFFFFFFFFFFFFFFFFFDEF9FFFF23
:1004100010B5054C237833B9044B13B10448AFF33E
:1004200000800123237010BDF032FF1F0000000088
:1004300068C60700084B10B51BB108490848AFF360
:1004400000800848036803B910BD074B002BFBD0A0
:10045000BDE81040184700BF00000000F432FF1F45
:1004600068C60700F032FF1F000000000020704740
:100470004FF0FF30704700BF704700BF2DE9F047D5
:1004800055EC114BD1E9046782B0D1E902238246D1
:10049000294611EE100A8DED000B1AF031FF9DED8B
:1004A000000B804653EC102B8946304639461AF033
:1004B00027FF02460B46404649461AF06FFD22468A
:1004C000804689462B46304639461AF067FD02467B
:1004D0000B46404649461BF03DF8124BCAF8003027
:1004E000CAE9020132463B4600200F491BF032F8B0
:1004F000224606460F462B4600200B491BF02AF8E1
:1005000002460B46304639461AF048FD02460B4675
:10051000002005491BF01EF8CAE90401504602B04C
:10052000BDE8F087B49706000000F03F30B4D1E991
:100530000445054A81ED020BC0E9044580ED020B3C
:10054000026030BC704700BFB4970600F8B5D1E92F
:10055000022304460D4651EC100B1AF01FFDD5E99D
:10056000046702460B460549C5E902232046C4E953
:1005700002232160C4E90467F8BD00BFB4970600F8
:10058000F8B5D1E9042304460D4651EC100B1AF0DE
:1005900005FDD5E9026702460B460549C5E9042376
:1005A00020462160C4E90267C4E90423F8BD00BF06
:1005B000B497060030B4D1E90245054A81ED040B39
:1005C000C0E9024580ED040B026030BC704700BFFB
:1005D000B497060030B4D1E90423D1E90245C0E95B
:1005E0000423C0E9024530BC704700BF4068704733
:1005F0000B7EF0B48C6823B14B699A42ACBF0C6996
:1006000000239A4215DDACB101339A42A469FAD1B4
:1006100001234A610C610B7664B1D4E90267D4E925
:1006200004230B490160C0E90267C0E90423F0BC60
:100630007047EDD0074B4FF0744200240025C0E90D
:100640000423034B0360C0E90245F0BC704700BFC0
:10065000B4970600FFFFDF41027C02F0080202F0BF
:10066000FF0332B1C36A406A181A48BF6FF00040F6
:1006700070471846704700BF704700BF4368012BA2
:100680006DDD2DE9F04F034683B008330F4601902E
:1006900000934FF00009019BDDF800809E68002E5A
:1006A000F9D0B169B246002934D05046B847002885
:1006B0002ADDDAF818406CB3D4F818B02546BBF13F
:1006C000000F06D059462846B84700282DDDD5F83A
:1006D00018B0CAF81890C5F8189021463046B847A7
:1006E000002829DDC8F80040A36904F11808002B90
:1006F00036D1A66100E01E46B369002BFBD1B0469F
:100700005E4648F818BFCAE7DAF818A0DAF81810F9
:100710000029CAD1009B9845BDD101990022C1F89A
:100720000CA00A7603B0BDE8F08FAD69D5F818B01B
:10073000BBF1000FC6D1CCE7C8F80060B36906F181
:1007400018080BB11E46C8E7B46100E01C46A36957
:10075000002BFBD1A0465E4648F818BF9FE77047C4
:100760001C4633461E46B8E710300DF08DBA00BF68
:1007700000B583B002AB012203F8011D1030194609
:100780000DF082FA03B05DF804FB00BF10300DF0ED
:1007900049B900BF00B583B001220DF10701103047
:1007A0000DF072F801280CBF9DF807004FF0FF30E4
:1007B00003B05DF804FB00BF10300DF05FBA00BF5E
:1007C00010B5044612F020F9204610BDFFFFFFFFD0
:1007D000F0B5064651EC100B83B096ED040BCDE955
:1007E000000117F001F855EC104BD6E90223DDE9C2
:1007F00000011AF0D1FB22462B461AF0ABFE002274
:1008000006460F46104B1AF07BFD32463B461AF067
:1008100077FD41EC100B16F03FFD22462B4608A158
:10082000D1E900018DED000B1AF094FE9DED000B57
:1008300053EC102B1AF064FD41EC100B03B0F0BD2B
:10084000000000404588D93F0000E0BF4B68002B06
:100850002DE9F047054623DD012B0C461AD08B68A5
:1008600020211846D3F818A0D3E90289D3E90467F8
:1008700013F02CF86368114AC4F808A0013B00216A
:10088000636021762846C5E90289C5E904672A60C4
:10089000BDE8F0870B689B6998472846BDE8F0875C
:1008A000074B064C2C60002000214FF07442C5E934
:1008B0000201C5E904232846BDE8F087B497060085
:1008C000FFFFDF414A68002A2DE9F84F074635DD72
:1008D0000025012A0E460D763ED0023A8C680DD0D6
:1008E0004CB12B46114600E024B301339342A46976
:1008F000FAD18A4202D000239B69FFDEA3697261AC
:1009000001221846327634612021D3E902ABD3E9C3
:10091000048912F0DBFF7368194A013B0021A161D1
:1009200038467360F460C7E902ABC7E904893A60EE
:10093000BDE8F88F19468A42DDD1DFE7114B104C34
:100940003C60002000214FF07442C7E90201C7E972
:1009500004233846BDE8F88F8868D0E902ABD0E9B7
:100960000489202112F0B2FF054BB560F560756077
:100970003846C7E902ABC7E904893B60BDE8F88F98
:10098000B4970600FFFFDF41002A2DE9704F0646AD
:1009900037DB4B689A420D4633DA002A48D0013BD8
:1009A0009A424BD00B7E8C68013A002B3AD19A4286
:1009B00048DD002C33D0114601E0002C2FD001334C
:1009C0009342A469F9D18A4229D1A0696A618369F5
:1009D0002C610122D0E902ABD0E9048920212A76DA
:1009E000A36112F073FF6B68174A013B00216B6033
:1009F00029763046C6E902ABC6E904893260BDE813
:100A0000708F124B104C3460002000214FF0744264
:100A1000C6E90201C6E904233046BDE8708F002311
:100A20009B69FFDE4B699A42ACBF0C690023BEE7AD
:100A30000B68DB6998473046BDE8708F0B689B698F
:100A40009847E9E71946BEE7B4970600FFFFDF4184
:100A5000F8B5274D0446284612F0CAF9064628463E
:100A600012F0C6F9054630461AF0D4FB4FF0744236
:100A7000204B1AF06FFD1CA3D3E900231AF040FCB1
:100A800041EC100B16F044FBD4E9042351EC100B9D
:100A90001AF036FC064628460F461AF0BBFB4FF00C
:100AA0007442144B1AF056FD41EC100BD4E9024588
:100AB00016F076FC51EC100B10EE102A01F10043F9
:100AC00043EC102B16F090FE304653EC102B3946B9
:100AD0001AF016FC22462B461AF060FA41EC100B75
:100AE000F8BD00BFAFF3008000000060FB2119409B
:100AF000D0FFFF7FFFFFDF4110B5044611F0CAFAB7
:100B0000204610BD30B50C4D87B0044607E0606844
:100B10000028214668460CDD2368DB699847236876
:100B20001B68AB42F3D02046984700282146684610
:100B3000F2DC07B030BD00BFED0500002DE97043C9
:100B400000238CB00446164D80F820300E4607E096
:100B50005868E1698842194668460FDBD3699847AF
:100B6000A3691A681168A942F2D018468847E1695A
:100B7000A36988421A6819466846EFDAD6E90289FD
:100B8000D6E904450749926806911846CDE90889D7
:100B9000CDE90A4506A990470CB0BDE8708300BFB7
:100BA000ED050000B49706002DE9F0470C682E4FC4
:100BB0002668BE4282B0D2E90289D2E90445824663
:100BC00048D1D1E90467D1E90223204629461AF029
:100BD00097FB3246CDE900013B46404649461AF0B4
:100BE0008FFB02460B46DDE900011AF0D7F93246C9
:100BF000804689463B46204629461AF0CFF90246F0
:100C00000B46404649461AF0A5FC184BCAF800307E
:100C1000CAE9020132463B46002015491AF09AFC07
:100C2000224606460F462B46002011491AF092FC38
:100C300002460B46304639461AF0B0F902460B46DA
:100C400000200B491AF086FCCAE90401504602B0A4
:100C5000BDE8F08745EC114B49EC108BB04750468E
:100C600002B0BDE8F08700BF7D040000B497060025
:100C70000000F03F002923DB4368994220DA037E1D
:100C80002DE9D003846823B143699942ACBF04695C
:100C90000023994216DDB4B101339942A469FAD117
:100CA000D2E90289D2E90467012304614161037634
:100CB0001846C4E90289C4E90467BDE8D003704757
:100CC00000207047ECD0D2E902010023C3E9020101
:100CD000FFDE00BF2DE97043044620200E4612F0CF
:100CE000F3FD2022002105461BF018FCD6E90289FD
:100CF000D6E90401A3680A4A2A60C5E90289C5E960
:100D0000040153B1E3689D61E5606368002201332B
:100D1000636022760120BDE87083A560E560F4E79A
:100D2000B49706002DE9F043436887B004460E46A9
:100D3000EBB1202012F0C8FD2022002105461BF057
:100D4000EDFBD6E90401D6E902896368104A2A60FE
:100D5000A268AA61C5E90401013300220120C5E9A6
:100D60000289A5606360227607B0BDE8F083D1E90F
:100D70000289D1E904670368054A9B680092CDE9BE
:100D80000289CDE904676946984707B0BDE8F0835A
:100D9000B49706002DE9F04F43688B4287B00546B3
:100DA00017465BDD0C4600293CD0202012F08CFD5C
:100DB000202200210646DFF8BC901BF0AFFB2B7E03
:100DC0002B4A32604FF07448611EC6E90489AA6854
:100DD00023B16B699942ACBF2A690023994245DD72
:100DE000002A30D0084601E0002A2CD001338B4283
:100DF0009269F9D1814226D1D7E904ABD7E90289BA
:100E00006B6869619169B1610133002101202A6138
:100E1000C6E904ABC6E9028996616B60297607B022
:100E2000BDE8F08F0368D2E90289D2E90467DB6884
:100E30000F4A0092CDE90289CDE9046769469847D7
:100E400007B0BDE8F08FD7E90445D7E902010023D8
:100E5000C6E90445C6E902019B69FFDE0368D2E9E1
:100E60000289D2E904679B68014AE2E71846C1E7B4
:100E7000B4970600FFFFDF412DE9F04F91F82020E5
:100E800089B08A46019072B1D1E90201DAE90423FE
:100E9000019E414C3460C6E902013046C6E9042394
:100EA00009B0BDE8F08F89690B6802A81B6A9847F2
:100EB000DDE90401DDE90623CAE90C01CAE90E23D4
:100EC0004FF0010B4FE043689B455A4602A857DAA2
:100ED000DAF818100B681B6A9847DAE90E45DDE965
:100EE0000423204629461AF00BFADDE90689DAE9DF
:100EF0000C2306460F46404649461AF001FA0246C0
:100F00000B46304639461AF049F822462B4606462B
:100F10000F46404649461AF041F802460B46304615
:100F200039461AF017FB22462B46CAE90C0100206D
:100F30001A491AF00FFB424604460D464B46002064
:100F400016491AF007FB02460B46204629461AF0BE
:100F500025F802460B46002010491AF0FBFACAE9B0
:100F60000E010BF1010BDAF818000D4A03681B683B
:100F70009342A8D0984703469B455A4602A8A7DB50
:100F8000DAE90C01DAE90E230124CAE90201CAE90F
:100F900004238AF820407BE7B49706000000F03F66
:100FA000ED0500002DE9F04FD1F800E0DFF8E4C0D6
:100FB000DEF80480DFF8E0B0D2E90267D2E9044548
:100FC00089B0E045CDF808B0CDE90467CDE9064524
:100FD00082464DD1DEF80020DFF8C0E072454DD1E9
:100FE000D1E90489D1E90223204629461AF088F97B
:100FF0004246CDE900014B46304639461AF080F9A9
:1010000002460B46DDE9000119F0C8FF42460646DC
:101010000F464B462046294619F0C0FF02460B46B4
:10102000304639461AF096FA4246CAE902014B4662
:10103000CAF800B0002016491AF08CFA224606467B
:101040000F462B46002012491AF084FA02460B463E
:101050003046394619F0A2FF02460B4600200C49E3
:101060001AF078FACAE90401504609B0BDE8F08FD9
:1010700002AAC047504609B0BDE8F08F45EC114BBD
:1010800047EC106B9047504609B0BDE8F08F00BFA9
:101090000000F03FA90B0000B49706007D0400009B
:1010A0002DE9F04F0368404AD3F804803F4DD1E961
:1010B0000267D1E904AB91B004469045986901906C
:1010C0000495CDE90667CDE908AB55D11B68384AD0
:1010D000934260D1D4E9022350465946D4E90489A9
:1010E0001AF00EF94246CDE902014B463046394628
:1010F0001AF006F902460B46DDE9020119F04EFF2F
:10110000424606460F464B465046594619F046FFA2
:1011100002460B46304639461AF01CFA4246CDE9E3
:101120000C014B46002023490A951AF013FA524647
:1011300006460F465B4600201E491AF00BFA02468F
:101140000B463046394619F029FF02460B4600206F
:1011500018491AF0FFF9CDE90E01174B019A9A428E
:1011600012D1DDE90C01DDE90E23C4E90201C4E975
:10117000042311B0BDE8F08F04AA21460AA8C04795
:101180000D4B019A9A42ECD020460AA9019B984740
:1011900011B0BDE8F08F4BEC11AB47EC106B214662
:1011A0000AA89847D9E700BFA90B0000B49706002A
:1011B0007D0400000000F03FD505000008B50921BE
:1011C000074815F0DBFC074811F08EFC064A07497A
:1011D0001368074801331360BDE8084010F0E0BA17
:1011E000AC9F06008C28FF1F7C36FF1F6024020086
:1011F000CCBAFF1FFFFFFFFF2DE9F04F984D994C30
:10120000D5ED005A95ED006AD4ED007A94ED007AA0
:10121000954B67EE877AD3ED006A93ED007AE5EEA1
:10122000867A2DED028BE6EE877AADF5257DF5EE1B
:10123000C07AF1EE10FAD8BFF1EE677A17EE900A95
:101240001AF00AF841EC100B16F0CEFA51EC100B24
:101250001AF04EFBD5ED007A844BD4F800B0F5EED1
:10126000C07AD3ED007AF1EE10FAF4EE677A824696
:1012700048BF80F0004AF1EE10FA80F1DC807C4A31
:101280007C4CD2ED007A94ED008AF8EEE77AF4EE29
:10129000C87AF1EE10FA00F3C98072B6186862B627
:1012A00019F0DAFFCDE91E0194ED008A724BD3EDFF
:1012B000007AF4EE677AF1EE10FA80F1C48017EE4E
:1012C000900A19F0C9FFCDE920016C4BDFF8D091ED
:1012D0001868DFF8D0816A4F6A4E6B4D19F0BCFF79
:1012E000CDE91A01504619F0B7FFCDE91C01584667
:1012F00019F0B2FF99ED007B3B68D8F800201892F6
:101300008246306814938DED167B8B4619F0A4FF4E
:10131000CDE91201286819F09FFFCDE910015B4B60
:10132000186819F099FFCDE90E01594B186819F0AA
:1013300093FF9DED1C7B8DED067B9DED207B0022B8
:101340000023CDE90C0118EE100A8DED047BCDE9E8
:101350000A23CDE908AB19F07FFF9DED1A7BCDE99B
:101360000201DDE91E234B498DED007B23A81BF014
:1013700031FB23A81BF0A4FD23AB013818440DF169
:101380008B01002303E011F8012F1344DBB28142EB
:10139000F9D199ED007B3A68D8F8001030681492C2
:1013A0008DED167B1993189119F056FFCDE91201B6
:1013B000286819F051FFCDE91001344B186819F075
:1013C0004BFFCDE90E01324B186819F045FF9DED3A
:1013D0001C7BCDE90C0120688DED067B9DED207B0B
:1013E000002200238DED047BCDE90A23CDE908AB73
:1013F00019F032FF9DED1A7BDDE91E238DED007B98
:10140000CDE90201244943A81BF0E4FA43A81BF0EC
:1014100057FD014643A814F065F8204811F064FB1D
:101420000DF5257DBDEC028BBDE8F08F9FED087BAF
:101430008DED1E7B3AE79FED067B0E4C8DED1E7BFE
:1014400094ED008A32E79FED047B8DED207B3CE735
:1014500000000000000059C0000000000000F0BFC4
:10146000F834FF1FD0B7FF1F3C37FF1F1037FF1F97
:10147000901DFF1F1437FF1F78D4FF1F3833FF1F45
:10148000F836FF1F68D4FF1F0CD4FF1F84D3FF1F43
:10149000ACD3FF1FB89F0600FC9F06004C28FF1F1F
:1014A000A0BAFF1F7C36FF1F2DE970430368204A56
:1014B000DB6ADFF888901F4E92B04FF07448934279
:1014C00006968DED080BCDE90A892BD10023044641
:1014D000194D80F8203007E05868E16988421946C4
:1014E00068460FDBD3699847A3691A681168A94257
:1014F000F2D018468847E169A36988421A681946FC
:101500006846EFDADDE90889DDE90A4592680C965C
:101510001846CDE90E89CDE910450CA9904712B0C7
:10152000BDE8708306A9984712B0BDE8708300BF7C
:101530003D0B0000B4970600ED050000FFFFDF4102
:101540002DE9704F0368204ADB6A204ED1E902ABD7
:10155000D1E9048992B093420696CDE908ABCDE972
:101560000A892BD100230446194D80F8203007E06A
:101570005868E1698842194668460FDBD369984785
:10158000A3691A681168A942F2D018468847E16930
:10159000A36988421A6819466846EFDADDE90889C6
:1015A000DDE90A4592680C961846CDE90E89CDE929
:1015B00010450CA9904712B0BDE8708F06A9984756
:1015C00012B0BDE8708F00BF3D0B0000B49706005D
:1015D000ED05000070B5044608460D461BF070FC92
:1015E00023680246294620465B68BDE870401847DC
:1015F00038B5054611F052FA0446284611F074FA3F
:10160000204438BD38B5044608460D461BF058FC4A
:101610002368024629465B682046984705462046CF
:1016200011F062FA284438BD38B50A220023054675
:1016300011F080FA0446284611F056FA204438BDCD
:1016400038B5054611F0B6FA0446284611F04CFAB2
:10165000204438BD38B5054611F0ACFA044628469A
:1016600011F042FA204438BD002310B4114C4172ED
:10167000026104600372C36041B1194600E002696F
:1016800042F82310427A01339A42F8DC0A4B1A6876
:101690000AB90CE01A465369002BFBD150610023B4
:1016A00043618380C38083725DF8044B7047186088
:1016B000F5E700BFA8970600ACDBFF1FF8B50446AE
:1016C000114B124D124825604FF07442002600273E
:1016D000C4E90423C4E90E23A062C4E90267C4E993
:1016E0000C671C200D4612F0EFF80023094AA06198
:1016F00002608360C3604360036143610376E56118
:1017000084F820302046F8BDFFFFDF41E89706004F
:10171000B49706002898060010B5044611F0BCFDE9
:10172000012804D00949204611F032FD08B10120FA
:1017300010BD0749204611F02BFD0028F7D12046A7
:10174000044911F025FD0028F2D0F0E710A10600B1
:1017500014A106001CA106002DE9F041804684B0CA
:101760000C46074600252C21204611F04FFD061E91
:101770004FF000022146334668461FDD11F068FD38
:10178000684611F089FD013547F8040F684611F0ED
:1017900045FB721CA368C8F800502146684611F04A
:1017A00057FD6946204611F025FC684611F036FBCE
:1017B000052DD8D1404604B0BDE8F081204611F097
:1017C0006BFD08EB8503013558604046C8F80050B2
:1017D00004B0BDE8F08100BF2DE9F041804684B03F
:1017E0000C46074600252C21204611F00FFD061E51
:1017F0004FF0000221463346684623DD11F028FDF4
:1018000000981AF057FA51EC100B1AF071F80135E4
:1018100047F8040F684611F001FB721CA368C8F872
:1018200000502146684611F013FD6946204611F02C
:10183000E1FB684611F0F2FA052DD4D1404604B020
:10184000BDE8F0812146684611F03CFB00981AF093
:1018500031FA51EC100B1AF04BF808EB8503013507
:101860005860684611F0DAFA4046C8F8005004B0F3
:10187000BDE8F081F0B5074685B00C4606462C2140
:10188000204611F0C3FC051E4FF0000221462B46F6
:1018900068461BDD11F0DCFC00981AF00BFA51ECE5
:1018A000100B1AF025F846F8040B684611F0B6FA4A
:1018B0006A1CA3682146684611F0CAFC69462046A6
:1018C00011F098FB684611F0A9FAD8E7204611F00C
:1018D000E3FC3874384605B0F0BD00BF2DE9F04197
:1018E00084B015460C4606461F49684611F0D6FAE4
:1018F0002946684611F012FC1C4911F017FC0146FC
:10190000204611F093FC0746684611F087FA184903
:10191000684611F0C3FA2946684611F0FFFB1349E7
:1019200011F004FC0146204611F080FC8046684618
:1019300011F074FA002F0EDBB8F1000F0BDBAA6870
:10194000023230463A444346214611F081FC30468B
:1019500004B0BDE8F0810749304611F09FFA3046E7
:1019600004B0BDE8F08100BF28A106005CAC060011
:101970002CA10600D4B5070070B584B004460D460E
:1019800068461049164611F089FA2946684611F052
:10199000C5FB0D4911F0CAFB314611F0BFFB0B49E5
:1019A00011F0C4FB294611F0B9FB094911F0BEFB47
:1019B0000146204611F086FA684611F02FFA2046BB
:1019C00004B070BD28A106005CAC06002CA1060086
:1019D00030A1060084B070B58AB00FAC84E80E0068
:1019E0001849054611F05AFA13AE54F8040B19F0D1
:1019F00033FC02460B4605A813491AF0EBFF05A974
:101A000001A811F04BFA01A9284611F03DFB01A8ED
:101A100011F004FA0D49284611F03AFBB442E4D122
:101A20009DF84C1005A811F06BFA05A9284611F095
:101A30002BFB05A811F0F2F928460AB0BDE870406A
:101A400004B07047D4B5070020A106000CA806001A
:101A500084B02DE9F0418AB011AD85E80E000E4644
:101A60001749074611F01AFA002E1DDD06F1FF385E
:101A7000002455F8040F19F0EFFB02460B4605A8A9
:101A800010491AF0A7FF05A901A811F007FA01A94A
:101A9000384611F0F9FA01A811F0C0F9A04504F197
:101AA000010407DCA642E4D138460AB0BDE8F041A3
:101AB00004B070470449384611F0EAFAF2E700BF73
:101AC000D4B5070020A106000CA8060084B02DE9BB
:101AD000F04107AD85E80E000E460F49074611F0AC
:101AE000DDF9002E0DDD06F1FF38002455F8041F46
:101AF000384611F0EBFAA04504F1010406DCA642D9
:101B0000F4D13846BDE8F04104B070470349384687
:101B100011F0BEFAF3E700BFD4B507000CA8060029
:101B2000F0B5B349B34E9BB0044611F0B7F9B249D2
:101B300011A811F0B3F9B14B0A2219680DA811F0E0
:101B4000F3F90DAA11A915A8FFF716FF15A920464C
:101B500011F09AFA15A811F061F90DA811F05EF9CB
:101B600011A811F05BF9A64911A811F097F9A54B3E
:101B70000A2219680DA811F0D7F90DAA11A915A804
:101B8000FFF7FAFE15A9204611F07EFA15A811F00C
:101B900045F90DA811F042F911A811F03FF99A4941
:101BA00011A811F07BF999490DA811F08BF90DAA34
:101BB00011A915A8FFF7E0FE15A9204611F064FA57
:101BC00015A811F02BF90DA811F028F911A811F0A2
:101BD00025F98F4911A811F061F98E490DA811F06E
:101BE00071F90DAA11A915A8FFF7C6FE15A920467F
:101BF00011F04AFA15A811F011F90DA811F00EF91B
:101C000011A811F00BF9844911A811F047F906F158
:101C10000C0393E807008DE8070096E80E000DA876
:101C2000FFF754FF0DAA11A915A8FFF7A5FE15A9E6
:101C3000204611F029FA15A811F0F0F80DA811F0BE
:101C4000EDF811A811F0EAF8744911A811F026F97D
:101C5000734B03F10C0207CA8DE807000DA80ECBE9
:101C6000FFF734FF0DAA11A915A8FFF785FE15A9E6
:101C7000204611F009FA15A811F0D0F80DA811F0BE
:101C8000CDF811A811F0CAF8664911A811F006F9AB
:101C9000654B0A2219780DA811F046F90DAA11A971
:101CA00015A8FFF769FE15A9204611F0EDF915A852
:101CB00011F0B4F80DA811F0B1F811A811F0AEF8B8
:101CC0005A4911A811F0EAF8594B0A2219680DA8CF
:101CD00011F02AF90DAA11A915A8FFF74DFE15A9B3
:101CE000204611F0D1F915A811F098F80DA811F0BF
:101CF00095F811A811F092F84E4911A811F0CEF8FC
:101D00004D4B0A2219680DA811F00EF90DAA11A960
:101D100015A8FFF731FE15A9204611F0B5F915A851
:101D200011F07CF80DA811F079F811A811F076F8EF
:101D3000424911A811F0B2F8414B0A2219680DA8C6
:101D400011F0F2F80DAA11A915A8FFF715FE15A9B3
:101D5000204611F099F915A811F060F80DA811F0BE
:101D60005DF811A811F05AF8364911A811F096F84B
:101D7000354B0A2219780DA811F0D6F80DAA11A931
:101D800015A8FFF7F9FD15A9204611F07DF915A852
:101D900011F044F80DA811F041F811A811F03EF827
:101DA0002A4911A811F07AF8294B0A2219680DA8BE
:101DB00011F0BAF80DAA11A915A8FFF7DDFD15A9B4
:101DC000204611F061F915A811F028F80DA811F0BE
:101DD00025F811A811F022F81E4911A811F05EF89B
:101DE0001D4B0A2219780DA811F09EF80DAA35E0B6
:101DF00034A10600C035FF1F40A10600841DFF1F4F
:101E000050A10600881DFF1F64A10600B0D3FF1F6C
:101E100070A1060014C6FF1F84A1060090A1060051
:101E2000C0D3FF1FA4A1060010D9FF1FB4A1060054
:101E30007C1DFF1FC8A10600501DFF1FDCA106006E
:101E40007436FF1FECA10600D0C5FF1FF4A10600E9
:101E5000901DFF1F0CA206007036FF1F11A915A8C8
:101E6000FFF78AFD15A9204611F00EF915A810F00C
:101E7000D5FF0DA810F0D2FF11A810F0CFFFB84980
:101E800011A811F00BF8B74B03F10C0207CA8DE84B
:101E900007000DA80ECBFFF7DBFD0DAA11A915A8B1
:101EA000FFF76AFD15A9204611F0EEF815A810F00D
:101EB000B5FF0DA810F0B2FF11A810F0AFFFAA49AE
:101EC00011A810F0EBFFA94B03F10C0207CA8DE833
:101ED00007000DA80ECBFFF7BBFD0DAA11A915A891
:101EE000FFF74AFD15A9204611F0CEF815A810F00D
:101EF00095FF0DA810F092FF11A810F08FFF9C49DC
:101F000011A810F0CBFF9B4B03F10C0207CA8DE820
:101F100007000DA80ECBFFF79BFD0DAA11A915A870
:101F2000FFF72AFD15A9204611F0AEF815A810F00C
:101F300075FF0DA810F072FF11A810F06FFF8E4909
:101F400011A810F0ABFF8D4B03F10C0207CA8DE80E
:101F500007000DA80ECBFFF77BFD0DAA11A915A850
:101F6000FFF70AFD15A9204611F08EF815A810F00C
:101F700055FF0DA810F052FF11A810F04FFF336865
:101F8000002B3CDD7E4F00257E4909A810F086FF1E
:101F90000A22294605A810F0C7FF05A909A811F0D3
:101FA000BDF8014611A810F08DFF05EB850307EB86
:101FB000830303F10C0292E803008DE803000DA8EF
:101FC0000ECBFFF707FD0DAA11A915A8FFF7D4FC4A
:101FD00015A9204611F058F815A810F01FFF0DA8FC
:101FE00010F01CFF11A810F019FF05A810F016FF43
:101FF00009A810F013FF33680135AB42C4DC624915
:1020000011A810F04BFF614B03F10C0292E80300A2
:102010008DE803000DA80ECBFFF7DCFC0DAA11A97B
:1020200015A8FFF7A9FC15A9204611F02DF815A851
:1020300010F0F4FE0DA810F0F1FE11A810F0EEFE65
:10204000534911A810F02AFF524B03F10C0292E8F9
:1020500003008DE803000DA80ECBFFF7BBFC0DAA13
:1020600011A915A8FFF788FC15A9204611F00CF856
:1020700015A810F0D3FE0DA810F0D0FE11A810F096
:10208000CDFE454911A810F009FF444B03F10C02A5
:1020900092E803008DE803000DA80ECBFFF79AFC31
:1020A0000DAA11A915A8FFF767FC15A9204610F085
:1020B000EBFF15A810F0B2FE0DA810F0AFFE11A8AE
:1020C00010F0ACFE364911A810F0E8FE354B03F1D4
:1020D0000C0292E803008DE803000DA80ECBFFF779
:1020E00079FC0DAA11A915A8FFF746FC15A92046F1
:1020F00010F0CAFF15A810F091FE0DA810F08EFE8A
:1021000011A810F08BFE284911A810F0C7FE274B2C
:1021100003F10C0292E803008DE803000DA80ECB3A
:10212000FFF758FC0DAA11A915A8FFF725FC15A962
:10213000204610F0A9FF15A810F070FE0DA810F0B1
:102140006DFE11A810F06AFE19490DA810F0A6FE48
:10215000184911A810F0B6FE11AA0DA92CE000BF75
:102160001CA20600DC35FF1F30A206004036FF1F10
:1021700048A2060030C4FF1F60A206001C35FF1FE6
:102180008036FF1FD8A3060078A20600A834FF1FE0
:102190008CA20600E436FF1F9CA2060024C6FF1F87
:1021A000B0A206000C33FF1FC4A20600F435FF1FC7
:1021B000D0A206009034FF1F15A8FFF7DDFB15A97C
:1021C000204610F061FF15A810F028FE11A810F0AD
:1021D00025FE0DA810F022FEB2490DA810F05EFEFB
:1021E000B14911A810F06EFE11AA0DA915A8FFF7AC
:1021F000C3FB15A9204610F047FF15A810F00EFEEE
:1022000011A810F00BFE0DA810F008FEA7490DA8AC
:1022100010F044FEA64911A810F054FE11AA0DA911
:1022200015A8FFF7A9FB15A9204610F02DFF15A84A
:1022300010F0F4FD11A810F0F1FD0DA810F0EEFD66
:102240009C4911A810F02AFE9B4B0A2219680DA880
:1022500010F06AFE0DAA11A915A8FFF78DFB15A9AC
:10226000204610F011FF15A810F0D8FD0DA810F0B1
:10227000D5FD11A810F0D2FD904911A810F00EFE66
:102280008F4B0A2219680DA810F04EFE0DAA11A955
:1022900015A8FFF771FB15A9204610F0F5FE15A84B
:1022A00010F0BCFD0DA810F0B9FD11A810F0B6FD9E
:1022B000844911A810F0F2FD834B186818F0CCFF88
:1022C0000B460246814915A81AF084FB15A90DA8F2
:1022D00010F0E4FD0DAA11A915A8FFF74DFB15A9F3
:1022E000204610F0D1FE15A810F098FD0DA810F0B2
:1022F00095FD11A810F092FD754911A810F0CEFDC2
:10230000744B186818F0A8FF0B4602466F4915A8D1
:102310001AF060FB15A90DA810F0C0FD0DAA11A9B7
:1023200015A8FFF729FB15A9204610F0ADFE15A84A
:1023300010F074FD0DA810F071FD11A810F06EFDE5
:10234000654911A810F0AAFD644B186818F084FFC5
:102350000B4602465D4915A81AF03CFB15A90DA8CD
:1023600010F09CFD0DAA11A915A8FFF705FB15A9F2
:10237000204610F089FE15A810F050FD0DA810F0B1
:102380004DFD11A810F04AFD554911A810F086FD29
:10239000544B186818F060FF0B4602464B4915A8CD
:1023A0001AF018FB15A90DA810F078FD0DAA11A9B7
:1023B00015A8FFF7E1FA15A9204610F065FE15A84B
:1023C00010F02CFD0DA810F029FD11A810F026FD2D
:1023D000454911A810F062FD444B186818F03CFF05
:1023E0000B460246394915A81AF0F4FA15A90DA8AA
:1023F00010F054FD0DAA11A915A8FFF7BDFA15A9F3
:10240000204610F041FE15A810F008FD0DA810F0B0
:1024100005FD11A810F002FD354911A810F03EFD90
:10242000344B0A2219780DA810F07EFD0DAA11A9CF
:1024300015A8FFF7A1FA15A9204610F025FE15A84A
:1024400010F0ECFC0DA810F0E9FC11A810F0E6FC6F
:10245000294911A810F022FD284B0A2219780DA84D
:1024600010F062FD0DAA11A915A8FFF785FA15A9AC
:10247000204610F009FE15A810F0D0FC0DA810F0B1
:10248000CDFC11A810F0CAFC1D4911A810F006FDE2
:102490001C4B022193ED000A0DA810F06DFD0DAA52
:1024A00011A931E0E4A206006433FF1FF8A2060080
:1024B0004034FF1F04A30600C8B7FF1F10A3060087
:1024C0005437FF1F1CA306003C34FF1F20A1060049
:1024D0002CA3060080C4FF1F34A306002C36FF1F68
:1024E0003CA306001CD4FF1F44A306000CC6FF1F1C
:1024F00050A306002CC4FF1F58A306007136FF1F0F
:1025000068A3060084C4FF1F15A8FFF735FA15A9B4
:10251000204610F0B9FD15A810F080FC0DA810F0B1
:102520007DFC11A810F07AFC554911A810F0B6FCFA
:10253000544B0A2219680DA810F0F6FC0DAA11A937
:1025400015A8FFF719FA15A9204610F09DFD15A84A
:1025500010F064FC0DA810F061FC11A810F05EFCF6
:10256000494911A810F09AFC484B0A2219680DA895
:1025700010F0EEFC0DAA11A915A8FFF7FDF915A999
:10258000204610F081FD15A810F048FC0DA810F0B1
:1025900045FC11A810F042FC3D4911A810F07EFC4A
:1025A0003C4B0A2219780DA810F0BEFC0DAA11A907
:1025B00015A8FFF7E1F915A9204610F065FD15A84B
:1025C00010F02CFC0DA810F029FC11A810F026FC2E
:1025D00031490DA810F062FC304911A810F072FCCE
:1025E00011AA0DA915A8FFF7C7F915A9204610F0E3
:1025F0004BFD15A810F012FC11A810F00FFC0DA84F
:1026000010F00CFC26490DA810F048FC254911A833
:1026100010F058FC11AA0DA915A8FFF7ADF915A9DE
:10262000204610F031FD15A810F0F8FB11A810F0AD
:10263000F5FB0DA810F0F2FB1B4911A810F02EFCC1
:102640001A4B0A2219780DA810F06EFC0DAA11A9D8
:1026500015A8FFF791F915A9204610F015FD15A84A
:1026600010F0DCFB0DA810F0D9FB11A810F0D6FB80
:102670000F49204610F00CFD20461BB0F0BD00BFF6
:1026800074A306003435FF1F78A306008CC5FF1F16
:102690008CA306004CD9FF1FA0A30600E0C6FF1FB5
:1026A000B0A306002033FF1FC0A30600E4C5FF1F30
:1026B000CCA306002DE9F043A7B0054601461AA8B1
:1026C00010F000FCB149DFF82883B14FDFF8249304
:1026D0001EA810F0E3FB1EAA1AA922A8FFF7FEF815
:1026E00022A810F0D9FDAB4B186022A810F096FB81
:1026F0001EA810F093FB1AA810F090FB29461AA808
:1027000010F0E0FBA4491EA810F0C8FB1EAA1AA9ED
:1027100022A8FFF7E3F822A810F0BEFD9F4B186037
:1027200022A810F07BFB1EA810F078FB1AA810F06E
:1027300075FB29461AA810F0C5FB99491EA810F090
:10274000ADFB1EAA1AA922A8FFF7C8F822A810F00C
:10275000A3FD944B186022A810F060FB1EA810F097
:102760005DFB1AA810F05AFB29461AA810F0AAFB24
:102770008D491EA810F092FB1EAA1AA922A8FFF7E5
:10278000ADF822A9894810F035FC22A810F046FBCC
:102790001EA810F043FB1AA810F040FB29461AA807
:1027A00010F090FB82491EA810F078FB1EAA1AA90F
:1027B00022A8FFF793F822A97E4810F01BFC22A85C
:1027C00010F02CFB1EA810F029FB1AA810F026FB15
:1027D00029461AA810F076FB77491EA810F05EFB78
:1027E0000CAE1EAA1AA922A8FFF778F822A9304633
:1027F000FEF7B2FF0FCE44460FC496E8030084E80C
:10280000030022A810F00AFB1EA810F007FB1AA86C
:1028100010F004FB29461AA810F054FB67491EA8C3
:1028200010F03CFB1EAA1AA922A8FFF757F80CAC1F
:1028300022A90CA8FEF790FF0FCC614C0FC496E8BC
:10284000030084E8030022A810F0E8FA1EA810F0A4
:10285000E5FA1AA810F0E2FA29461AA810F032FB9D
:1028600058491EA810F01AFB1EAA1AA922A8FFF7A1
:1028700035F822A8FEF750FF387022A810F0CEFAE3
:102880001EA810F0CBFA1AA810F0C8FA29461AA808
:1028900010F018FB4C491EA810F000FB1EAA1AA944
:1028A00022A8FFF71BF822A810F0F6FC474B18608F
:1028B00022A810F0B3FA1EA810F0B0FA1AA810F06F
:1028C000ADFA29461AA810F0FDFA41491EA810F0E9
:1028D000E5FA1EAA1AA922A8FFF700F822A810F00C
:1028E000DBFC3C4B186022A810F098FA1EA810F0F0
:1028F00095FA1AA810F092FA29461AA810F0E2FAEE
:1029000035491EA810F0CAFA1EAA1AA922A8FEF775
:10291000E5FF22A810F0C0FCC9F8000022A810F0C2
:102920007DFA1EA810F07AFA1AA810F077FA3B7810
:102930001BB92A4BD9F800201A6029461AA810F0B2
:10294000C1FA2749274C1EA810F0A8FA1EAA1AA9F6
:1029500022A8FEF7C3FF22A8FEF7DEFE224B187066
:1029600022A810F05BFA1EA810F058FA1AA810F06E
:1029700055FA29461AA810F0A5FA1C491EA810F00D
:102980008DFA1EAA1AA922A836E000BF40A10600AF
:1029900010D9FF1F841DFF1F50A10600881DFF1FB7
:1029A000F4A10600901DFF1F64A10600B0D3FF1F15
:1029B00070A1060014C6FF1F84A1060090A10600A6
:1029C000C0D3FF1FA4A10600B4A106007C1DFF1FF9
:1029D000C8A10600501DFF1FDCA10600DCB9FF1FC7
:1029E000ECA10600DC35FF1FD0C5FF1F0CA20600BE
:1029F000C035FF1F7436FF1FFEF770FF22A8FEF7D9
:102A00008BFEB44B187022A810F008FA1EA810F024
:102A100005FA1AA810F002FA29461AA810F052FA7C
:102A2000AD491EA810F03AFA06AE1EAA1AA922A8AD
:102A3000FEF754FF304622A9FEF7CEFE0FCE0FC49C
:102A400096E8030084E8030022A810F0E7F91EA826
:102A500010F0E4F91AA810F0E1F929461AA810F0CC
:102A600031FA9E491EA810F019FA1EAA1AA922A826
:102A7000FEF734FF06AC22A906A8FEF7ADFE0FCC88
:102A8000974C0FC496E8030084E8030022A810F0D6
:102A9000C5F91EA810F0C2F91AA810F0BFF929460E
:102AA0001AA810F00FFA8F491EA810F0F7F91EAA05
:102AB0001AA922A8FEF712FF06AC22A906A8FEF763
:102AC0008BFE0FCC884C0FC496E8030084E803000B
:102AD00022A810F0A3F91EA810F0A0F91AA810F06F
:102AE0009DF929461AA810F0EDF980491EA810F0AA
:102AF000D5F91EAA1AA922A8FEF7F0FE06AC22A953
:102B000006A8FEF769FE0FCC794C0FC496E80300C7
:102B100084E8030022A810F081F91EA810F07EF9C5
:102B20001AA810F07BF9D8F80030002B40F35B8333
:102B3000DFF8EC9100266F4629461AA810F0C2F97A
:102B40006C4916A810F0AAF90A22314612A810F012
:102B5000EBF912A916A810F0E1FA01461EA810F030
:102B6000B1F91EAA1AA922A8FEF7B8FE22A9384672
:102B7000FEF780FEBE46BEE80F0006EB860409EBBA
:102B800084040FC422A8DEF80030236010F046F958
:102B90001EA810F043F912A810F040F916A810F082
:102BA0003DF91AA810F03AF9D8F800300136B342CE
:102BB000C2DC29461AA810F085F94F494F4EDFF8BC
:102BC0006481DFF864911EA810F068F91EAA1AA9A2
:102BD00022A8FEF783FE3C4622A93846FEF74AFEAD
:102BE0000FCC0FC622A82368336010F017F91EA877
:102BF00010F014F91AA810F011F929461AA810F0CB
:102C000061F93F491EA810F049F91EAA1AA922A885
:102C1000FEF764FE3E4622A93846FEF72BFE0FCE95
:102C2000384E0FC622A82368336010F0F7F81EA8AC
:102C300010F0F4F81AA810F0F1F829461AA810F0CC
:102C400041F931491EA810F029F91EAA1AA922A893
:102C5000FEF744FE3E4622A93846FEF70BFE0FCE95
:102C60002A4E0FC622A82368336010F0D7F81EA89A
:102C700010F0D4F81AA810F0D1F829461AA810F0CC
:102C800021F923491EA810F009F91EAA1AA922A8A1
:102C9000FEF724FE3E4622A93846FEF7EBFD0FCE96
:102CA0001C4E0FC622A82368336010F0B7F81EA888
:102CB00010F0B4F81AA810F0B1F829461AA810F0CC
:102CC00001F91549154E1EA810F0E8F81EAA1AA918
:102CD00022A82BE07036FF1F1CA2060030A20600BF
:102CE0004036FF1F48A2060030C4FF1F60A2060046
:102CF0001C35FF1FD8A3060078A20600A834FF1FCA
:102D00008CA20600E436FF1F9CA2060024C6FF1F0B
:102D1000B0A206000C33FF1FC4A20600F435FF1F4B
:102D20008036FF1F3C34FF1F80C4FF1FFEF7D6FD17
:102D300022A93846FEF79EFD0FCF2468B54F0FC677
:102D400022A8346010F06AF81EA810F067F81AA8DC
:102D500010F064F829461AA810F0B4F8AE49AF4E46
:102D6000AF4C1EA810F09AF81EAA1AA922A8FEF7C6
:102D7000B5FD22A9AB4810F03DF922A810F04EF89D
:102D80001EA810F04BF81AA810F048F829461AA807
:102D900010F098F8A4491EA810F080F81EAA1AA9ED
:102DA00022A8FEF79BFD22A9A04810F023F922A833
:102DB00010F034F81EA810F031F81AA810F02EF810
:102DC00029461AA810F07EF899491EA810F066F856
:102DD0001EAA1AA922A8FEF781FD22A9954810F083
:102DE00009F922A810F01AF81EA810F017F81AA86E
:102DF00010F014F829461AA810F064F88E491EA89D
:102E000010F04CF81EAA1AA922A8FEF767FD22A806
:102E100010F042FA894B186022A80FF0FFFF1EA89D
:102E20000FF0FCFF1AA80FF0F9FF29461AA810F0BE
:102E300049F883491EA810F031F81EAA1AA922A841
:102E4000FEF74CFD22A810F027FA7E4B186022A84E
:102E50000FF0E4FF1EA80FF0E1FF1AA80FF0DEFF4D
:102E600029461AA810F02EF877491EA810F016F877
:102E70001EAA1AA922A8FEF731FD229818F01AFFFF
:102E800051EC100B18F034FDC8F8000022A80FF028
:102E9000C5FF1EA80FF0C2FF1AA80FF0BFFF2946FA
:102EA0001AA810F00FF869491EA80FF0F7FF1EAA24
:102EB0001AA922A8FEF712FD229818F0FBFE51EC89
:102EC000100B18F015FDC9F8000022A80FF0A6FF9E
:102ED0001EA80FF0A3FF1AA80FF0A0FF29461AA8FA
:102EE0000FF0F0FF5A491EA80FF0D8FF1EAA1AA92A
:102EF00022A8FEF7F3FC229818F0DCFE51EC100B30
:102F000018F0F6FC386022A80FF088FF1EA80FF01A
:102F100085FF1AA80FF082FF29461AA80FF0D2FFEA
:102F20004C491EA80FF0BAFF1EAA1AA922A8FEF744
:102F3000D5FC229818F0BEFE51EC100B18F0D8FC0E
:102F4000306022A80FF06AFF1EA80FF067FF1AA8D2
:102F50000FF064FF29461AA80FF0B4FF3E491EA8DF
:102F60000FF09CFF1EAA1AA922A8FEF7B7FC229810
:102F700018F0A0FE51EC100B18F0BAFC206022A84B
:102F80000FF04CFF1EA80FF049FF1AA80FF046FFE4
:102F900029461AA80FF096FF3049314C1EA80FF0B1
:102FA0007DFF1EAA1AA922A8FEF798FC22A8FEF708
:102FB000B3FB2C4B187022A80FF030FF1EA80FF0A7
:102FC0002DFF1AA80FF02AFF29461AA80FF07AFF42
:102FD00025491EA80FF062FF1EAA1AA922A8FEF713
:102FE0007DFC22A8FEF798FB204B187022A80FF05A
:102FF00015FF1EA80FF012FF1AA80FF00FFF2946A9
:103000001AA80FF05FFF1A491EA80FF047FF1EAA6B
:1030100030E000BF2C36FF1FD0A206001CD4FF1FDB
:103020000CC6FF1F9034FF1FE4A206006433FF1F8D
:10303000F8A206004034FF1F04A30600C8B7FF1F14
:1030400010A306005437FF1F1CA306002CA3060084
:1030500034A306003CA3060044A3060050A30600C8
:10306000E4C5FF1F2CC4FF1F58A306007136FF1FC5
:10307000A0A306001AA922A8FEF730FC22A95B48EB
:103080000FF0B8FF22A80FF0C9FE1EA80FF0C6FE71
:103090001AA80FF0C3FE29461AA80FF013FF5449CF
:1030A0001EA80FF0FBFE1EAA1AA922A8FEF716FC06
:1030B00022A950480FF09EFF22A80FF0AFFE1EA8D5
:1030C0000FF0ACFE1AA80FF0A9FE29461AA80FF0BF
:1030D000F9FE49491EA80FF0E1FE1EAA1AA922A86E
:1030E000FEF7FCFB22A810F0DDF8444B22A883ED8C
:1030F000000A0FF093FE1EA80FF090FE1AA80FF022
:103100008DFE29461AA80FF0DDFE3D491EA80FF0DE
:10311000C5FE1EAA1AA922A8FEF7E0FB22A810F0FD
:10312000BBF8384B186022A80FF078FE1EA80FF0ED
:1031300075FE1AA80FF072FE29461AA80FF0C2FEFB
:1031400031491EA80FF0AAFE1EAA1AA922A8FEF74E
:10315000C5FB22A810F0A0F82C4B186022A80FF095
:103160005DFE1EA80FF05AFE1AA80FF057FE294662
:103170001AA80FF0A7FE26491EA80FF08FFE1EAA60
:103180001AA922A8FEF7AAFB22A8FEF7C5FA214B2E
:10319000187022A80FF042FE1EA80FF03FFE1AA8DA
:1031A0000FF03CFE29461AA80FF08CFE1A491EA803
:1031B0000FF074FE1EAA1AA922A8FEF78FFB22A800
:1031C000FEF7AAFA207022A80FF028FE1EA80FF022
:1031D00025FE1AA80FF022FE104B22781A7001204B
:1031E00027B0BDE8F0836F46E3E400BFE0C6FF1FF1
:1031F000B0A306002033FF1F68A3060084C4FF1F8E
:1032000074A306003435FF1F78A306008CC5FF1F8A
:103210008CA306004CD9FF1FC0A306007CC4FF1F6F
:10322000F0B58DB0064604A80F460FF04BFE2149BD
:1032300008A80FF033FE08AA04A96846FEF74EFB63
:1032400008A80FF0EBFD04A80FF0E8FD029C64B1A4
:1032500000252C46294668460FF0B0FF029B0278F5
:10326000013514449D4224B2F4D3134908A80FF049
:1032700015FE10220DEB020021460FF055FE04A9A9
:1032800008A80FF04BFF0D490FF050FF01463846DC
:103290000FF0FAFE04A80FF0C1FD08A80FF0BEFD64
:1032A000394630460FF0A8FD68460FF0B7FD3046AE
:1032B0000DB0F0BDE8A30600F0A30600FCA30600D5
:1032C00010B5394C20460FF00FFC2321374813F07E
:1032D00055FC20460FF008FC2121354813F04EFC28
:1032E00020460FF001FC1F21324813F047FC204616
:1032F0000FF0FAFB1D21304813F040FC20460FF080
:10330000F3FB29212D4813F039FC20460FF0ECFB8C
:1033100027212B4813F032FC20460FF0E5FB182143
:10332000284813F02BFC20460FF0DEFB2321264813
:1033300013F024FC20460FF0D7FB2121234813F083
:103340001DFC20460FF0D0FB1721214813F016FC7E
:1033500020460FF0C9FB36211E4813F00FFC204613
:103360000FF0C2FB29211C4813F008FC20460FF087
:10337000BBFB3021194813F001FC20460FF0B4FBD1
:103380002A21174813F0FAFB20460FF0ADFB23214A
:10339000144813F0F3FB20460FF0A6FB2046BDE8CF
:1033A00010400FF0A1BB00BF8C28FF1F08A406002F
:1033B0002CA4060050A4060070A4060090A40600E9
:1033C000BCA40600E4A4060000A5060024A506008F
:1033D00048A5060060A5060098A50600C4A506003D
:1033E000F8A5060024A606004B4A4C4BD2ED007A05
:1033F00093ED007AF8EEE77AF4EEC77AF1EE10FA80
:1034000055DA474A474BD2ED007A93ED007AF4EE55
:10341000C77AF1EE10FA2ADA434BD3ED006AF4EEE4
:10342000E67AF1EE10FA2DDD37EE667AB7EE086A2D
:1034300077EE065A3D493E4AF5EE405A0123F1EE39
:1034400010FA0B7013703BD077EEE67ADFED396A35
:1034500067EEA67AC7EE876A76EE867A364BC3EDBC
:10346000007A72B6354BC3ED007A62B670472F4AC8
:103470000123137072B6314A3149116062B62C4A89
:10348000137070472F4B93ED007AF4EEC77AF1EE8C
:1034900010FA18DA2C4BD3ED006AF4EEE67AF1EE6E
:1034A00010FA04DBB4EEE67AF1EE10FA17DC204BEA
:1034B00003221A7072B6214B214A1A6062B6704715
:1034C000DFED227ACAE71949194B00200222087061
:1034D0001A7072B6194B1E4A1A6062B6704737EE00
:1034E000667AB7EE086A77EE065A11490F4BF5EE89
:1034F000405A01200022F1EE10FA08701A70DFD055
:1035000077EEE67ADFED136A67EEA67AC7EE876A92
:1035100076EE867AA2E700BF901DFF1F1437FF1FCB
:103520001037FF1F68D4FF1F0CD4FF1FF434FF1F98
:10353000381DFF1F6666964018D4FF1F941DFF1F9D
:103540000000A04184D3FF1FACD3FF1F0000000088
:10355000333303416666D640224B1A68002A224A5A
:10356000F0B4D2ED007A2ADDB2EE0E7AF4EEC77A2C
:10357000F1EE10FA1CD402DB4FF0FF321A601B4B45
:103580001B4A1C4C1C4859681C4B576866681C4AEF
:1035900044681C4D1C4819601C491D4B17602E6067
:1035A0001C4A0460F0BCC1ED007A1A60FFF71CBF32
:1035B0009FED197A77EE877AC2ED007ADFE7B1EEF8
:1035C000087AF4EEC77AF1EE10FA03DC9CBF012210
:1035D0001A60D4E79FED107A77EEC77AC2ED007AD1
:1035E000CDE700BF3C1DFF1F701DFF1FDC35FF1F17
:1035F0004036FF1F30C4FF1F1C35FF1FACD3FF1F19
:1036000084D3FF1F0CD4FF1F68D4FF1F1037FF1F88
:103610001437FF1F00004842CDCCCC3D2DE9F047C8
:1036200005462DED028B72B6D14FDFEDD28AD7ED74
:10363000007A88EEA78A62B6CF4ED04C33781BB1A1
:103640002378022B00F0E880DFEDCA7A68EE277A53
:10365000F5EEC07AF1EE10FA07D99FEDC97AF4EED3
:10366000C77AF1EE10FA40F3C380C64B1B78002BEB
:1036700000F0B680A5F1140244F60C639A4200F201
:10368000A480C14B1B78032B00F09F80022B00F01D
:103690001C8107EE905A9FEDBD7AF8EEE77AF4EEC2
:1036A000C77AF1EE10FA00F3B5809FEDB97A67EEB4
:1036B000877AFCEEE77A17EE903ADFF8EC923278F0
:1036C000C9F81C30002A40F07F81B24BD3ED008A4C
:1036D000DFF8F0A2B0484FF00108CAF800800DF002
:1036E000E7FBAE4BF5EEC08AF1EE10FAC3F80080AE
:1036F000CAF8008000F13A81F7EE007AF4EEE78A2A
:10370000F1EE10FA40F3A1814FF480333178C9F81B
:103710002030F0EE087A78EE677A19B12378022B20
:1037200000F0A180B6EE007A67EE877AF5EEC07AF7
:10373000F1EE10FA00F183819FED997A27EE877AF6
:10374000BCEEC77A17EE103A0733DB08B3F5803FBB
:10375000C0F079814FF6FF738F4A1385002940F03E
:103760008A80B3EE0E7A77EEC77A5323F5EEC07AED
:10377000F1EE10FA538500F164819FED897A67EECE
:10378000877AFCEEE77A17EE903A0733DB08B3F559
:10379000803FC0F063814FF6FF7353219385D1853D
:1037A000918E7D4800231363D38609B90123838654
:1037B00079480DF055FB794A012313602370BDEC65
:1037C000028B784B1D60BDE8F087BDEC028B76491B
:1037D000744A00200323086215602370BDE8F08757
:1037E000BDEC028B704903220B622270BDE8F087AA
:1037F000DFED6E6ABEEE007AA7EEA67AFCEEC77A1F
:1038000017EE902A232A7FF630AF694969480FF0F6
:10381000B1F82AE7684B50E766480FF0F5F8DFED9E
:10382000677AB6EE007AE8EE077A67EEA88AF5EED8
:10383000C08AF1EE10FA7FF618AFDFED517AF4EEA0
:10384000E78AF1EE10FA3FF710AF9FED587AFEEEDF
:10385000007AE8EE877AFCEEE77A17EE902A232AC0
:103860007FF603AFD1E74C4AB6EE007A40F251132F
:1038700067EE877A1385D7ED006AB3EE047AF4EE2B
:10388000476AF1EE10FA7FF46CAFB2EE047A77EE8D
:10389000C77A1C23F5EEC07AF1EE10FA538500F1D9
:1038A000DB809FED3F7A67EE877AFCEEE77A17EED2
:1038B000903A0733DB08B3F5803FC0F0D1804FF674
:1038C000FF731C219385D1856AE72378022B3FF48F
:1038D00076AF3B4A3B4B92ED008A2F4801221A609B
:1038E0000DF0E6FA07EE905A9FED287AF8EEE77AA7
:1038F000F4EEC77AF1EE10FA00F3B4809FED247A6B
:1039000067EE877AFCEEE77A17EE903ADFF8989048
:10391000B5EEC08AF1EE10FAC9F81C3000F1A780AC
:10392000F7EE007AB4EEE78AF1EE10FA40F3A180E8
:103930004FF48032184B194F2248C9F82020012635
:1039400040F251114FF080423E60066019851A63C3
:10395000532100221846DE85598599869A85DA8694
:103960000DF07EFA02233E60237028E70023CDE6A7
:10397000941DFF1F00007A44F434FF1F981DFF1FA1
:103980008988884CD835FF1F381DFF1FA655AC46C7
:103990004B24BE47601DFF1F48C5FF1F08E100E024
:1039A00079783042F8BBFF1F7833FF1F0000704268
:1039B000993A000040C5FF1F80FFFF7F07E7734271
:1039C000AC1DFF1F88E100E097ED007A2C4BF3EE71
:1039D000047AB4EE677AF1EE10FA2CD0294A9FED02
:1039E0002A6AD2ED008A294AD3ED007AD2ED006A24
:1039F00038EE867AB5EE407AF1EE10FA34D0B7EEB2
:103A0000087A77EEC77A36EEE87A27EE877AC7EE3D
:103A1000067A78EEA77AF4EEE78AF1EE10FA3FF72D
:103A200057AEF4EEE76AF1EE10FA54BFF0EE678A93
:103A3000F0EE668A4CE6154BD3ED008A48E600238B
:103A40008AE60023A9E69BB286E6F0EE687AFEEEEF
:103A5000C87A17EE903A59E6002332E79BB29CE60B
:103A60009BB22EE70A4B51E7DFED0A7AD3E700223B
:103A700060E7F0EE487AFEEEC87A17EE902A59E732
:103A8000941DFF1F681DFF1F66669640641DFF1F83
:103A900080FFFF7F0000000008B510480DF000FF18
:103AA0000F4B1B7873B10F4B1B78032B11D0022BDC
:103AB00002D00D4B1B7833B94FF4C870BDE80840F5
:103AC000FFF7ACBD08BD4FF4C860BDE80840FFF784
:103AD000A5BD0020BDE80840FFF7A0BD90C5FF1FB1
:103AE000D835FF1F381DFF1FF434FF1F70B5354D4B
:103AF00082B0012244F620638DE80C00697B2869BE
:103B00000423782208F0CEFD10F0F2FA44F61F6686
:103B100004462A69D2F83831D2F834219B1A032B93
:103B20000ADD10F0E5FA44F61F63001B98420FD936
:103B3000BFEE000A02B070BD10F0DAFA001BB0420E
:103B4000E7D910F0D5FA44F61F63001B9842EFD86E
:103B5000286908F0C1FD0446286908F0BDFD240667
:103B6000000400F47F0304F07C54286944EA03064F
:103B700008F0B2FD0446286908F0AEFD2402C3B285
:103B800004F47F441C4344F6206300936A7B296954
:103B90000C4846EA5414012308F06EFD230C07EE8E
:103BA000903AB8EEE77ADFED087A9FED080ADFED8C
:103BB000086A77EE677A67EE807A27EEA60A02B087
:103BC00070BD00BF70D9FF1FCDCCCC4400000039C0
:103BD00000007A442DE9F843154D07462C6819F08A
:103BE0006FF9C4F50044844220D3124EDFF84890A8
:103BF00034688046C4F5004444453068A8BF444654
:103C00002246394648440FF02BFDC4EB080239190F
:103C100048460FF025FD384619F052F93368034441
:103C2000C3F30E0333602B6818442860BDE8F883A3
:103C3000A0C6FF1F3434FF1F6437FF1F424B1B78A1
:103C400053B1F0B5414D2B68B3F5007FADF5017D63
:103C500003D20DF5017DF0BD704700244FF47A7357
:103C60003B4E3C4A3C4902938DF8044044F2022307
:103C70008DF80C408DF810408DF811408DF81240F1
:103C800004A804AC009609F0F1FD0FCC334F9DF869
:103C900004603E7107F110060FC60FCC0FC63B7CC7
:103CA000206802999DF80C203060B9603A73002BAF
:103CB00041D02B68B3F5007F37D9294F294E0CE04E
:103CC0003B6009F0E1FF72B62B68A3F500732B602F
:103CD00062B62B68B3F5007F27D93C683968C4F514
:103CE0000044B4F5007FA8BF4FF40074224631446D
:103CF00068460FF0B5FCC4F500721A490DEB0400DC
:103D00000FF0AEFC3B6818484FF40072134423F0E8
:103D1000FF4323F4FF03002B6946D1DA013B6FEA2E
:103D200043436FEA53430133CAE70F4809F02EFDBE
:103D30000DF5017DF0BD20210C4812F01FFF0C484D
:103D40000EF0D2FE85E700BF7CC4FF1FA0C6FF1F98
:103D500084970600ECC4FF1F7CD4FF1FA4C6FF1F7E
:103D60002037FF1F6437FF1FB4C6FF1F48A6060099
:103D70008C28FF1F10B5164C237893B10021052025
:103D80000FF0FCFF00231349134823700DF008FDCA
:103D90000A21124812F0F2FE1148BDE810400EF060
:103DA000A3BEC82105200FF0E9FF0E490A480DF017
:103DB000F7FC40F2DC5010F0BFF901230A210A4859
:103DC000237012F0DBFE0648BDE810400EF08CBEFA
:103DD000D835FF1F64780200CCBAFF1F78A6060012
:103DE0008C28FF1F682903006CA60600FFF7C2BFDE
:103DF00010B52DED028B9FED1A8A052427200FF0B8
:103E00006DFB07EE900AF8EEE77A013C38EE278A60
:103E1000F4D1144A144B92ED007AD3ED007A9FED61
:103E2000100AB8EEC77AF8EEE77A77EEC77A77EE3F
:103E3000806AF4EE406AF1EE10FA0DD0B1EE046A39
:103E4000C8EE066AB3EE096A36EEC77A27EE067A3E
:103E5000C7EE276A36EE800ABDEC028B10BD00BFAC
:103E600000000000501DFF1F7C1DFF1FF8B5FFF76D
:103E7000BFFF0D4B0D4DDA680D4C0E4B0E49EF6830
:103E80001A60E5680D4E0E4C0E4B0F4881ED000A8E
:103E90000E4A0F49C068376025601A60BDE8F840D7
:103EA0000860FFF7A1BA00BFDC35FF1F4036FF1FD7
:103EB00030C4FF1FACD3FF1F1037FF1F84D3FF1F79
:103EC0000CD4FF1F1437FF1F1C35FF1F0000484292
:103ED00068D4FF1F2DE9F041174D10200FF0FEFAB6
:103EE0002F68012F24DDD5F804E055F8278084469B
:103EF00073460435012204E0B44517DDA74212D011
:103F0000224655F8041F0B4403EBD373C6454FEA12
:103F1000630602F1010402F1FF300B46ECDDB4450B
:103F2000ECDBBDE8F0811046BDE8F081BDE8F08132
:103F30000020BDE8F08100BFC0D3FF1F70B59EB068
:103F400000240546354968460EF0A8FF4FF47A76FE
:103F50002A462346324D33498DF814408DF81C40D3
:103F60008DF820408DF821408DF822408DF8484092
:103F70008DF850408DF854408DF855408DF85640DE
:103F800015A815AC049511950696139609F06EFCCC
:103F90000FCC08AD0FC50FCC0FC59DF8203024689D
:103FA0009DF8480013999DF850202C608DF814005E
:103FB00006918DF81C2053B31B074FF0010211A985
:103FC00008A813D408A809F0E1FB694611A80EF06F
:103FD00079FF11A8FEF76EFB044611A80EF01EFF34
:103FE00068460EF01BFF20461EB070BD0F9C0D9B57
:103FF0009C42E7D009F048FC01280CBF9DF8441012
:10400000FF2168460FF052F89DF82030D4E768464B
:104010001C460EF003FF20461EB070BDD4B507004D
:10402000849706007CD4FF1FF0B59BB000240246A5
:104030004FF47A76244D8DF8044040F201638DF8F8
:104040000C408DF810408DF811408DF812408DF81D
:1040500038408DF840408DF844408DF845408DF84B
:1040600046400F4611A81949029611AC0F960095CB
:104070000D9509F0FBFB0FCC04AD0FC50FCC0FC5A0
:104080009DF8106020689DF838100F9A9DF8403018
:1040900028608DF8041002928DF80C304EB91A2168
:1040A0000B4812F06BFD0B480EF01EFD30461BB0A6
:1040B000F0BD394668460EF0F1FC04A809F066FB35
:1040C00001201BB0F0BD00BF849706007CD4FF1F09
:1040D00084A606008C28FF1F10B588B068460A49E0
:1040E0000EF0DCFE694604A80EF0ECFE04A8FEF714
:1040F000E1FA044604A80EF091FE68460EF08EFE2A
:10410000204608B010BD00BF5498060084B02DE9C9
:10411000F0432DED028B83B00CAD9DF84040012C97
:1041200085E80F000DD0022C5DD0032C3CD000257B
:1041300000EE105A03B0BDEC028BBDE8F04304B0B2
:10414000704710EE100A17F087F841EC180B0025A5
:104150000CAE0324204617F06DF8B0EE480AF0EEDE
:10416000680A41EC110B56F8047B13F0A1F953ECEB
:10417000102B3846CDE9002317F06EF8DDE9002357
:1041800017F0BEF880462846894617F065F80B46BA
:1041900002464946404616F001FF17F0A9FB013CD4
:1041A000631C0546D6D1C3E70E988DED000A17F0C3
:1041B00053F89DED000ADDED0F7A60EE277A044694
:1041C00017EE900A0D4617F047F841EC100B13F06C
:1041D00063F8294653EC102B204617F091F817F09E
:1041E00087FB0546A4E70E988DED000A17F034F81A
:1041F0009DED000A044610EE100A0D4617F02CF84B
:1042000041EC100B13F0CCF8204653EC102B294650
:1042100017F076F804460F980D4617F01DF8024681
:104220000B462046294616F0B9FE17F061FB0546FD
:104230007EE700BFFFFFFFFF2DE9F04FB04BB14914
:104240001B782DED068B0122AFB00A70002B37D002
:1042500010F05CFEAC4F9FEDAD8ADFEDAD9A9FEDA7
:10426000AD9ADFEDAD8A0028BA4629DD10F04EFE8A
:104270003B68DFF8E882A94EA94DAA4C9842B8BF26
:10428000DAF80000386010F051FED8F800300593DD
:10429000DDF814E0A4493368AA68C1F800E00133EE
:1042A000C1B2E52A336021707ED8A04E002A5DD1CC
:1042B00033780A2B5AD0317010F028FE0028D5DC54
:1042C0009B4B1B78002B49D010F038FB994FDFED4A
:1042D0008F8A9FED998A9FED999A0028B8463DDD17
:1042E00010F02CFB3B68DFF87492954C954E984289
:1042F000B8BFD8F8000038601EAD002128460EF087
:10430000CDFD002122A80EF0C9FD002126A80EF047
:10431000C5FD00212AA80EF0C1FD10F01FFBD9F841
:1043200000301293884B129A1A60A368C1B2312BE5
:10433000317040D8002B46D1242946D02AA80EF04F
:104340006DFD26A80EF06AFD22A80EF067FD284636
:104350000EF064FD10F0F2FA0028C1DC694A002377
:1043600013702FB0BDEC068BBDE8F08FDFF8B09175
:1043700048460EF09BFE21780A299CD17349744867
:104380000EF006FF8346002830D0D9F808304A2BBB
:1043900000F02F83E12B00F037836E4960480EF068
:1043A00031FE2178317087E76A4928460EF02AFEEF
:1043B000AA68217879E7674920460EF023FEA368B2
:1043C0003178002BB8D00A2903D05D480EF06EFE7C
:1043D000B4E75B4E002130460EF0F0FE0378242B4C
:1043E0003FD05C4956480EF00DFEA7E75A495848A1
:1043F0000EF0CEFE0390002800F04A81D9F8082084
:10440000352ACAD10AAB1846594602930EF046FD2A
:104410005D46D946494642480EF0D0FE09F10109F1
:104420000378B9F1310F1D44F4D10DF1780B4A46F0
:10443000332358463A490EF00BFF002158460EF040
:10444000BDFE102200211AF0F9F8EDB2814658465F
:104450000EF0E4FC4D4500F0B48602980EF0DEFC50
:104460009BE7B368142BBCD94FF0000A5646DFF81F
:10447000D0B0314658460EF0A1FEA2680178013650
:10448000131FB3428A44F2D8531E1AA8033A59465E
:104490000EF0DEFE00211AA80EF090FE1022002180
:1044A0001AF0CCF85FFA8AFA06461AA80EF0B6FCA3
:1044B000564596D1DBF80830043B152B50D94FF008
:1044C000000A15260AE00AF1010ABAF1030F06F103
:1044D000010645DCA368043BB34241D93146184884
:1044E0000EF06CFE037816482C2B3146EBD00EF004
:1044F00065FE017805EB0A100EF0D8FDE5E700BF78
:104500007136FF1F1837FF1F08C6FF1F0000C84283
:10451000C0CFF83F48F95140000070423033FF1FD0
:104520000435FF1FA034FF1F94D3FF1F10D4FF1FBB
:104530002CC4FF1FA434FF1FCDCC9C3F0000000003
:10454000A8BAFF1F3C36FF1F50D9FF1FA0A60600C8
:104550004034FF1FD4B50700CCA6060060DCFF1F67
:1045600072B628460EF098FE3F4B07EE900A1A6985
:1045700000920FCBB8EEE70AFFF7C8FD3B4B83ED87
:10458000000A62B672B622A80EF086FE384B07EE1D
:10459000900A1A690092B8EEE70A0FCBFFF7B6FD52
:1045A000344B83ED000A93ED007A27EE287AC7EEAC
:1045B000087A77EEA77AF5EEC07AF1EE10FA48DDC8
:1045C000D3ED007A67EEA87A87EE887A77EE077ADD
:1045D00017EE900A16F040FE41EC100B13F004F9B0
:1045E0001FA3D3E9002351EC100B16F089FE17F03E
:1045F0007FF9214B186062B672B626A80EF04CFE09
:104600001E4B07EE900A1A6900920FCBB8EEE70A2C
:10461000FFF77CFD1A4B83ED000A62B672B62AA83A
:104620000EF03AFE174B07EE900A1A6900920FCB74
:10463000B8EEE70AFFF76AFD134B83ED000A62B696
:1046400072B6D9F800301693104B169A1A6062B6FB
:10465000C7E6094B83ED009ACDE700BFAFF30080BA
:1046600000000000F819FF3F24C6FF1FBC35FF1FE4
:104670000C33FF1F5837FF1F0035FF1FA834FF1FE3
:1046800084C5FF1FE436FF1FFC36FF1F20D4FF1F29
:10469000C149C2480EF07CFD8346002800F0F2813B
:1046A000D9F808303B2B7FF478AE039948460EF0DA
:1046B00085FD03783D2B7FF470AE012148460EF056
:1046C0007DFD0378312B7FF468AE484602210EF061
:1046D00075FD0378312B7FF460AE0AAB039902932A
:1046E00018460D460EF0DAFBA9464946AC480EF0D6
:1046F00065FD09F101090378B9F1370F1D44F4D1C3
:104700000DF1780B4A4639235846A5490EF0A0FD15
:10471000002158460EF052FD1022002119F08EFFA4
:10472000EDB2814658460EF079FB4D457FF495AECB
:104730001B23172258469A490EF08AFD029D5946BE
:1047400028460EF057FC58460EF068FB72B69549A5
:1047500028460EF01DFD48B902980EF0A3FDF2EEBA
:10476000047A80EE270A904B83ED000A62B60F238D
:104770000B2258468A490EF06BFD029D5946284689
:104780000EF038FC58460EF049FB72B685492846B3
:104790000EF0FEFC48B902980EF084FDF2EE047AA9
:1047A00080EE270A814B83ED000A62B614230F22A4
:1047B00058467B490EF04CFD029D594628460EF0A6
:1047C00019FC58460EF02AFB72B6794928460EF0BD
:1047D000DFFC48B902980EF065FDF2EE047A80EE37
:1047E000270A744B83ED000A62B617231422584639
:1047F0006B490EF02DFD029D594628460EF0FAFB3E
:1048000058460EF00BFB72B66B4928460EF0C0FC02
:1048100020B902980EF040FD684B186062B628235C
:10482000252258465E490EF013FD029D5946284642
:104830000EF0E0FB58460EF0F1FA72B65E492846DB
:104840000EF0A6FC38B902980EF02CFD80EE080A96
:104850005B4B83ED000A62B62B2328225846504951
:104860000EF0F6FC029D594628460EF0C3FB584652
:104870000EF0D4FA72B6504928460EF089FC48B9B9
:1048800002980EF00FFDF2EE047A80EE270A4D4BEF
:1048900083ED000A62B621231B22584640490EF0E0
:1048A000D7FC029D594628460EF0A4FB58460EF050
:1048B000B5FA72B6444928460EF06AFC20B902984F
:1048C0000EF0EAFC414B186062B631232D225846A7
:1048D00033490EF0BDFC029D594628460EF08AFB76
:1048E00058460EF09BFA72B62E4928460EF050FC40
:1048F00038B902980EF0D0FC354A00EB8000430036
:104900001360D8F800300893324B089A1A60244993
:10491000052303221AA80EF09BFC1AA958460EF094
:10492000D1FA2D4958460EF001FC07230522054611
:104930001B4916A80EF08CFC16A928460EF0EEFBBB
:1049400025490EF0F3FB092307220546144912A856
:104950000EF07EFC12A928460EF0E0FB1F490EF077
:10496000E5FB0B23054609220EA80D490EF070FC4D
:104970000EA928460EF0D2FB014619480EF032FB74
:104980000EA80EF04BFA12A80EF048FA16A80EF078
:1049900045FA584626E000BFD8A606004034FF1F5F
:1049A0000435FF1F1CB306009C33FF1F6CD4FF1F90
:1049B000E4A606009CC6FF1FECA60600B01DFF1F64
:1049C000DCC5FF1FB8BAFF1FF0A606005037FF1F57
:1049D0005C36FF1FD4B7FF1FC8A606005CAF0600F9
:1049E000FCBBFF1F0EF01AFA1AA80EF017FA62B6F7
:1049F00033E5002148460EF0E1FB0378212B00F05F
:104A0000A181D9F80830C5E40021C1480EF0D6FBD9
:104A10000378212B7FF4C1AC0121BD480EF0CEFB01
:104A20000378332B7FF4B9AC0DF1680900214846B7
:104A300088460EF033FA45462946B5480EF0BEFBCF
:104A400001350378DD2D9844F6D10DF1780B2A4617
:104A5000DF235846AE490EF0FBFB002158460EF00E
:104A6000ADFB1022002119F0E9FD5FFA88F8054638
:104A700058460EF0D3F9A84500F0C98048460EF01C
:104A8000CDF98AE4A349A4480EF082FB00283FF444
:104A900084ACD9F808303B2B00F08883DD2B7FF401
:104AA0007CAC00219A480EF089FB03783D2B7FF403
:104AB00074AC012196480EF081FB0378332B7FF410
:104AC0006CAC022192480EF079FB0378312B7FF415
:104AD00064AC0DF168090021484688460EF0DEF905
:104AE000454629468A480EF069FB01350378D92DE1
:104AF0009844F6D10DF1780B2A46DB2358468449B9
:104B00000EF0A6FB002158460EF058FB10220021A3
:104B100019F094FD5FFA88F8054658460EF07EF9C4
:104B2000A845ABD12F232C22584679490EF090FB93
:104B3000594648460EF05EFA58460EF06FF972B6C6
:104B4000764948460EF024FB48B948460EF0AAFBC9
:104B5000F2EE047A80EE270A714B83ED000A62B60A
:104B600020231D2258466A490EF072FB59464846DA
:104B70000EF040FA58460EF051F972B667494846B1
:104B80000EF006FB48B948460EF08CFBF2EE047AB4
:104B900080EE270A634B83ED000A62B61D231A22BA
:104BA00058465B490EF054FB594648460EF022FA2F
:104BB00058460EF033F972B6584948460EF0E8FAF6
:104BC00048B948460EF06EFBF2EE047A80EE270AF2
:104BD000554B83ED000A62B61623122258464C4903
:104BE0000EF036FB594648460EF004FA58460EF0D1
:104BF00015F972B64D4948460EF0CAFA002840F041
:104C0000848048460EF048FB494B18607DE02F2316
:104C10002C2258463E490EF01BFB594648460EF0E2
:104C2000E9F958460EF0FAF872B6424948460EF0D5
:104C3000AFFA002800F05284394B3F4A1A6062B63E
:104C400020231D22584632490EF002FB59464846A1
:104C50000EF0D0F958460EF0E1F872B635494846E4
:104C60000EF096FA002800F02D842E4B324A1A607E
:104C700062B61D231A22584625490EF0E9FA594614
:104C800048460EF0B7F958460EF0C8F872B62949F2
:104C900048460EF07DFA002800F02C84224B264A6C
:104CA0001A6062B616231222584619490EF0D0FA3D
:104CB000594648460EF09EF958460EF0AFF872B6C7
:104CC0001E4948460EF064FA002800F0F583184BA0
:104CD0004FF0FF321A6062B6DC23D92258460C49E5
:104CE0000EF0B6FA594648460EF084F958460EF0D2
:104CF00095F872B60F4948460EF04AFA002800F0BF
:104D000073830F4B4FF0FF321A6062B6B6E600BFF6
:104D10000435FF1FF8A606004034FF1FECA606006E
:104D20003836FF1F38BBFF1FC4BAFF1F1CB3060075
:104D300048C4FF1FBCA60600000080BFACA606004A
:104D400014D9FF1F012148460EF038FA0378312BA1
:104D50007FF457AE0AAB002118460D4602930EF0C1
:104D60009DF8A9464946C1480EF028FA09F1010903
:104D70000378B9F1460F1D44F4D10DF1780B4A4682
:104D800048235846B9490EF063FA002158460EF000
:104D900015FA1022002119F051FCEDB28146584657
:104DA0000EF03CF84D457FF458AB1B2317225846B4
:104DB000AE490EF04DFA029D594628460EF01AF9FA
:104DC00058460EF02BF872B6A94928460EF0E0F9C5
:104DD000002800F08981A74BA74A1A6062B60F230A
:104DE0000B225846A1490EF033FA029D5946284637
:104DF0000EF000F958460EF011F872B69C4928469C
:104E00000EF0C6F9002800F0C6819C4B9C4A1A603F
:104E100062B614230F22584694490EF019FA029DE7
:104E2000594628460EF0E6F858460DF0F7FF72B6E0
:104E3000944928460EF0ACF9002800F0A181924B6D
:104E40008F4A1A6062B617231422584687490EF01B
:104E5000FFF9029D594628460EF0CCF858460DF051
:104E6000DDFF72B6894928460EF092F9002800F05D
:104E70008181874B4FF0FF321A6062B628232522CA
:104E800058467A490EF0E4F9029D594628460EF03C
:104E9000B1F858460DF0C2FF72B67C4928460EF0B4
:104EA00077F9002800F05D817A4B754A1A6062B686
:104EB0002B23282258466D490EF0CAF9029D594607
:104EC00028460EF097F858460DF0A8FF72B66F49C5
:104ED00028460EF05DF9002800F038816E4B684AD4
:104EE0001A6062B62D232B22584660490EF0B0F9A5
:104EF000029D594628460EF07DF858460DF08EFF6B
:104F000072B6664928460EF043F9002800F0188171
:104F1000634B4FF0FF321A6062B621231B225846C2
:104F200052490EF095F9029D594628460EF062F856
:104F300058460DF073FF72B65A4928460EF028F90C
:104F4000002800F0F780584B584A1A6062B63123A7
:104F50002D22584645490EF07BF9029D59462846B8
:104F60000EF048F858460DF059FF72B640492846F1
:104F70000EF00EF9002800F0D4804D4B4B4A1A6019
:104F800062B638233422584638490EF061F9029D42
:104F9000594628460EF02EF858460DF03FFF72B6DF
:104FA000334928460EF0F4F8002800F0AF80414D58
:104FB000314B2B6062B63423312258462B490EF018
:104FC00047F9DDF80890594648460EF013F8584660
:104FD0000DF024FF72B62D4948460EF0D9F800288E
:104FE00000F08D80264B2B6062B672B6052303223B
:104FF0001AA81E490EF02CF91AA958460DF062FFA6
:1050000058462D490EF092F8072305220546174908
:1050100016A80EF01DF916A928460EF07FF82649AD
:105020000EF084F8092307220546104912A80EF055
:105030000FF912A928460EF071F820490EF076F803
:105040000B230922054609490EA80EF001F90EA905
:1050500028460EF063F8014619480DF0C3FF0EA86C
:105060000DF0DCFE12A80DF0D9FE2BE00435FF1F79
:10507000ACA606009C33FF1F000080BF6CD4FF1F4E
:105080000000C8C2B4A606009CC6FF1FBCA606004E
:10509000B01DFF1FDCC5FF1FB8BAFF1FC4A6060066
:1050A000D8B9FF1FC0A606005037FF1FF0D8FFFF7A
:1050B0005C36FF1F6836FF1FC8A606005CAF0600FF
:1050C000FCBBFF1F16A80DF0A9FE58460DF0A6FE6A
:1050D0001AA80DF0A3FED8F800300693C54B069A27
:1050E0001A6062B6FFF7B9B902980EF0DBF8F2EE7B
:1050F000047A80EE270AC04B83ED000A6EE6029820
:105100000EF0D0F8BD4B83ED000A6DE70298BC4D60
:105110000EF0C8F8F2EE047A80EE270A85ED000A58
:1051200048E702980EF0B8F8B64A00EB800043005A
:10513000136025E702980EF0AFF8B34B186005E74F
:1051400002980EF0A9F8B14B1860E5E602980EF04F
:10515000A9F8F2EE047A80EE270AAD4B83ED000A3F
:10516000BFE602980EF09EF880EE080AA94B83ED88
:10517000000A9CE602980EF08FF8A74B18607CE6B8
:1051800002980EF08FF8F2EE047A80EE270AA34B15
:1051900083ED000A56E602980EF084F8F2EE047AE7
:1051A00080EE270A9E4B83ED000A31E659464846B9
:1051B0000EF004F803783D2B00F03C81D9F808305C
:1051C0006CE418231422584696490EF041F8029DCB
:1051D000594628460DF00EFF58460DF01FFE72B6D8
:1051E00028460EF05FF8B2EE04AA80EE0A0A824B5F
:1051F00060EE297AC3ED007A62B60C230822584685
:1052000088490EF025F8594628460DF0F3FE584619
:105210000DF004FE72B628460EF044F880EE0A0A3D
:105220007F4B83ED000A62B611230C2258467D495C
:105230000EF00EF8594628460DF0DCFE58460DF0EB
:10524000EDFD72B628460EF02DF880EE0A0A734B7B
:1052500083ED000A62B624232122584671490DF0DD
:10526000F7FF594628460DF0C5FE58460DF0D6FD0D
:1052700072B628460EF016F880EE080A654B83EDEC
:10528000000A62B627232422584666490DF0E0FF43
:10529000594628460DF0AEFE58460DF0BFFD72B6D9
:1052A00028460DF0FFFF80EE0A0A594B83ED000AF5
:1052B00062B62923272258465A490DF0C9FF59469C
:1052C00028460DF097FE58460DF0A8FD72B6284608
:1052D0000DF0E2FF4D4B186062B62F232D22584689
:1052E00050490DF0B5FF594628460DF083FE58464B
:1052F0000DF094FD012128460DF060FF10220021E1
:1053000019F09CF9C30738D51D2318225846454982
:105310000DF09EFF029D594628460DF06BFE584643
:105320000DF07CFD72B628460DF0B6FF07EE900A30
:10533000F8EEE77A344B67EE897AFDEEE77AC3ED53
:10534000007A62B621231D22584636490DF080FFAF
:10535000594628460DF04EFE58460DF05FFD72B6D8
:1053600028460DF09FFF80EE0A0A264B60EE287A51
:10537000FDEEE77AC3ED007A62B6D8F80030079305
:105380001C4B079A1A6072B6022300221AA82549FC
:105390000DF05EFF1AA958460DF094FD22495846BB
:1053A0000DF0C4FE0423022205461E4916A80DF086
:1053B0004FFF16A928460DF0B1FE1B490DF0B6FEB1
:1053C000062304220546174912A80DF041FF12A931
:1053D00028460DF0A3FE15490DF0A8FE082305464A
:1053E00006220EA8FFF7C1BA48460DF055FF104B34
:1053F00018608AE4D4B7FF1F9C33FF1F1435FF1FCA
:105400006836FF1F5C36FF1F5037FF1FD8B9FF1FDC
:10541000B8BAFF1FDCC5FF1FB01DFF1F9CC6FF1FD2
:105420006CD4FF1F0435FF1FC8A606005CAF060042
:1054300014D9FF1F012148460DF0C0FE0378312B1F
:105440007FF4BCAE022148460DF0B8FE0378312B44
:105450007FF4B4AE0AAB1846594602930DF01EFD18
:10546000D946494629480DF0A9FE09F101090378FA
:10547000B9F1370F9B44F4D1CDF80CB00DF1780B96
:105480004A463923584621490DF0E2FE002158468C
:105490000DF094FE1022002119F0D0F881465846F4
:1054A0000DF0BCFC9DF80C204A4539D002980DF057
:1054B000B5FCAB68FFF7F2BA48460DF0EDFE144BB1
:1054C000186008E448460DF0EDFEF2EE047A80EE36
:1054D000270A104B83ED000AFFF7CABB48460DF0C0
:1054E000E1FEF2EE047A80EE270A0B4B83ED000A10
:1054F000FFF7A5BB48460DF0D5FEF2EE047A80EE2C
:10550000270A064B83ED000AFFF7CBBB0435FF1FCC
:1055100048C4FF1F38BBFF1F3836FF1FC4BAFF1F28
:105520001B2317225846BC490DF092FEDDF8089067
:10553000594648460DF05EFD58460DF06FFC72B6B8
:10554000B64948460DF024FE48B902980DF0AAFE6F
:10555000F2EE047A80EE270AB14B83ED000A62B6C0
:105560000F230B225846AC490DF072FEDDF808906F
:10557000594648460DF03EFD58460DF04FFC72B6B8
:10558000A64948460DF004FE48B902980DF08AFE7F
:10559000F2EE047A80EE270AA24B83ED000A62B68F
:1055A00014230F2258469C490DF052FEDDF8089056
:1055B000594648460DF01EFD58460DF02FFC72B6B8
:1055C000994948460DF0E4FD48B902980DF06AFE8D
:1055D000F2EE047A80EE270A944B83ED000A62B65D
:1055E0001723142258468C490DF032FEDDF808903E
:1055F000594648460DF0FEFC58460DF00FFC72B6B9
:105600008B4948460DF0C4FD20B902980DF044FEC8
:10561000884B186062B62823252258467E490DF033
:1056200017FEDDF80890594648460DF0E3FC584651
:105630000DF0F4FB72B67E4948460DF0A9FD38B96D
:1056400002980DF02FFE80EE080A7B4B83ED000AD6
:1056500062B62B23282258466F490DF0F9FDDDF87C
:105660000890594648460DF0C5FC58460DF0D6FB4B
:1056700072B66F4948460DF08BFD48B902980DF09F
:1056800011FEF2EE047A80EE270A6C4B83ED000ADD
:1056900062B62D232B2258465F490DF0D9FDDDF867
:1056A0000890594648460DF0A5FC58460DF0B6FB4B
:1056B00072B6634948460DF06BFD20B902980DF0B3
:1056C000EBFD604B186062B621231B2258465249FD
:1056D0000DF0BEFDDDF80890594648460DF08AFCF5
:1056E00058460DF09BFB72B6574948460DF050FDE9
:1056F00020B902980DF0D0FD544B186062B63423E7
:105700003122584644490DF0A3FDDDF80890594672
:1057100048460DF06FFC58460DF080FB72B64449C8
:1057200048460DF035FD48B902980DF0B5FD07EE7D
:10573000900A474BF8EEE77AC3ED007A62B6312360
:105740002D22584634490DF083FDDDF80890594666
:1057500048460DF04FFC58460DF060FB72B62F49DD
:1057600048460DF015FD38B902980DF095FD394AFF
:1057700000EB800043001360D8F800300993364BEB
:10578000099A1A601AA80523032223490DF060FD27
:105790001AA958460DF096FB304958460DF0C6FC44
:1057A0000723052280461C4916A80DF051FD16A9B5
:1057B00040460DF0B3FC29490DF0B8FC092307223F
:1057C0008046154912A80DF043FD12A940460DF080
:1057D000A5FC23490DF0AAFC0B23092280460E49A3
:1057E0000EA80DF035FD0EA940460DF097FC0146C0
:1057F0001C480DF0F7FB0EA80DF010FB12A80DF0E1
:105800000DFB16A80DF00AFB58460DF007FB1AA871
:105810000DF004FB62B649E60435FF1F1CB3060019
:105820009C33FF1F6CD4FF1FE4A606009CC6FF1F1D
:10583000ECA60600B01DFF1FDCC5FF1FB8BAFF1F96
:10584000F4A60600D8B9FF1FF0A606005037FF1FC8
:105850001435FF1F5C36FF1FD4B7FF1FC8A6060014
:105860005CAF0600FCBBFF1F024B1B780BB9FEF7B9
:10587000E3BC70471837FF1F00B5B0EE007AD0EEDA
:10588000070A274B2DED028B1B68F0EE407A83B0A0
:1058900087EEA00A9BB307EE903AF8EEE77AB7EEF0
:1058A000007A87EE278A1F4B1F4A1B6803EB83038E
:1058B00002EB83031A6900920FCBFEF727FC1B4B08
:1058C0009FED1B7AD3ED006AF7EE007A77EEC87A87
:1058D00067EEA67AE0EE087AF4EEC77AF1EE10FAF7
:1058E00006DCBBEE047AF4EEC77AF1EE10FA09D5C5
:1058F00083ED007A03B0BDEC028B5DF804FBB7EEDC
:10590000008AD0E7F4EE677AF1EE10FA68BFF0EEA5
:10591000477AC3ED007A03B0BDEC028B5DF804FB5F
:10592000841DFF1F7433FF1F8036FF1F1037FF1FBA
:1059300000002042FFFFFFFF2DE9F04F2DED048B0B
:10594000ADF22C5D0DF5167A564654460DF5A5655B
:105950002046002110340DF0A1FAAC42F8D1674D79
:105960000DF15704AB46A0460027A1462B7C6448A6
:105970001C074FF0010210A920D462480DF0B4F8C2
:105980001821614811F0FAF85E480DF0ADF85C4856
:1059900007F0FCFE5D480DF037F8FDF725FD0DF52D
:1059A000A36492AD2046103C0DF038FAAC42F9D118
:1059B0000DF22C5DBDEC048BBDE8F08FDBF82430DC
:1059C000DBF82C409C42D8D007F05EFF01281CD0A9
:1059D000FF2340F2FF120137974208F8013FC5D17B
:1059E0003D214B4811F0CAF846480DF07DF80DF501
:1059F000A564103C20460DF011FA5445F9D10DF282
:105A00002C5DBDEC048BBDE8F08F9DF840300A2B77
:105A1000DFD14C46002F00F0BF830DF5A5631F4476
:105A20006FF49A631F44002503E0BC4205F10105B1
:105A300009D014F8011F2C290AEB0510F5D00DF040
:105A400035FBBC42F5D1334910A80DF027FA10A957
:105A500050460DF0EBFB044610A80DF0DFF9002CCA
:105A600020DB1B212C4811F089F826480DF03CF86A
:105A7000002DBCD0002402E00134A542B7D0274954
:105A800010A80DF00BFA10A930460DF0CFFB074619
:105A900010A80DF0C3F9002F06F11006ECDB204B27
:105AA0001C60A4E79EA80DF0FDFBA6A8B0EE408AFE
:105AB0000DF0F8FBF0EE007AB0EE407A98EE277A1F
:105AC000F0EE408AF0EE477A88EE277A17EE100A59
:105AD00015F0C2FB134BC3E90001BAA80DF0DCFBC3
